S01200006C6162312D70617274342E737265639A
S11300000C9438000C9455000C9455000C94550035
S11300100C9455000C9455000C9455000C94550008
S11300200C9455000C9455000C9455000C945500F8
S11300300C9455000C9455000C9455000C945500E8
S11300400C9455000C9455000C9455000C945500D8
S11300500C9455000C9455000C9455007F006100DD
S1130060640067006A006D00700073007600790018
S113007011241FBECFEFD4E0DEBFCDBF11E0A0E05E
S1130080B1E0EEEDF5E002C005900D92A235B107A6
S1130090D9F721E0A2E5B1E001C01D92AD35B20768
S11300A0E1F70E946A020C94ED020C94000090E0C7
S11300B0FC01F097EA30F105F8F4E25DFF4F0C948F
S11300C0B10281E491E0089589E391E0089581E328
S11300D091E0089589E291E0089581E291E0089524
S11300E089E191E0089581E191E0089589E091E04A
S11300F0089581E091E0089584E591E0089589E40C
S113010091E00895E1E6F0E080E8808310828FE0DA
S11301108093E70087EB8093E50087E08093E60017
S113012080EC8093E40084E08093810027982F9AE8
S11301300895CF93653008F0E4C0C62F0E9457009D
S1130140FC01C23009F467C028F4CC2351F0C1305B
S113015029F1D7C0C33009F47BC0C43009F4B5C059
S1130160D0C0ACEEB0E08C91807F9081892B8C93D1
S1130170A1EFB0E08C91807F9281892B8C93A6EFC4
S1130180B0E08C91807F9481892B8C93ABEFB0E0AD
S11301908C91807F9681892B8C93B3C0ACEEB0E0B8
S11301A02C918081918182959295907F9827807F70
S11301B09827922F9F70892B8C93A1EFB0E02C91FC
S11301C08281938182959295907F9827807F98274A
S11301D0922F9F70892B8C93A6EFB0E02C91848191
S11301E0958182959295907F9827807F9827922F6A
S11301F09F70892B8C93ABEFB0E02C918681978113
S113020082959295907F9827807F9827922F9F7050
S1130210892B8C9376C0ADEEB0E08C91807F908179
S1130220892B8C93A2EFB0E08C91807F9281892BF3
S11302308C93A7EFB0E08C91807F9481892B8C9371
S1130240ACEFB0E08C91807F9681892B8C9359C060
S1130250ADEEB0E02C918081918182959295907F52
S11302609827807F9827922F9F70892B8C93A2EFD9
S1130270B0E02C918281938182959295907F98270A
S1130280807F9827922F9F70892B8C93A7EFB0E0E3
S11302902C918481958182959295907F9827807F77
S11302A09827922F9F70892B8C93ACEFB0E02C9100
S11302B08681978182959295907F9827807F982751
S11302C0922F9F70892B8C931CC0AEEEB0E08C9162
S11302D0807F9081892B8C93A3EFB0E08C91807FF9
S11302E09281892B8C93A8EFB0E08C91807F9481CC
S11302F0892B8C93ADEFB0E08C91807F9681892B14
S11303008C93CF9108958F929F92AF92BF92CF9288
S1130310DF92EF92FF92CF936115710581059105EC
S1130320B1F42BC0C114D104E104F10431F1C701CB
S1130330B601A50194010E94920269017A01862FF7
S11303406C2F805D0E949900C15060F716C02AE0AE
S113035030E040E050E00E94920269017A01862F69
S113036064E0805D0E949900C3E00F2EFAE08F2EB6
S1130370912CA12CB12CF02DD5CFCF91FF90EF90E3
S1130380DF90CF90BF90AF909F908F900895FC0125
S1130390823091051CF18430910514F181709078BC
S11303A0992324F401978E6F9F6F0196892BD1F0C6
S11303B022E030E006C0CF01B9010E947E02892B01
S11303C099F02F5F3F4F229FC001239F900D900D06
S11303D01124E817F9077CF781E0089580E0089577
S11303E081E0089580E0089580E00895CF92DF923F
S11303F0EF92FF926B017C01CB010E94C70188231D
S113040021F0C701B6010E948301FF90EF90DF90B5
S1130410CF900895E4E8F0E020813181281B390B66
S1130420DAF30895CF93DF938091520190915301B1
S1130430892B51F48091840090918500875F924CC0
S11304409093530180935201ECEEF0E0908182E0AE
S113045089278083C0915201D0915301CE010E941B
S11304600A02C75FD24CD0935301C0935201DF916B
S1130470CF910895FC012081213069F420E220838A
S1130480EFEEF0E080818E7F8083EEEEF0E08081FD
S113049080628083089521E0FC012083EEEEF0E089
S11304A080818F7D8083EFEEF0E0808181608083A6
S11304B008951F990CC080915C0181110AC081E0EC
S11304C080935C0180E091E00E943A0208951092CA
S11304D05C0108950E948200C12CD12C7601C39442
S11304E0C701B6010E94F6018FEFC81AD80AE80ABC
S11304F0F80A0E9412020E945902F2CF97FB072EBB
S113050016F4009407D077FD09D00E94B70207FCC7
S113051005D03EF4909581959F4F0895709561950F
S11305207F4F0895052E97FB1EF400940E94A902A4
S113053057FD07D00E94CB0207FC03D04EF40C9465
S1130540A90250954095309521953F4F4F4F5F4FED
S1130550089590958095709561957F4F8F4F9F4F2B
S11305600895EE0FFF1F0590F491E02D0994AA1B46
S1130570BB1B51E107C0AA1FBB1FA617B70710F08A
S1130580A61BB70B881F991F5A95A9F780959095BC
S1130590BC01CD010895A1E21A2EAA1BBB1BFD01CB
S11305A00DC0AA1FBB1FEE1FFF1FA217B307E4074E
S11305B0F50720F0A21BB30BE40BF50B661F771FA6
S11305C0881F991F1A9469F7609570958095909586
S11105D09B01AC01BD01CF010895F894FFCF4B
S11305DE01010005000B000100010005000F0001E0
S11305EE000100010001000000010004000F0001E1
S11305FE00010004000B000100000005000B0000C8
S113060E00010001000B000100010001000E0001B9
S113061E00000001000100000001000500050001BA
S105062E0000C6
S9030000FC
