S01700004763634170706C69636174696F6E312E737265635B
S11300000C9438000C9455000C9455000C94870201
S11300100C9455000C9455000C9455000C945F02FC
S11300200C9455000C9455000C9455000C945500F8
S11300300C9455000C9455000C9455000C945500E8
S11300400C9455000C9455000C9455000C945500D8
S11300500C9455000C9455000C945500B400960073
S113006099009C009F00A200A500A800AB00AE0070
S113007011241FBECFEFD4E0DEBFCDBF11E0A0E05E
S1130080B1E0E8E8F8E002C005900D92A835B107A8
S1130090D9F723E0A8E5B1E001C01D92A738B20763
S11300A0E1F70E94BC020C9442040C940000ECEFB3
S11300B0F0E0908182E0892780830895E1E6F0E012
S11300C080E880831082E1E8F0E0808188608083AA
S11300D081E49FE09093890080938800808185600B
S11300E08083EFE6F0E080818260808327982F9AF6
S11300F0ECE6F0E0808180688083EF9A08958FE0D9
S11301008093E70087EB8093E50087E08093E60027
S113011080EC8093E400089590E0FC01F097EA30CD
S1130120F105F8F4E25DFF4F0C94C50381E491E01E
S1130130089589E391E0089581E391E0089589E2C7
S113014091E0089581E291E0089589E191E00895B4
S113015081E191E0089589E091E0089581E091E0E2
S1130160089588E591E0089589E491E00895CF9396
S1130170653008F0E4C0C62F0E948C00FC01C23038
S113018009F467C028F4CC2351F0C13029F1D7C059
S1130190C33009F47BC0C43009F4B5C0D0C0ACEEA0
S11301A0B0E08C91807F9081892B8C93A1EFB0E09B
S11301B08C91807F9281892B8C93A6EFB0E08C91F7
S11301C0807F9481892B8C93ABEFB0E08C91807FFE
S11301D09681892B8C93B3C0ACEEB0E02C918081D6
S11301E0918182959295907F9827807F9827922F6E
S11301F09F70892B8C93A1EFB0E02C918281938125
S113020082959295907F9827807F9827922F9F7050
S1130210892B8C93A6EFB0E02C91848195818295F3
S11302209295907F9827807F9827922F9F70892B93
S11302308C93ABEFB0E02C91868197818295929557
S1130240907F9827807F9827922F9F70892B8C937B
S113025076C0ADEEB0E08C91807F9081892B8C9339
S1130260A2EFB0E08C91807F9281892B8C93A7EFD1
S1130270B0E08C91807F9481892B8C93ACEFB0E0BB
S11302808C91807F9681892B8C9359C0ADEEB0E020
S11302902C918081918182959295907F9827807F7F
S11302A09827922F9F70892B8C93A2EFB0E02C910A
S11302B08281938182959295907F9827807F982759
S11302C0922F9F70892B8C93A7EFB0E02C9184819F
S11302D0958182959295907F9827807F9827922F79
S11302E09F70892B8C93ACEFB0E02C918681978121
S11302F082959295907F9827807F9827922F9F7060
S1130300892B8C931CC0AEEEB0E08C91807F9081E1
S1130310892B8C93A3EFB0E08C91807F9281892B01
S11303208C93A8EFB0E08C91807F9481892B8C937F
S1130330ADEFB0E08C91807F9681892B8C93CF9127
S113034008958F929F92AF92BF92CF92DF92EF92D5
S1130350FF92CF93DF934B015C01EA0124E630E086
S113036040E050E00E94A6030F2EFAE0CF2ED12CDD
S1130370E12CF12CF02DA70196010E94A6036C2F0D
S113038080E3820F0E94B7002196C501B401A70142
S113039096010E94A603862F6C2F805D0E94B700F1
S11303A0DF91CF91FF90EF90DF90CF90BF90AF900F
S11303B09F908F900895FC01823091051CF1843048
S11303C0910514F181709078992324F401978E6F2C
S11303D09F6F0196892BD1F022E030E006C0CF0157
S11303E0B9010E949203892B99F02F5F3F4F229FFE
S11303F0C001239F900D900D1124E817F9077CF795
S113040081E0089580E0089581E0089580E00895F2
S113041080E00895C0915101D0915201CE010E9413
S1130420DB01882389F0BE01DD0F880B990B40E0C6
S113043050E00E94A1012FE986E891E0215080401C
S11304409040E1F700C00000809151019091520169
S113045001969093520180935101DCCFFC012081DD
S1130460213069F420E22083EFEEF0E080818E7F7A
S11304708083EEEEF0E0808180628083089521E045
S1130480FC012083EEEEF0E080818F7D8083EFEE2F
S1130490F0E0808181608083089580E091E00E9493
S11304A02E0208956091600170916101072E000C85
S11304B0880B990B43E050E00E94A10108951F921C
S11304C00F920FB60F9211242F933F934F935F9384
S11304D06F937F938F939F93AF93BF93EF93FF9308
S11304E060E070E087E590E00E94E402FF91EF9104
S11304F0BF91AF919F918F917F916F915F914F9138
S11305003F912F910F900FBE0F901F9018951F923F
S11305100F920FB60F9211242F933F934F935F9333
S11305206F937F938F939F93AF93BF93EF93FF93B7
S11305301F9911C08091600190916101019690937F
S11305406101809360010E94520260E070E08DE4DA
S113055092E00E94E402FF91EF91BF91AF919F91CD
S11305608F917F916F915F914F913F912F910F9058
S11305700FBE0F901F901895F8940E945E000E9481
S11305807F0078940E940A02CF93DF9300D0CDB706
S1130590DEB79A8389838091530190915401069622
S11305A00E940104892B59F489819A819093540102
S11305B08093530161E070E006960E9421040F903D
S11305C00F90DF91CF910895CF93DF9300D0CDB7F3
S11305D0DEB7F8942091620130916301232BE1F49A
S11305E020E432E03093D8012093D7012DEA32E0A1
S11305F030934502209344022AE133E03093B2025F
S11306002093B10210921F0310921E0321E030E0E8
S1130610309363012093620120915501309156017A
S11306203A832983232BE1F0A981BA8114964D9151
S11306305C911597509356014093550111969C93E4
S11306408E9313967C936E93129715961C921E921A
S11306501497CD0106960E940104019779F501C013
S1130660FFCF7894A0915301B0915401ED91FC9186
S1130670119712968D919C9113970995F894E09196
S11306805301F09154018091550190915601958345
S11306908483F0935601E093550180916401909115
S11306A06501009751F0FC01248135813093650187
S11306B0209364010E94C40201C0FFCFE981FA8142
S11306C0369689819A8187599F4F918B808B938B22
S11306D0828BE0915301F0915401809164019091D7
S11306E0650195838483A981BA811596FC93EE9361
S11306F01497B0936501A0936401109709F4FFCF98
S113070014968D919C911597909365018093640143
S113071089819A810E94C40278940F900F90DF918E
S1130720CF91089597FB072E16F4009407D077FD18
S113073009D00E94CB0307FC05D03EF49095819527
S11307409F4F0895709561957F4F0895052E97FBEF
S11307501EF400940E94BD0357FD07D00E94DF03DE
S113076007FC03D04EF40C94BD035095409530958E
S113077021953F4F4F4F5F4F089590958095709509
S113078061957F4F8F4F9F4F0895EE0FFF1F059088
S1130790F491E02D0994AA1BBB1B51E107C0AA1FC9
S11307A0BB1FA617B70710F0A61BB70B881F991F0E
S11307B05A95A9F780959095BC01CD010895A1E2C1
S11307C01A2EAA1BBB1BFD010DC0AA1FBB1FEE1FC7
S11307D0FF1FA217B307E407F50720F0A21BB30B12
S11307E0E40BF50B661F771F881F991F1A9469F78E
S11307F060957095809590959B01AC01BD01CF01EA
S11308000895DC012D923D924D925D926D927D9200
S11308108D929D92AD92BD92CD92DD92ED92FD921C
S11308200D931D93CD93DD93FF91EF918DB78D9330
S11308308EB78D938FB78D93ED93FD93882799276A
S11308400994DC01CB0181309105811D2D903D90EF
S11308504D905D906D907D908D909D90AD90BD90EC
S1130860CD90DD90ED90FD900D911D91CD91DD9198
S1130870ED91FD910D90F894FEBF0FBEEDBFED918B
S10B0880FD910994F894FFCFE7
S113088801010005000B000100010005000F000133
S1130898000100010001000000010004000F000134
S11308A800010004000B000100000005000B00001B
S11308B800010001000B000100010001000E00010D
S11308C8000000010001000000010005000500010E
S10B08D80002006601D30100D7
S9030000FC
