:100000000C9438000C94C6030C9432040C949E0497
:100010000C940A050C9476050C9455000C944D0C28
:100020000C9455000C94FB0B0C94E2050C944E06BA
:100030000C94BA060C9426070C9492070C94FE07B5
:100040000C946A080C94D6080C9442090C94AE09DE
:100050000C941A0A0C94860A0C94F20A8C016E0114
:100060007101740177017A017D01800183018601AC
:1000700011241FBECFEFD4E0DEBFCDBF11E0A0E062
:10008000B1E0EEEFFFE102C005900D92A835B10797
:10009000D9F724E0A8E5B1E001C01D92A33BB20767
:1000A000E1F70E94D9020C94FD0F0C940000E0ECE3
:1000B000F0E0808185FFFDCF6093C6000895FC01CC
:1000C00094819F5F94830895FC0195819F5F958340
:1000D0000895FC0196819F5F96830895CF92DF92E9
:1000E000EF92FF920F931F93CF93DF938C01FC014C
:1000F000C581C11103C0448150E007C0FC01848167
:100100006C2F0E94690F482F50E0F8016481611143
:1001100002C0D0E005C08C2F0E94690FC82FD0E02C
:100120006CED70E0C8010E94130E6E010F2EF8E115
:10013000EF2EF1E0FF2EF02D20E030E0A9016AE57E
:1001400072E682E090E00E94020D28EE33E0C29F4A
:10015000C001C39F900DD29F900D112488579C4ED3
:100160001816190614F40197F1F7DF91CF911F913A
:100170000F91FF90EF90DF90CF900895CF93DF9392
:10018000EC016C8170E080E090E040E050E00E9483
:1001900079026D8170E080E090E044E050E00E94E0
:1001A00079026E8170E080E090E042E050E00E94D1
:1001B0007902DF91CF910895CF92DF92EF92FF9273
:1001C0000F931F93CF93DF93EC011F8248E050E021
:1001D00067E570E00E94130E60E070E083E70E9424
:1001E000B302CE010E94BE00CC24C394D12C0F2EAA
:1001F000F7E5EF2EF0E0FF2EF02D8E0120E030E04D
:10020000A9016AE572E682E090E00E94020D61E0D9
:1002100070E08EE60E94B302CE010E94BE00DF9124
:10022000CF911F910F91FF90EF90DF90CF900895A5
:10023000CF92DF92EF92FF920F931F93CF93DF93B2
:10024000EC0181E08F8342E050E067E570E0CE0191
:100250000E94130E60E070E08EE60E94B302CE01B1
:100260000E94BE006894CC24C2F8D12C0F2EF7E572
:10027000EF2EF0E0FF2EF02D8E0120E030E0A901FE
:100280006AE572E682E090E00E94020D61E070E0B3
:1002900083E70E94B302CE010E94BE00DF91CF919E
:1002A0001F910F91FF90EF90DF90CF9008958FE016
:1002B0008093E70087EB8093E50087E08093E6007A
:1002C00080EC8093E400089590E0FC01F097EA3020
:1002D000F105F8F4E25DFF4F0C94940F80E491E097
:1002E000089588E391E0089580E391E0089588E21D
:1002F00091E0089580E291E0089588E191E0089509
:1003000080E191E0089588E091E0089580E091E037
:10031000089588E591E0089588E491E00895CF93E9
:10032000663008F0E4C0C62F0E946401FC01C230B0
:1003300009F467C028F4CC2351F0C13029F1D7C0AB
:10034000C33009F47BC0C43009F4B5C0D0C0ACEEF2
:10035000B0E08C91807F9081892B8C93A1EFB0E0ED
:100360008C91807F9281892B8C93A6EFB0E08C9149
:10037000807F9481892B8C93ABEFB0E08C91807F50
:100380009681892B8C93B3C0ACEEB0E02C91808128
:10039000918182959295907F9827807F9827922FC0
:1003A0009F70892B8C93A1EFB0E02C918281938177
:1003B00082959295907F9827807F9827922F9F70A3
:1003C000892B8C93A6EFB0E02C9184819581829546
:1003D0009295907F9827807F9827922F9F70892BE6
:1003E0008C93ABEFB0E02C918681978182959295AA
:1003F000907F9827807F9827922F9F70892B8C93CE
:1004000076C0ADEEB0E08C91807F9081892B8C938B
:10041000A2EFB0E08C91807F9281892B8C93A7EF23
:10042000B0E08C91807F9481892B8C93ACEFB0E00D
:100430008C91807F9681892B8C9359C0ADEEB0E072
:100440002C918081918182959295907F9827807FD1
:100450009827922F9F70892B8C93A2EFB0E02C915C
:100460008281938182959295907F9827807F9827AB
:10047000922F9F70892B8C93A7EFB0E02C918481F1
:10048000958182959295907F9827807F9827922FCB
:100490009F70892B8C93ACEFB0E02C918681978173
:1004A00082959295907F9827807F9827922F9F70B2
:1004B000892B8C931CC0AEEEB0E08C91807F908134
:1004C000892B8C93A3EFB0E08C91807F9281892B54
:1004D0008C93A8EFB0E08C91807F9481892B8C93D2
:1004E000ADEFB0E08C91807F9681892B8C93CF917A
:1004F00008958F929F92AF92BF92CF92DF92EF9228
:10050000FF92CF93DF934B015C01EA0124E630E0D8
:1005100040E050E00E94750F0F2EFAE0CF2ED12C54
:10052000E12CF12CF02DA70196010E94750F6C2F84
:1005300080E3820F0E948F012196C501B401A701BB
:1005400096010E94750F862F6C2F805D0E948F018F
:10055000DF91CF91FF90EF90DF90CF90BF90AF9061
:100560009F908F9008956115710599F06130710524
:10057000F9F48E3631F4ECEEF0E080818460808313
:1005800008958337A9F4ECEEF0E0808180648083E5
:1005900008958E3631F4ECEEF0E080818B7F80831D
:1005A0000895833729F4ECEEF0E080818F7B80831F
:1005B0000895CF93DF93CDB7DEB761970FB6F89468
:1005C000DEBF0FBECDBFF8941D861C861F861E861B
:1005D000CE010196998B888B0E945701789440E058
:1005E00050E06CE57FE0CE010C960E940E0F619604
:1005F0000FB6F894DEBF0FBECDBFDF91CF91089547
:10060000CF93DF9300D000D0CDB7DEB783E592E083
:1006100023E333E0FC017097918380834096821737
:100620009307C1F71092240310922303EEE8F1E040
:100630008BEA91E09183808388EC91E0968F858F9F
:10064000A5EEB1E0B3AFA2AF1D921C92FA83E9838D
:10065000EFE8F3E0FC83EB8389819A8106960E94A0
:10066000BC0F8B819C81E981FA81978B868B918F5E
:10067000808F80EA9EE0948F838F158214827D960E
:10068000FA83E983EB81FC81E05AFF4FFC83EB8323
:1006900089819A8182509240F9F6E6E2F2E0118275
:1006A00010821582148213821282E1E6F0E080E863
:1006B00080831082109285001092840084E08093E1
:1006C000810081E080936F000F900F900F900F904A
:1006D000DF91CF910895CF93DF9300D0CDB7DEB7F0
:1006E0009A838983809150019091510106960E94CE
:1006F000BC0F892B59F489819A8190935101809381
:10070000500161E070E006960E94DC0F0F900F90A0
:10071000DF91CF9108950F931F93CF93DF93E091D3
:100720006801F0916901309761F1809154019091D5
:100730005501009731F1C0915201D0915301AA8126
:10074000BB81109779F04681578160857185169637
:100750000D911D912D913C911997401B510B620BEE
:10076000730B7AF4FC012081318130935501209381
:100770005401D183C08390935301809352010E940E
:100780006B03DF91CF911F910F9108951F920F92EC
:100790000FB60F9211242F933F934F935F936F9354
:1007A0007F938F939F93AF93BF93EF93FF9320918A
:1007B0006001309161014091840050918500C90130
:1007C000032E000CAA0BBB0BDC019927882760E0E5
:1007D00070E0842B952BA62BB72B8093620190930E
:1007E0006301A0936401B0936501B09B1BC040916D
:1007F000840050918500C9010196092E000CAA0BB6
:10080000BB0BDC019927882760E070E0842B952BD7
:10081000A62BB72B8093620190936301A093640190
:10082000B0936501E0910202F0910302309739F034
:1008300060E070E080916A0190916B0109950E94DF
:100840008B03FF91EF91BF91AF919F918F917F911A
:100850006F915F914F913F912F910F900FBE0F902D
:100860001F9018951F920F920FB60F9211242F937D
:100870003F934F935F936F937F938F939F93AF9328
:10088000BF93EF93FF9320916001309161014091FC
:10089000840050918500C901032E000CAA0BBB0BEC
:1008A000DC019927882760E070E0842B952BA62B2C
:1008B000B72B8093620190936301A0936401B0937E
:1008C0006501B09B1BC04091840050918500C90117
:1008D0000196092E000CAA0BBB0BDC019927882777
:1008E00060E070E0842B952BA62BB72B80936201E0
:1008F00090936301A0936401B0936501E0910402B9
:10090000F0910502309739F061E070E080916C0160
:1009100090916D0109950E948B03FF91EF91BF911A
:10092000AF919F918F917F916F915F914F913F9187
:100930002F910F900FBE0F901F9018951F920F923E
:100940000FB60F9211242F933F934F935F936F93A2
:100950007F938F939F93AF93BF93EF93FF932091D8
:100960006001309161014091840050918500C9017E
:10097000032E000CAA0BBB0BDC019927882760E033
:1009800070E0842B952BA62BB72B8093620190935C
:100990006301A0936401B0936501B09B1BC04091BB
:1009A000840050918500C9010196092E000CAA0B04
:1009B000BB0BDC019927882760E070E0842B952B26
:1009C000A62BB72B8093620190936301A0936401DF
:1009D000B0936501E0910602F0910702309739F07B
:1009E00062E070E080916E0190916F0109950E9424
:1009F0008B03FF91EF91BF91AF919F918F917F9169
:100A00006F915F914F913F912F910F900FBE0F907B
:100A10001F9018951F920F920FB60F9211242F93CB
:100A20003F934F935F936F937F938F939F93AF9376
:100A3000BF93EF93FF93209160013091610140914A
:100A4000840050918500C901032E000CAA0BBB0B3A
:100A5000DC019927882760E070E0842B952BA62B7A
:100A6000B72B8093620190936301A0936401B093CC
:100A70006501B09B1BC04091840050918500C90165
:100A80000196092E000CAA0BBB0BDC0199278827C5
:100A900060E070E0842B952BA62BB72B809362012E
:100AA00090936301A0936401B0936501E091080203
:100AB000F0910902309739F063E070E080917001A5
:100AC0009091710109950E948B03FF91EF91BF9165
:100AD000AF919F918F917F916F915F914F913F91D6
:100AE0002F910F900FBE0F901F9018951F920F928D
:100AF0000FB60F9211242F933F934F935F936F93F1
:100B00007F938F939F93AF93BF93EF93FF93209126
:100B10006001309161014091840050918500C901CC
:100B2000032E000CAA0BBB0BDC019927882760E081
:100B300070E0842B952BA62BB72B809362019093AA
:100B40006301A0936401B0936501B09B1BC0409109
:100B5000840050918500C9010196092E000CAA0B52
:100B6000BB0BDC019927882760E070E0842B952B74
:100B7000A62BB72B8093620190936301A09364012D
:100B8000B0936501E0910A02F0910B02309739F0C1
:100B900064E070E0809172019091730109950E9468
:100BA0008B03FF91EF91BF91AF919F918F917F91B7
:100BB0006F915F914F913F912F910F900FBE0F90CA
:100BC0001F9018951F920F920FB60F9211242F931A
:100BD0003F934F935F936F937F938F939F93AF93C5
:100BE000BF93EF93FF932091600130916101409199
:100BF000840050918500C901032E000CAA0BBB0B89
:100C0000DC019927882760E070E0842B952BA62BC8
:100C1000B72B8093620190936301A0936401B0931A
:100C20006501B09B1BC04091840050918500C901B3
:100C30000196092E000CAA0BBB0BDC019927882713
:100C400060E070E0842B952BA62BB72B809362017C
:100C500090936301A0936401B0936501E0910C024D
:100C6000F0910D02309739F065E070E080917401E9
:100C70009091750109950E948B03FF91EF91BF91AF
:100C8000AF919F918F917F916F915F914F913F9124
:100C90002F910F900FBE0F901F9018951F920F92DB
:100CA0000FB60F9211242F933F934F935F936F933F
:100CB0007F938F939F93AF93BF93EF93FF93209175
:100CC0006001309161014091840050918500C9011B
:100CD000032E000CAA0BBB0BDC019927882760E0D0
:100CE00070E0842B952BA62BB72B809362019093F9
:100CF0006301A0936401B0936501B09B1BC0409158
:100D0000840050918500C9010196092E000CAA0BA0
:100D1000BB0BDC019927882760E070E0842B952BC2
:100D2000A62BB72B8093620190936301A09364017B
:100D3000B0936501E0910E02F0910F02309739F007
:100D400066E070E0809176019091770109950E94AC
:100D50008B03FF91EF91BF91AF919F918F917F9105
:100D60006F915F914F913F912F910F900FBE0F9018
:100D70001F9018951F920F920FB60F9211242F9368
:100D80003F934F935F936F937F938F939F93AF9313
:100D9000BF93EF93FF9320916001309161014091E7
:100DA000840050918500C901032E000CAA0BBB0BD7
:100DB000DC019927882760E070E0842B952BA62B17
:100DC000B72B8093620190936301A0936401B09369
:100DD0006501B09B1BC04091840050918500C90102
:100DE0000196092E000CAA0BBB0BDC019927882762
:100DF00060E070E0842B952BA62BB72B80936201CB
:100E000090936301A0936401B0936501E091100297
:100E1000F0911102309739F067E070E0809178012D
:100E20009091790109950E948B03FF91EF91BF91F9
:100E3000AF919F918F917F916F915F914F913F9172
:100E40002F910F900FBE0F901F9018951F920F9229
:100E50000FB60F9211242F933F934F935F936F938D
:100E60007F938F939F93AF93BF93EF93FF932091C3
:100E70006001309161014091840050918500C90169
:100E8000032E000CAA0BBB0BDC019927882760E01E
:100E900070E0842B952BA62BB72B80936201909347
:100EA0006301A0936401B0936501B09B1BC04091A6
:100EB000840050918500C9010196092E000CAA0BEF
:100EC000BB0BDC019927882760E070E0842B952B11
:100ED000A62BB72B8093620190936301A0936401CA
:100EE000B0936501E0911202F0911302309739F04E
:100EF00068E070E080917A0190917B0109950E94F1
:100F00008B03FF91EF91BF91AF919F918F917F9153
:100F10006F915F914F913F912F910F900FBE0F9066
:100F20001F9018951F920F920FB60F9211242F93B6
:100F30003F934F935F936F937F938F939F93AF9361
:100F4000BF93EF93FF932091600130916101409135
:100F5000840050918500C901032E000CAA0BBB0B25
:100F6000DC019927882760E070E0842B952BA62B65
:100F7000B72B8093620190936301A0936401B093B7
:100F80006501B09B1BC04091840050918500C90150
:100F90000196092E000CAA0BBB0BDC0199278827B0
:100FA00060E070E0842B952BA62BB72B8093620119
:100FB00090936301A0936401B0936501E0911402E2
:100FC000F0911502309739F069E070E080917C0172
:100FD00090917D0109950E948B03FF91EF91BF9144
:100FE000AF919F918F917F916F915F914F913F91C1
:100FF0002F910F900FBE0F901F9018951F920F9278
:101000000FB60F9211242F933F934F935F936F93DB
:101010007F938F939F93AF93BF93EF93FF93209111
:101020006001309161014091840050918500C901B7
:10103000032E000CAA0BBB0BDC019927882760E06C
:1010400070E0842B952BA62BB72B80936201909395
:101050006301A0936401B0936501B09B1BC04091F4
:10106000840050918500C9010196092E000CAA0B3D
:10107000BB0BDC019927882760E070E0842B952B5F
:10108000A62BB72B8093620190936301A093640118
:10109000B0936501E0911602F0911702309739F094
:1010A0006AE070E080917E0190917F0109950E9435
:1010B0008B03FF91EF91BF91AF919F918F917F91A2
:1010C0006F915F914F913F912F910F900FBE0F90B5
:1010D0001F9018951F920F920FB60F9211242F9305
:1010E0003F934F935F936F937F938F939F93AF93B0
:1010F000BF93EF93FF932091600130916101409184
:10110000840050918500C901032E000CAA0BBB0B73
:10111000DC019927882760E070E0842B952BA62BB3
:10112000B72B8093620190936301A0936401B09305
:101130006501B09B1BC04091840050918500C9019E
:101140000196092E000CAA0BBB0BDC0199278827FE
:1011500060E070E0842B952BA62BB72B8093620167
:1011600090936301A0936401B0936501E09118022C
:10117000F0911902309739F06BE070E080918001B6
:101180009091810109950E948B03FF91EF91BF918E
:10119000AF919F918F917F916F915F914F913F910F
:1011A0002F910F900FBE0F901F9018951F920F92C6
:1011B0000FB60F9211242F933F934F935F936F932A
:1011C0007F938F939F93AF93BF93EF93FF93209160
:1011D0006001309161014091840050918500C90106
:1011E000032E000CAA0BBB0BDC019927882760E0BB
:1011F00070E0842B952BA62BB72B809362019093E4
:101200006301A0936401B0936501B09B1BC0409142
:10121000840050918500C9010196092E000CAA0B8B
:10122000BB0BDC019927882760E070E0842B952BAD
:10123000A62BB72B8093620190936301A093640166
:10124000B0936501E0911A02F0911B02309739F0DA
:101250006CE070E0809182019091830109950E9479
:101260008B03FF91EF91BF91AF919F918F917F91F0
:101270006F915F914F913F912F910F900FBE0F9003
:101280001F9018951F920F920FB60F9211242F9353
:101290003F934F935F936F937F938F939F93AF93FE
:1012A000BF93EF93FF9320916001309161014091D2
:1012B000840050918500C901032E000CAA0BBB0BC2
:1012C000DC019927882760E070E0842B952BA62B02
:1012D000B72B8093620190936301A0936401B09354
:1012E0006501B09B1BC04091840050918500C901ED
:1012F0000196092E000CAA0BBB0BDC01992788274D
:1013000060E070E0842B952BA62BB72B80936201B5
:1013100090936301A0936401B0936501E0911C0276
:10132000F0911D02309739F06DE070E080918401FA
:101330009091850109950E948B03FF91EF91BF91D8
:10134000AF919F918F917F916F915F914F913F915D
:101350002F910F900FBE0F901F9018951F920F9214
:101360000FB60F9211242F933F934F935F936F9378
:101370007F938F939F93AF93BF93EF93FF932091AE
:101380006001309161014091840050918500C90154
:10139000032E000CAA0BBB0BDC019927882760E009
:1013A00070E0842B952BA62BB72B80936201909332
:1013B0006301A0936401B0936501B09B1BC0409191
:1013C000840050918500C9010196092E000CAA0BDA
:1013D000BB0BDC019927882760E070E0842B952BFC
:1013E000A62BB72B8093620190936301A0936401B5
:1013F000B0936501E0911E02F0911F02309739F021
:101400006EE070E0809186019091870109950E94BD
:101410008B03FF91EF91BF91AF919F918F917F913E
:101420006F915F914F913F912F910F900FBE0F9051
:101430001F9018951F920F920FB60F9211242F93A1
:101440003F934F935F936F937F938F939F93AF934C
:10145000BF93EF93FF932091600130916101409120
:10146000840050918500C901032E000CAA0BBB0B10
:10147000DC019927882760E070E0842B952BA62B50
:10148000B72B8093620190936301A0936401B093A2
:101490006501B09B1BC04091840050918500C9013B
:1014A0000196092E000CAA0BBB0BDC01992788279B
:1014B00060E070E0842B952BA62BB72B8093620104
:1014C00090936301A0936401B0936501E0912002C1
:1014D000F0912102309739F06FE070E0809188013F
:1014E0009091890109950E948B03FF91EF91BF9123
:1014F000AF919F918F917F916F915F914F913F91AC
:101500002F910F900FBE0F901F9018951F920F9262
:101510000FB60F9211242F933F934F935F936F93C6
:101520007F938F939F93AF93BF93EF93FF932091FC
:101530006001309161014091840050918500C901A2
:10154000032E000CAA0BBB0BDC019927882760E057
:1015500070E0842B952BA62BB72B80936201909380
:101560006301A0936401B0936501B09B1BC04091DF
:10157000840050918500C9010196092E000CAA0B28
:10158000BB0BDC019927882760E070E0842B952B4A
:10159000A62BB72B8093620190936301A093640103
:1015A000B0936501E0912202F0912302309739F067
:1015B00060E170E080918A0190918B0109950E9411
:1015C0008B03FF91EF91BF91AF919F918F917F918D
:1015D0006F915F914F913F912F910F900FBE0F90A0
:1015E0001F9018951F920F920FB60F9211242F93F0
:1015F0003F934F935F936F937F938F939F93AF939B
:10160000BF93EF93FF93209160013091610140916E
:10161000840050918500C901032E000CAA0BBB0B5E
:10162000DC019927882760E070E0842B952BA62B9E
:10163000B72B8093620190936301A0936401B093F0
:101640006501B09B1BC04091840050918500C90189
:101650000196092E000CAA0BBB0BDC0199278827E9
:1016600060E070E0842B952BA62BB72B8093620152
:1016700090936301A0936401B0936501E09124020B
:10168000F0912502309739F061E170E080918C0192
:1016900090918D0109950E948B03FF91EF91BF916D
:1016A000AF919F918F917F916F915F914F913F91FA
:1016B0002F910F900FBE0F901F901895EF92FF92F1
:1016C0000F931F93CF93DF937B01EB01A881B98127
:1016D000109761F1FC0106811781208531851696EE
:1016E0004D915D916D917C9119970417150726070F
:1016F000370714F41BC0DF01ED91FC91119730976F
:1017000049F04681578160857185041715072607C2
:1017100037078CF7EC01F983E883109721F4F70180
:101720009183808307C08D939C9304C0EC01B9839F
:10173000A883F5CFDF91CF911F910F91FF90EF908C
:101740000895EF92FF920F931F93CF93DF937B0146
:10175000EB01A881B981109761F1FC01028113812D
:101760002481358112964D915D916D917C911597F3
:10177000041715072607370714F41BC0DF01ED9186
:10178000FC911197309749F04281538164817581B2
:1017900004171507260737078CF7EC01F983E88350
:1017A000109721F4F7019183808307C08D939C9358
:1017B00004C0EC01B983A883F5CFDF91CF911F91CD
:1017C0000F91FF90EF900895DC01ED91FC9111973E
:1017D000309759F48FEF8093EC008093ED00809365
:1017E000EE0081E083BF8895FDCF208131812D936C
:1017F0003C93CF0108951F920F920FB60F921124C0
:101800002F933F934F935F936F937F938F939F9308
:10181000EF93FF9380916001909161010196909305
:10182000610180936001E0916601F091670130975A
:1018300001F1428153816481758186179707C9F44C
:10184000CA012091840030918500421B530B413026
:10185000510529F480918400909185000196909320
:10186000890080938800EFE6F0E0808182608083C9
:1018700005C0EFE6F0E080818D7F8083FF91EF91DE
:101880009F918F917F916F915F914F913F912F9198
:101890000F900FBE0F901F9018951F920F920FB6CA
:1018A0000F921124CF92DF92EF92FF922F933F93EA
:1018B0004F935F936F937F938F939F93AF93BF9358
:1018C000EF93FF93C0906001D0906101209184005C
:1018D00030918500B0990FC00D2C000CEE08FF0868
:1018E000D601992788276901E12CF12CC82AD92A29
:1018F000EA2AFB2A15C020918400309185008FEFE1
:10190000C81AD80A0D2C000CEE08FF08D60199273A
:1019100088276901E12CF12CC82AD92AEA2AFB2A56
:10192000E0916601F0916701309709F442C082812D
:101930009381A481B5818C199D09AE09BF09181640
:1019400019061A061B06ECF186E691E00E94E40BEC
:1019500068E671E00E945E0BE0916601F09167011C
:10196000309739F182819381A481B5818C199D09C9
:10197000AE09BF09181619061A061B062CF721C056
:101980009C014091840050918500841B950B019728
:1019900031F420918400309185002F5F3F4F3093C8
:1019A000890020938800EFE6F0E0808182608083E8
:1019B00005C0EFE6F0E080818D7F80830E948B037D
:1019C0000CC082819381A481B58120916001309106
:1019D00061012A173B0769F7D3CFFF91EF91BF91C0
:1019E000AF919F918F917F916F915F914F913F91B7
:1019F0002F91FF90EF90DF90CF900F900FBE0F9040
:101A00001F9018953F924F925F926F927F928F92A4
:101A10009F92AF92BF92CF92DF92EF92FF920F937D
:101A20001F93CF93DF932B013C0149015A018FB7DC
:101A30008078382EF89486E591E00E94E40BEC0162
:101A40001B870A87FD86EC86DF86CE86332061F011
:101A5000E0915001F09151010280F381E02D8281EB
:101A60009381A481B58108C0809162019091630146
:101A7000A0916401B0916501480E591E6A1E7B1E3B
:101A80004A825B826C827D82181419041A041B043A
:101A900044F00F2E88248A94982CA82CFFE7BF2EA0
:101AA000F02D840C951CA61CB71C8E829F82A886E4
:101AB000B9868091600190916101409184005091BC
:101AC0008500B0990EC0092E000CAA0BBB0BDC01DF
:101AD0009927882760E070E0842B952BA62BB72BE5
:101AE00013C020918400309185000196092E000CCE
:101AF000AA0BBB0BDC0199278827A90160E070E0E5
:101B0000842B952BA62BB72B481A590A6A0A7B0AF5
:101B10001414150416041704ACF566E671E0CE0142
:101B20000E94A10BE0916601F0916701309721F1CD
:101B300082819381A481B5812091600130916101FE
:101B40002A173B07C9F49C014091840050918500FD
:101B5000841B950B019731F420918400309185000E
:101B60002F5F3F4F3093890020938800EFE6F0E02D
:101B700080818260808341C0EFE6F0E080818D7FCC
:101B800080833BC068E671E0CE010E945E0B33208B
:101B9000B9F18091540190915501009781F1E09144
:101BA0005201F09153012091680130916901028145
:101BB0001381D90116964D915D916D917C91199784
:101BC000D80116960D911D912D913C911997401BAE
:101BD000510B620B730B9AF4DC012D913C91119720
:101BE0003093550120935401ED93FC93909353014E
:101BF000809352010E946B0302C0332009F0789455
:101C0000CE01DF91CF911F910F91FF90EF90DF9068
:101C1000CF90BF90AF909F908F907F906F905F908C
:101C20004F903F900895CF92DF92EF92FF920F93E3
:101C30001F93CF93DF93EC017B016A011FB71078EC
:101C4000F894A881B981109761F11496ED91FC91F7
:101C50001597309741F0A081B1811496ED91FC91D8
:101C600015973097C1F720915001309151012A17F3
:101C70003B0721F0112309F43DC007C0112309F4EB
:101C80003CC078948FEF9FEF52C08A819B81009770
:101C9000D1F1FC011582148236C0789480E090E086
:101CA00046C08091500190915101998388831123FE
:101CB00029F08A819B81019709F07894B601CE01C1
:101CC000F7010995F82E092F8FB7F8941982188219
:101CD0008A819B818230910538F01B821A82FC0137
:101CE000158214820E946B03112351F078948F2D7A
:101CF000902F1DC08FEF9FEF1AC08FEF9FEF17C07F
:101D00008F2D902F14C03B832A83F901D583C48380
:101D1000CD010E946B03E0915001F091510182814D
:101D20009381892B09F4B9CFF983E883C2CFDF917E
:101D3000CF911F910F91FF90EF90DF90CF9008957A
:101D4000009150011091510188E691E00E94E40B4E
:101D5000EC01D80113969C938E93129778944E853C
:101D60005F856C857D858A859B850E94130E8FB764
:101D7000F894809156019091570199838883D0936C
:101D80005701C0935601E0915201F0915301008137
:101D90001181E8012A813B81A0916801B09169011C
:101DA0001097C1F02115310559F216968D919D912C
:101DB0000D90BC91A02DE9014E815F8168857985E8
:101DC000841B950BA60BB70B181619061A061B06D3
:101DD0000CF0B6CF1093530100935201809154013F
:101DE0009091550191838083F0935501E0935401C4
:101DF000A0915201B09153011496ED91FC91159769
:101E0000309741F0A081B1811496ED91FC91159726
:101E10003097C1F7CD010E946B0392CF8C017B01FB
:101E20006A018FB7F8940E9400037894E114F104DA
:101E300041F020E030E0A90160E070E0CB010E94B9
:101E4000020D8FB7F8940E948B03789481E083BFD2
:101E50008895FDCFE0ECF0E080818823ECF780915D
:101E6000C6000895EC010E942A0F823071F018F428
:101E7000813031F018C0843069F0883081F013C0AF
:101E80008C819D810E945F000EC08C819D810E948B
:101E9000690009C08C819D810E94640004C08C810E
:101EA0009D810E9469008C819D810E9464008C81CB
:101EB0009D810E946E00D7CF1092C50027E6209327
:101EC000C40028E92093C10026E02093C2000E94AC
:101ED000320F991B79E004C0991F961708F0961BE2
:101EE000881F7A95C9F780950895052E97FB1EF4F3
:101EF00000940E948C0F57FD07D00E949A0F07FC98
:101F000003D04EF40C948C0F50954095309521954C
:101F10003F4F4F4F5F4F0895909580957095619515
:101F20007F4F8F4F9F4F0895EE0FFF1F0590F49145
:101F3000E02D0994A1E21A2EAA1BBB1BFD010DC0C6
:101F4000AA1FBB1FEE1FFF1FA217B307E407F50769
:101F500020F0A21BB30BE40BF50B661F771F881F45
:101F6000991F1A9469F760957095809590959B01DB
:101F7000AC01BD01CF010895DC012D923D924D923F
:101F80005D926D927D928D929D92AD92BD92CD9219
:101F9000DD92ED92FD920D931D93CD93DD93FF9114
:101FA000EF918DB78D938EB78D938FB78D93ED9302
:101FB000FD93882799270994DC01CB018130910595
:101FC000811D2D903D904D905D906D907D908D90F8
:101FD0009D90AD90BD90CD90DD90ED90FD900D91D8
:101FE0001D91CD91DD91ED91FD910D90F894FEBF85
:0E1FF0000FBEEDBFED91FD910994F894FFCF67
:101FFE00010005000B000100010005000F000100AB
:10200E000100010001000000010004000F000100AA
:10201E00010004000B000100000005000B00000091
:10202E00010001000B000100010001000E00010083
:10203E000000010001000000010005000500010084
:08204E00260226028E01430266
:00000001FF
