S00F000050617274332E322E73726563EB
S11300000C9438000C9455000C9455000C94FB018E
S11300100C9455000C9455000C9455000C94D1018B
S11300200C9455000C9455000C9455000C945500F8
S11300300C9455000C9455000C9455000C945500E8
S11300400C9455000C9455000C9455000C945500D8
S11300500C9455000C9455000C9455009D007F00A1
S11300608200850088008B008E0091009400970028
S113007011241FBECFEFD4E0DEBFCDBF11E0A0E05E
S1130080B1E0EEE0F8E002C005900D92A435B107AE
S1130090D9F723E0A4E5B1E001C01D92AF38B2075F
S11300A0E1F70E942E020C9405040C940000CCEF9E
S11300B0D0E012E08AE691E00E942A038881812739
S11300C08883F8CFE1E6F0E080E880831082089529
S11300D08FE08093E70087EB8093E50087E08093CF
S11300E0E60080EC8093E400089590E0FC01F09732
S11300F0EA30F105F8F4E25DFF4F0C949C0380E4D0
S113010091E0089588E391E0089580E391E00895F3
S113011088E291E0089580E291E0089588E191E019
S1130120089580E191E0089588E091E0089580E0E9
S113013091E0089584E591E0089588E491E00895BC
S1130140CF93653008F0E4C0C62F0E947500FC010F
S1130150C23009F467C028F4CC2351F0C13029F12E
S1130160D7C0C33009F47BC0C43009F4B5C0D0C0D3
S1130170ACEEB0E08C91807F9081892B8C93A1EFC1
S1130180B0E08C91807F9281892B8C93A6EFB0E0B4
S11301908C91807F9481892B8C93ABEFB0E08C9110
S11301A0807F9681892B8C93B3C0ACEEB0E02C9108
S11301B08081918182959295907F9827807F98275E
S11301C0922F9F70892B8C93A1EFB0E02C918281A8
S11301D0938182959295907F9827807F9827922F7C
S11301E09F70892B8C93A6EFB0E02C91848195812C
S11301F082959295907F9827807F9827922F9F7061
S1130200892B8C93ABEFB0E02C91868197818295FA
S11302109295907F9827807F9827922F9F70892BA3
S11302208C9376C0ADEEB0E08C91807F9081892B69
S11302308C93A2EFB0E08C91807F9281892B8C9378
S1130240A7EFB0E08C91807F9481892B8C93ACEFE5
S1130250B0E08C91807F9681892B8C9359C0ADEE50
S1130260B0E02C918081918182959295907F98271E
S1130270807F9827922F9F70892B8C93A2EFB0E0F8
S11302802C918281938182959295907F9827807F8B
S11302909827922F9F70892B8C93A7EFB0E02C9115
S11302A08481958182959295907F9827807F982765
S11302B0922F9F70892B8C93ACEFB0E02C918681A8
S11302C0978182959295907F9827807F9827922F87
S11302D09F70892B8C931CC0AEEEB0E08C91807F14
S11302E09081892B8C93A3EFB0E08C91807F9281D5
S11302F0892B8C93A8EFB0E08C91807F9481892B1B
S11303008C93ADEFB0E08C91807F9681892B8C9398
S1130310CF9108958F929F92AF92BF92CF92DF9226
S1130320EF92FF92CF93DF934B015C01EA0124E645
S113033030E040E050E00E947D030F2EFAE0CF2E23
S1130340D12CE12CF12CF02DA70196010E947D0304
S11303506C2F80E3820F0E94A0002196C501B40196
S1130360A70196010E947D03862F6C2F805D0E9459
S1130370A000DF91CF91FF90EF90DF90CF90BF90DE
S1130380AF909F908F90089560915C0170915D0192
S1130390072E000C880B990B43E050E00E948A0161
S11303A008951F920F920FB60F9211242F933F932B
S11303B04F935F936F937F938F939F93AF93BF9369
S11303C0EF93FF938AE691E00E9453031092850015
S11303D010928400FF91EF91BF91AF919F918F9103
S11303E07F916F915F914F913F912F910F900FBE2D
S11303F00F901F9018951F920F920FB60F92112411
S11304002F933F934F935F936F937F938F939F9318
S1130410AF93BF93EF93FF931F990FC080915C013B
S113042090915D01019690935D0180935C010E941F
S1130430C40186E691E00E945303FF91EF91BF91BE
S1130440AF919F918F917F916F915F914F913F9168
S11304502F910F900FBE0F901F901895F8940E9443
S113046062000E94680078948AE691E00E942A0360
S113047086E691E00E942A0360E070E087E590E060
S11304800E94650280E090E00895CF93DF9300D04E
S1130490CDB7DEB79A838983809150019091510141
S11304A006960E94C403892B59F489819A819093FA
S11304B051018093500161E070E006960E94E403CC
S11304C00F900F90DF91CF910895CF93DF9300D0D9
S11304D0CDB7DEB7F89420915E0130915F01232BF4
S11304E099F528E432E03093E0012093DF0125EB15
S11304F032E030934D0220934C0222E233E03093F9
S1130500BA022093B902109227031092260325E021
S1130510209381002F9AEF9AECE6F0E02081206886
S1130520208322E020936F001092850010928400B3
S113053022E43FE0309389002093880021E030E0FA
S113054030935F0120935E01209152013091530159
S11305503A832983232BE1F0A981BA8114964D9122
S11305605C911597509353014093520111969C93BB
S11305708E9313967C936E93129715961C921E92EB
S11305801497CD0106960E94C403019779F501C022
S1130590FFCF7894A0915001B0915101ED91FC915D
S11305A0119712968D919C9113970995F894E09167
S11305B05001F09151018091520190915301958322
S11305C08483F0935301E0935201809160019091F0
S11305D06101009751F0FC01248135813093610160
S11305E0209360010E94450201C0FFCFE981FA8196
S11305F0369689819A8187599F4F918B808B938BF3
S1130600828BE0915001F0915101809160019091B1
S1130610610195838483A981BA811596FC93EE9335
S11306201497B0936101A0936001109709F4FFCF70
S113063014968D919C91159790936101809360011C
S113064089819A810E94450278940F900F90DF91DE
S1130650CF910895FC01F89480819181892BE9F070
S1130660A0915001B09151018281938115969C9380
S11306708E931497B383A28380916001909161015A
S1130680009751F0FC01248135813093610120935E
S113069060010E94450205C0FFCF81E090E0918394
S11306A0808378940895FC01F89482819381892B46
S11306B019F4118210821FC0A0915001B091510110
S11306C0809160019091610115969C938E9314978B
S11306D0B0936101A093600182819381009751F0EE
S11306E0DC0114962D913C911597338322830E944B
S11306F0450201C0FFCF78940895052E97FB1EF4A0
S113070000940E94940357FD07D00E94A20307FCA3
S113071003D04EF40C949403509540953095219554
S11307203F4F4F4F5F4F0895909580957095619519
S11307307F4F8F4F9F4F0895EE0FFF1F0590F49149
S1130740E02D0994A1E21A2EAA1BBB1BFD010DC0CA
S1130750AA1FBB1FEE1FFF1FA217B307E407F5076D
S113076020F0A21BB30BE40BF50B661F771F881F49
S1130770991F1A9469F760957095809590959B01DF
S1130780AC01BD01CF010895DC012D923D924D9243
S11307905D926D927D928D929D92AD92BD92CD921D
S11307A0DD92ED92FD920D931D93CD93DD93FF9118
S11307B0EF918DB78D938EB78D938FB78D93ED9306
S11307C0FD93882799270994DC01CB018130910599
S11307D0811D2D903D904D905D906D907D908D90FC
S11307E09D90AD90BD90CD90DD90ED90FD900D91DC
S11307F01D91CD91DD91ED91FD910D90F894FEBF89
S11108000FBEEDBFED91FD910994F894FFCF6A
S113080E010005000B000100010005000F000100AE
S113081E0100010001000000010004000F000100AE
S113082E010004000B000100000005000B00000095
S113083E010001000B000100010001000E00010087
S113084E0000010001000000010005000500010088
S107085E6E01DB0147
S9030000FC
