S00F000050617274332E322E73726563EB
S11300000C9438000C9455000C9455000C94770211
S11300100C9455000C9455000C9455000C9451020A
S11300200C9455000C9455000C9455000C945500F8
S11300300C9455000C9455000C9455000C945500E8
S11300400C9455000C9455000C9455000C945500D8
S11300500C9455000C9455000C945500AD008F0081
S11300609200950098009B009E00A100A400A700A8
S113007011241FBECFEFD4E0DEBFCDBF11E0A0E05E
S1130080B1E0E2E5F9E002C005900D92A635B107B2
S1130090D9F723E0A6E5B1E001C01D92AC38B20760
S11300A0E1F70E94A9020C94A7040C940000E1E675
S11300B0F0E080E880831082E1E8F0E080818860ED
S11300C0808382E49FE090938900809388008081FC
S11300D085608083EFE6F0E08081826080832798EA
S11300E02F9AECE6F0E0808180688083EF9A08958F
S11300F08FE08093E70087EB8093E50087E08093AF
S1130100E60080EC8093E400089590E0FC01F09711
S1130110EA30F105F8F4E25DFF4F0C942A0481E41F
S113012091E0089589E391E0089581E391E00895D1
S113013089E291E0089581E291E0089589E191E0F6
S1130140089581E191E0089589E091E0089581E0C6
S113015091E0089586E591E0089589E491E0089599
S1130160CF93653008F0E4C0C62F0E948500FC01DF
S1130170C23009F467C028F4CC2351F0C13029F10E
S1130180D7C0C33009F47BC0C43009F4B5C0D0C0B3
S1130190ACEEB0E08C91807F9081892B8C93A1EFA1
S11301A0B0E08C91807F9281892B8C93A6EFB0E094
S11301B08C91807F9481892B8C93ABEFB0E08C91F0
S11301C0807F9681892B8C93B3C0ACEEB0E02C91E8
S11301D08081918182959295907F9827807F98273E
S11301E0922F9F70892B8C93A1EFB0E02C91828188
S11301F0938182959295907F9827807F9827922F5C
S11302009F70892B8C93A6EFB0E02C91848195810B
S113021082959295907F9827807F9827922F9F7040
S1130220892B8C93ABEFB0E02C91868197818295DA
S11302309295907F9827807F9827922F9F70892B83
S11302408C9376C0ADEEB0E08C91807F9081892B49
S11302508C93A2EFB0E08C91807F9281892B8C9358
S1130260A7EFB0E08C91807F9481892B8C93ACEFC5
S1130270B0E08C91807F9681892B8C9359C0ADEE30
S1130280B0E02C918081918182959295907F9827FE
S1130290807F9827922F9F70892B8C93A2EFB0E0D8
S11302A02C918281938182959295907F9827807F6B
S11302B09827922F9F70892B8C93A7EFB0E02C91F5
S11302C08481958182959295907F9827807F982745
S11302D0922F9F70892B8C93ACEFB0E02C91868188
S11302E0978182959295907F9827807F9827922F67
S11302F09F70892B8C931CC0AEEEB0E08C91807FF4
S11303009081892B8C93A3EFB0E08C91807F9281B4
S1130310892B8C93A8EFB0E08C91807F9481892BFA
S11303208C93ADEFB0E08C91807F9681892B8C9378
S1130330CF9108958F929F92AF92BF92CF92DF9206
S1130340EF92FF92CF936115710581059105B1F488
S11303502BC0C114D104E104F10431F1C701B60189
S1130360A50194010E940B0469017A01862F6C2F68
S1130370805D0E94B000C15060F716C02AE030E0F2
S113038040E050E00E940B0469017A01862F64E08A
S1130390805D0E94B000C3E00F2EFAE08F2E912CF6
S11303A0A12CB12CF02DD5CFCF91FF90EF90DF9001
S11303B0CF90BF90AF909F908F900895FC018230B2
S11303C091051CF18430910514F181709078992382
S11303D024F401978E6F9F6F0196892BD1F022E050
S11303E030E006C0CF01B9010E94F703892B99F0D0
S11303F02F5F3F4F229FC001239F900D900D11242A
S1130400E817F9077CF781E0089580E0089581E01A
S1130410089580E0089580E00895C12CD12C7601E0
S1130420C394C6010E94DE01882369F0C701B601A6
S11304300E949A012FE986E891E021508040904083
S1130440E1F700C000002FEFC21AD20AE20AF20A52
S1130450E8CFFC012081213069F420E22083EFEE13
S1130460F0E080818E7F8083EEEEF0E08081806218
S11304708083089521E0FC012083EEEEF0E080818A
S11304808F7D8083EFEEF0E080818160808308952A
S113049083E691E00E94A40380E091E00E94290297
S11304A0F7CF1F920F920FB60F9211242F933F9301
S11304B04F935F936F937F938F939F93AF93BF9368
S11304C0EF93FF9387E691E00E94CD03FF91EF91B4
S11304D0BF91AF919F918F917F916F915F914F9158
S11304E03F912F910F900FBE0F901F9018951F9260
S11304F00F920FB60F9211242F933F934F935F9354
S11305006F937F938F939F93AF93BF93EF93FF93D7
S11305101F990CC080915E0181110AC081E0809313
S11305205E0183E691E00E94CD0302C010925E0159
S1130530FF91EF91BF91AF919F918F917F916F91B7
S11305405F914F913F912F910F900FBE0F901F908D
S11305501895F8940E9457000E947800789487E6D2
S113056091E00E94A40383E691E00E94A40360E06A
S113057070E088E492E00E94DF020E940D02CF93B3
S1130580DF9300D0CDB7DEB79A8389838091510180
S11305909091520106960E946604892B59F4898130
S11305A09A81909352018093510161E070E0069624
S11305B00E9486040F900F90DF91CF910895CF93FE
S11305C0DF9300D0CDB7DEB7F89420915F0130916E
S11305D06001232B99F525E432E03093DD0120936B
S11305E0DC0122EB32E030934A02209349022FE1EE
S11305F033E03093B7022093B60210922403109292
S1130600230325E0209381002F9AEF9AECE6F0E093
S113061020812068208322E020936F0010928500BF
S11306201092840022E43FE03093890020938800F4
S113063021E030E03093600120935F012091530169
S1130640309154013A832983232BE1F0A981BA81A3
S113065014964D915C911597509354014093530116
S113066011969C938E9313967C936E931297159682
S11306701C921E921497CD0106960E94660401975F
S113068079F501C0FFCF7894A0915101B091520146
S1130690ED91FC91119712968D919C911397099568
S11306A0F894E0915101F09152018091530190919D
S11306B0540195838483F0935401E0935301809112
S11306C0610190916201009751F0FC012481358110
S11306D030936201209361010E94BF0201C0FFCFE9
S11306E0E981FA81369689819A8187599F4F918B46
S11306F0808B938B828BE0915101F0915201809118
S113070061019091620195838483A981BA811596D0
S1130710FC93EE931497B0936201A0936101109738
S113072009F4FFCF14968D919C91159790936201D3
S11307308093610189819A810E94BF0278940F900D
S11307400F90DF91CF910895FC01F89480819181FD
S1130750892BE9F0A0915101B091520182819381DA
S113076015969C938E931497B383A2838091610111
S113077090916201009751F0FC01248135813093FE
S11307806201209361010E94BF0205C0FFCF81E096
S113079090E09183808378940895FC01F894828199
S11307A09381892B19F4118210821FC0A0915101E9
S11307B0B0915201809161019091620115969C93D0
S11307C08E931497B0936201A09361018281938107
S11307D0009751F0DC0114962D913C9115973383C9
S11307E022830E94BF0201C0FFCF7894089597FB33
S11307F0072E16F4009407D077FD09D00E94300428
S113080007FC05D03EF4909581959F4F089570950F
S113081061957F4F0895052E97FB1EF400940E9466
S1130820220457FD07D00E94440407FC03D04EF471
S11308300C94220450954095309521953F4F4F4F8D
S11308405F4F089590958095709561957F4F8F4F78
S11308509F4F0895EE0FFF1F0590F491E02D09942A
S1130860AA1BBB1B51E107C0AA1FBB1FA617B707D2
S113087010F0A61BB70B881F991F5A95A9F78095EE
S11308809095BC01CD010895A1E21A2EAA1BBB1BB1
S1130890FD010DC0AA1FBB1FEE1FFF1FA217B30748
S11308A0E407F50720F0A21BB30BE40BF50B661F5E
S11308B0771F881F991F1A9469F760957095809522
S11308C090959B01AC01BD01CF010895DC012D92EF
S11308D03D924D925D926D927D928D929D92AD92DC
S11308E0BD92CD92DD92ED92FD920D931D93CD9329
S11308F0DD93FF91EF918DB78D938EB78D938FB765
S11309008D93ED93FD93882799270994DC01CB01FE
S113091081309105811D2D903D904D905D906D909D
S11309207D908D909D90AD90BD90CD90DD90ED909B
S1130930FD900D911D91CD91DD91ED91FD910D9065
S1130940F894FEBF0FBEEDBFED91FD910994F894AC
S1050950FFCFD3
S113095201010005000B000100010005000F000168
S1130962000100010001000000010004000F000169
S113097200010004000B000100000005000B000050
S113098200010001000B000100010001000E000142
S11309920000000100010000000100050005000143
S10909A2006B01D8010006
S9030000FC
