S00F000050617274332E322E73726563EB
S11300000C9438000C9455000C9455000C94550035
S11300100C9455000C9455000C9455000C946503F5
S11300200C9455000C9455000C9455000C945500F8
S11300300C9455000C9455000C9455000C945500E8
S11300400C9455000C9455000C9455000C945500D8
S11300500C9455000C9455000C945500B200940077
S113006097009A009D00A000A300A600A900AC0080
S113007011241FBECFEFD4E0DEBFCDBF11E0A0E05E
S1130080B1E0E8E8F8E002C005900D92A635B107AA
S1130090D9F723E0A6E5B1E001C01D92AD38B2075F
S11300A0E1F70E9456020C9442040C940000CCEE3A
S11300B0D0E012E082E691E00E943E03888181272D
S11300C08883F8CFE1E6F0E080E880831082E1E8FD
S11300D0F0E080818860808381E49FE090938900D0
S11300E080938800808185608083EFE6F0E08081E2
S11300F08260808327982F9A08958FE08093E70089
S113010087EB8093E50087E08093E60080EC8093A2
S1130110E400089590E0FC01F097EA30F105F8F46A
S1130120E25DFF4F0C94C50381E491E0089589E3F7
S113013091E0089581E391E0089589E291E00895C2
S113014081E291E0089589E191E0089581E191E0EF
S1130150089589E091E0089581E091E0089586E5AD
S113016091E0089589E491E00895CF93653008F013
S1130170E4C0C62F0E948A00FC01C23009F467C0A3
S113018028F4CC2351F0C13029F1D7C0C33009F48D
S11301907BC0C43009F4B5C0D0C0ACEEB0E08C91E3
S11301A0807F9081892B8C93A1EFB0E08C91807F2C
S11301B09281892B8C93A6EFB0E08C91807F9481FF
S11301C0892B8C93ABEFB0E08C91807F9681892B47
S11301D08C93B3C0ACEEB0E02C9180819181829578
S11301E09295907F9827807F9827922F9F70892BD4
S11301F08C93A1EFB0E02C918281938182959295AA
S1130200907F9827807F9827922F9F70892B8C93BB
S1130210A6EFB0E02C918481958182959295907F90
S11302209827807F9827922F9F70892B8C93ABEF10
S1130230B0E02C918681978182959295907F982742
S1130240807F9827922F9F70892B8C9376C0ADEE78
S1130250B0E08C91807F9081892B8C93A2EFB0E0E9
S11302608C91807F9281892B8C93A7EFB0E08C9145
S1130270807F9481892B8C93ACEFB0E08C91807F4C
S11302809681892B8C9359C0ADEEB0E02C9180817E
S1130290918182959295907F9827807F9827922FBD
S11302A09F70892B8C93A2EFB0E02C918281938173
S11302B082959295907F9827807F9827922F9F70A0
S11302C0892B8C93A7EFB0E02C9184819581829542
S11302D09295907F9827807F9827922F9F70892BE3
S11302E08C93ACEFB0E02C918681978182959295A6
S11302F0907F9827807F9827922F9F70892B8C93CB
S11303001CC0AEEEB0E08C91807F9081892B8C93E1
S1130310A3EFB0E08C91807F9281892B8C93A8EF1E
S1130320B0E08C91807F9481892B8C93ADEFB0E009
S11303308C91807F9681892B8C93CF9108958F9295
S11303409F92AF92BF92CF92DF92EF92FF92CF93A0
S11303506115710581059105B1F42BC0C114D10457
S1130360E104F10431F1C701B601A50194010E9431
S1130370A60369017A01862F6C2F805D0E94B50067
S1130380C15060F716C02AE030E040E050E00E941F
S1130390A60369017A01862F64E0805D0E94B5009E
S11303A0C3E00F2EFAE08F2E912CA12CB12CF02D4E
S11303B0D5CFCF91FF90EF90DF90CF90BF90AF90CB
S11303C09F908F900895FC01823091051CF1843038
S11303D0910514F181709078992324F401978E6F1C
S11303E09F6F0196892BD1F022E030E006C0CF0147
S11303F0B9010E949203892B99F02F5F3F4F229FEE
S1130400C001239F900D900D1124E817F9077CF784
S113041081E0089580E0089581E0089580E00895E2
S113042080E00895C12CD12C7601C394C6010E94AA
S1130430E301882369F0C701B6010E949F012FE7F9
S113044084E89EE1215080409040E1F700C0000024
S11304502FEFC21AD20AE20AF20AE8CFFC01208185
S1130460213069F420E22083EFEEF0E080818E7F7A
S11304708083EEEEF0E0808180628083089521E045
S1130480FC012083EEEEF0E080818F7D8083EFEE2F
S1130490F0E080818160808308958EE591E00E9480
S11304A03E0380E091E00E942E02F7CF0E9462009A
S11304B00E947D0060E070E08DE492E00E949F0263
S11304C060E070E087E590E00E949F020E941202C3
S11304D0DC0115961C921E921497DB01ED91FC91A0
S11304E01197309721F48D939C930895F9012481F9
S11304F0358121153105D1F7958384830895CF93F0
S1130500DF9300D0CDB7DEB79A8389838091510100
S11305109091520106960E940104892B59F4898115
S11305209A81909352018093510161E070E00696A4
S11305300E9421040F900F90DF91CF910895CF93E3
S1130540DF9300D0CDB7DEB7F894209168013091E5
S11305506901232BE1F426E432E03093DE01209399
S1130560DD0123EB32E030934B0220934A0220E278
S113057033E03093B8022093B7021092250310920F
S1130580240321E030E03093690120936801209135
S11305905301309154013A832983232BA9F0E98133
S11305A0FA814481558150935401409353019183BE
S11305B080837383628315821482CF0106960E941E
S11305C00104019749F501C0FFCF7894A09151012E
S11305D0B0915201ED91FC91119712968D919C91DD
S11305E013970995F89463E571E080915101909116
S11305F052010E94680280916A0190916B010097F8
S113060051F0FC012481358130936B0120936A0100
S11306100E947F0201C0FFCFE981FA813696898169
S11306209A8187599F4F918B808B938B828B6AE63B
S113063071E089819A810E94680278940F900F90EA
S1130640DF91CF910895F8946AE671E080915101A9
S1130650909152010E94680280916A0190916B010D
S1130660009759F0FC012481358130936B0120936C
S11306706A010E947F0278940895FFCFF894FC01E8
S113068020813181232BD1F0BC016E5F7F4F80919B
S11306905101909152010E94680280916A019091E7
S11306A06B01009751F0FC012481358130936B017B
S11306B020936A010E947F0206C0FFCF21E030E050
S11306C0FC0131832083789408951F920F920FB612
S11306D00F9211242F933F934F935F936F937F93C4
S11306E08F939F93AF93BF93EF93FF938091660192
S11306F090916701019690936701809366010E942F
S11307002303FF91EF91BF91AF919F918F917F91BF
S11307106F915F914F913F912F910F900FBE0F906A
S11307201F90189597FB072E16F4009407D077FDB9
S113073009D00E94CB0307FC05D03EF49095819527
S11307409F4F0895709561957F4F0895052E97FBEF
S11307501EF400940E94BD0357FD07D00E94DF03DE
S113076007FC03D04EF40C94BD035095409530958E
S113077021953F4F4F4F5F4F089590958095709509
S113078061957F4F8F4F9F4F0895EE0FFF1F059088
S1130790F491E02D0994AA1BBB1B51E107C0AA1FC9
S11307A0BB1FA617B70710F0A61BB70B881F991F0E
S11307B05A95A9F780959095BC01CD010895A1E2C1
S11307C01A2EAA1BBB1BFD010DC0AA1FBB1FEE1FC7
S11307D0FF1FA217B307E407F50720F0A21BB30B12
S11307E0E40BF50B661F771F881F991F1A9469F78E
S11307F060957095809590959B01AC01BD01CF01EA
S11308000895DC012D923D924D925D926D927D9200
S11308108D929D92AD92BD92CD92DD92ED92FD921C
S11308200D931D93CD93DD93FF91EF918DB78D9330
S11308308EB78D938FB78D93ED93FD93882799276A
S11308400994DC01CB0181309105811D2D903D90EF
S11308504D905D906D907D908D909D90AD90BD90EC
S1130860CD90DD90ED90FD900D911D91CD91DD9198
S1130870ED91FD910D90F894FEBF0FBEEDBFED918B
S10B0880FD910994F894FFCFE7
S113088801010005000B000100010005000F000133
S1130898000100010001000000010004000F000134
S11308A800010004000B000100000005000B00001B
S11308B800010001000B000100010001000E00010D
S11308C8000000010001000000010005000500010E
S10908D8006C01D90100CF
S9030000FC
