S00F000050617274332E322E73726563EB
S11300000C9438000C9455000C9455000C94870201
S11300100C9455000C9455000C9455000C946102FA
S11300200C9455000C9455000C9455000C945500F8
S11300300C9455000C9455000C9455000C945500E8
S11300400C9455000C9455000C9455000C945500D8
S11300500C9455000C9455000C945500B8009A006B
S11300609D00A000A300A600A900AC00AF00B20050
S113007011241FBECFEFD4E0DEBFCDBF11E0A0E05E
S1130080B1E0E0E8F9E002C005900D92A635B107B1
S1130090D9F723E0A6E5B1E001C01D92AD38B2075F
S11300A0E1F70E94BA020C94BE040C940000CCEE5A
S11300B0D0E012E088E691E00E94BB0388818127AA
S11300C08883F8CFE1E6F0E080E880831082E1E8FD
S11300D0F0E080818860808382E49FE090938900CF
S11300E080938800808185608083EFE6F0E08081E2
S11300F08260808327982F9AECE6F0E08081806804
S11301008083EF9A08958FE08093E70087EB8093D4
S1130110E50087E08093E60080EC8093E400089596
S113012090E0FC01F097EA30F105F8F4E25DFF4F4E
S11301300C94410481E491E0089589E391E00895E9
S113014081E391E0089589E291E0089581E291E0EC
S1130150089589E191E0089581E191E0089589E0AD
S113016091E0089581E091E0089586E591E0089595
S113017089E491E00895CF93653008F0E4C0C62F78
S11301800E949000FC01C23009F467C028F4CC231B
S113019051F0C13029F1D7C0C33009F47BC0C43059
S11301A009F4B5C0D0C0ACEEB0E08C91807F9081F2
S11301B0892B8C93A1EFB0E08C91807F9281892B65
S11301C08C93A6EFB0E08C91807F9481892B8C93E3
S11301D0ABEFB0E08C91807F9681892B8C93B3C078
S11301E0ACEEB0E02C918081918182959295907FC4
S11301F09827807F9827922F9F70892B8C93A1EF4B
S1130200B0E02C918281938182959295907F98277A
S1130210807F9827922F9F70892B8C93A6EFB0E054
S11302202C918481958182959295907F9827807FE7
S11302309827922F9F70892B8C93ABEFB0E02C9171
S11302408681978182959295907F9827807F9827C1
S1130250922F9F70892B8C9376C0ADEEB0E08C9179
S1130260807F9081892B8C93A2EFB0E08C91807F6A
S11302709281892B8C93A7EFB0E08C91807F94813D
S1130280892B8C93ACEFB0E08C91807F9681892B85
S11302908C9359C0ADEEB0E02C9180819181829510
S11302A09295907F9827807F9827922F9F70892B13
S11302B08C93A2EFB0E02C918281938182959295E8
S11302C0907F9827807F9827922F9F70892B8C93FB
S11302D0A7EFB0E02C918481958182959295907FCF
S11302E09827807F9827922F9F70892B8C93ACEF4F
S11302F0B0E02C918681978182959295907F982782
S1130300807F9827922F9F70892B8C931CC0AEEE10
S1130310B0E08C91807F9081892B8C93A3EFB0E027
S11303208C91807F9281892B8C93A8EFB0E08C9183
S1130330807F9481892B8C93ADEFB0E08C91807F8A
S11303409681892B8C93CF9108958F929F92AF922F
S1130350BF92CF92DF92EF92FF92CF93DF934B0144
S11303605C01EA0124E630E040E050E00E9422040F
S11303700F2EFAE0CF2ED12CE12CF12CF02DA70179
S113038096010E9422046C2F80E3820F0E94BB001E
S11303902196C501B401A70196010E942204862F6B
S11303A06C2F805D0E94BB00DF91CF91FF90EF9096
S11303B0DF90CF90BF90AF909F908F900895FC01F5
S11303C0823091051CF18430910514F1817090788C
S11303D0992324F401978E6F9F6F0196892BD1F096
S11303E022E030E006C0CF01B9010E940E04892B3F
S11303F099F02F5F3F4F229FC001239F900D900DD6
S11304001124E817F9077CF781E0089580E0089546
S113041081E0089580E0089580E00895C12CD12CF6
S11304207601C394C6010E94DF01882379F040E07D
S113043050E0C701B6010E94A5012FE382E49FE0CA
S1130440215080409040E1F700C000002FEFC21A15
S1130450D20AE20AF20AE6CFFC012081213069F4D3
S113046020E22083EFEEF0E080818E7F8083EEEE49
S1130470F0E0808180628083089521E0FC01208384
S1130480EEEEF0E080818F7D8083EFEEF0E08081FE
S113049081608083089584E691E00E94BB0380E03C
S11304A091E00E942C02F7CF60915E0170915F0190
S11304B0072E000C880B990B43E050E00E94A50125
S11304C008951F920F920FB60F9211242F933F930A
S11304D04F935F936F937F938F939F93AF93BF9348
S11304E0EF93FF9388E691E00E94E403FF91EF917C
S11304F0BF91AF919F918F917F916F915F914F9138
S11305003F912F910F900FBE0F901F9018951F923F
S11305100F920FB60F9211242F933F934F935F9333
S11305206F937F938F939F93AF93BF93EF93FF93B7
S11305301F990FC080915E0190915F010196909385
S11305405F0180935E010E94540284E691E00E9460
S1130550E403FF91EF91BF91AF919F918F917F91B0
S11305606F915F914F913F912F910F900FBE0F901C
S11305701F901895F8940E9462000E94830078945A
S113058088E691E00E94BB0384E691E00E94BB03ED
S113059060E070E08BE492E00E94F60260E070E0BC
S11305A087E590E00E94F6020E940E02CF93DF934B
S11305B000D0CDB7DEB79A838983809151019091A1
S11305C0520106960E947D04892B59F489819A81EF
S11305D0909352018093510161E070E006960E946D
S11305E09D040F900F90DF91CF910895CF93DF93E7
S11305F000D0CDB7DEB7F89420916001309161014D
S1130600232B99F526E432E03093DE012093DD01BB
S113061023EB32E030934B0220934A0220E233E092
S11306203093B8022093B70210922503109224034A
S113063025E0209381002F9AEF9AECE6F0E02081E8
S11306402068208322E020936F001092850010928E
S1130650840022E43FE0309389002093880021E065
S113066030E0309361012093600120915301309177
S113067054013A832983232BE1F0A981BA8114968A
S11306804D915C91159750935401409353011196E9
S11306909C938E9313967C936E93129715961C924B
S11306A01E921497CD0106960E947D04019779F558
S11306B001C0FFCF7894A0915101B0915201ED9106
S11306C0FC91119712968D919C9113970995F8942A
S11306D0E0915101F09152018091530190915401A4
S11306E095838483F0935401E093530180916201D4
S11306F090916301009751F0FC012481358130937E
S11307006301209362010E94D60201C0FFCFE981F8
S1130710FA81369689819A8187599F4F918B808B74
S1130720938B828BE0915101F0915201809162018F
S11307309091630195838483A981BA811596FC9372
S1130740EE931497B0936301A0936201109709F498
S1130750FFCF14968D919C9115979093630180938C
S1130760620189819A810E94D60278940F900F9039
S1130770DF91CF910895FC01F89480819181892BB8
S1130780E9F0A0915101B0915201828193811596B3
S11307909C938E931497B383A2838091620190916A
S11307A06301009751F0FC0124813581309363018A
S11307B0209362010E94D60205C0FFCF81E090E041
S11307C09183808378940895FC01F89482819381C5
S11307D0892B19F4118210821FC0A0915101B0918C
S11307E05201809162019091630115969C938E93BE
S11307F01497B0936301A09362018281938100975F
S113080051F0DC0114962D913C911597338322838A
S11308100E94D60201C0FFCF7894089597FB072E5B
S113082016F4009407D077FD09D00E94470407FC12
S113083005D03EF4909581959F4F089570956195EC
S11308407F4F0895052E97FB1EF400940E943904EF
S113085057FD07D00E945B0407FC03D04EF40C94B0
S1130860390450954095309521953F4F4F4F5F4F38
S1130870089590958095709561957F4F8F4F9F4F08
S11308800895EE0FFF1F0590F491E02D0994AA1B23
S1130890BB1B51E107C0AA1FBB1FA617B70710F067
S11308A0A61BB70B881F991F5A95A9F78095909599
S11308B0BC01CD010895A1E21A2EAA1BBB1BFD01A8
S11308C00DC0AA1FBB1FEE1FFF1FA217B307E4072B
S11308D0F50720F0A21BB30BE40BF50B661F771F83
S11308E0881F991F1A9469F7609570958095909563
S11308F09B01AC01BD01CF010895DC012D923D9215
S11309004D925D926D927D928D929D92AD92BD922B
S1130910CD92DD92ED92FD920D931D93CD93DD93D7
S1130920FF91EF918DB78D938EB78D938FB78D9384
S1130930ED93FD93882799270994DC01CB0181303D
S11309409105811D2D903D904D905D906D907D9011
S11309508D909D90AD90BD90CD90DD90ED90FD90EB
S11309600D911D91CD91DD91ED91FD910D90F89436
S1130970FEBF0FBEEDBFED91FD910994F894FFCF3A
S113098001010005000B000100010005000F00013A
S1130990000100010001000000010004000F00013B
S11309A000010004000B000100000005000B000022
S11309B000010001000B000100010001000E000114
S11309C00000000100010000000100050005000115
S10909D0006C01D90100D6
S9030000FC
