S01200006C6162322D70617274312E737265639C
S11300000C9438000C9455000C9455000C94EA029E
S11300100C9455000C9455000C9455000C940F034B
S11300200C9455000C9455000C9455000C945500F8
S11300300C9455000C9455000C9455000C945500E8
S11300400C9455000C9455000C9455000C945500D8
S11300500C9455000C9455000C94550092007400B7
S113006077007A007D0080008300860089008C0080
S113007011241FBECFEFD4E0DEBFCDBF11E0A0E05E
S1130080B1E0EAECF7E002C005900D92A435B107A7
S1130090D9F723E0A4E5B1E001C01D92A138B2076D
S11300A0E1F70E94FD010C94E3030C940000E1E6E7
S11300B0F0E080E88083108208958FE08093E70069
S11300C087EB8093E50087E08093E60080EC8093E3
S11300D0E400089590E0FC01F097EA30F105F8F4AB
S11300E0E25DFF4F0C94660380E491E0089588E399
S11300F091E0089580E391E0089588E291E0089505
S113010080E291E0089588E191E0089580E191E032
S1130110089588E091E0089580E091E0089584E5F1
S113012091E0089588E491E00895CF93653008F054
S1130130E4C0C62F0E946A00FC01C23009F467C003
S113014028F4CC2351F0C13029F1D7C0C33009F4CD
S11301507BC0C43009F4B5C0D0C0ACEEB0E08C9123
S1130160807F9081892B8C93A1EFB0E08C91807F6C
S11301709281892B8C93A6EFB0E08C91807F94813F
S1130180892B8C93ABEFB0E08C91807F9681892B87
S11301908C93B3C0ACEEB0E02C91808191818295B8
S11301A09295907F9827807F9827922F9F70892B14
S11301B08C93A1EFB0E02C918281938182959295EA
S11301C0907F9827807F9827922F9F70892B8C93FC
S11301D0A6EFB0E02C918481958182959295907FD1
S11301E09827807F9827922F9F70892B8C93ABEF51
S11301F0B0E02C918681978182959295907F982783
S1130200807F9827922F9F70892B8C9376C0ADEEB8
S1130210B0E08C91807F9081892B8C93A2EFB0E029
S11302208C91807F9281892B8C93A7EFB0E08C9185
S1130230807F9481892B8C93ACEFB0E08C91807F8C
S11302409681892B8C9359C0ADEEB0E02C918081BE
S1130250918182959295907F9827807F9827922FFD
S11302609F70892B8C93A2EFB0E02C9182819381B3
S113027082959295907F9827807F9827922F9F70E0
S1130280892B8C93A7EFB0E02C9184819581829582
S11302909295907F9827807F9827922F9F70892B23
S11302A08C93ACEFB0E02C918681978182959295E6
S11302B0907F9827807F9827922F9F70892B8C930B
S11302C01CC0AEEEB0E08C91807F9081892B8C9322
S11302D0A3EFB0E08C91807F9281892B8C93A8EF5F
S11302E0B0E08C91807F9481892B8C93ADEFB0E04A
S11302F08C91807F9681892B8C93CF910895FC01FA
S1130300823091051CF18430910514F1817090784C
S1130310992324F401978E6F9F6F0196892BD1F056
S113032022E030E006C0CF01B9010E943303892BDB
S113033099F02F5F3F4F229FC001239F900D900D96
S11303401124E817F9077CF781E0089580E0089507
S113035081E0089580E0089580E008958F929F924F
S1130360AF92BF92CF92DF92EF92FF92CF93DF933F
S11303704B015C01EA0124E630E040E050E00E94D9
S113038047030F2EFAE0CF2ED12CE12CF12CF02DC7
S1130390A70196010E9447036C2F80E3820F0E94FD
S11303A095002196C501B401A70196010E94470357
S11303B0862F6C2F805D0E949500DF91CF91FF9076
S11303C0EF90DF90CF90BF90AF909F908F90089563
S11303D0EC01C12CD12C7601C394C6010E947F018B
S11303E0882329F0AE01C701B6010E94AE018FEF48
S11303F0C81AD80AE80AF80AF0CF0E9457000E94E7
S11304005D0060E070E088EE91E00E94420283E0CB
S113041090E00E94E801DC0115961C921E9214974C
S1130420DB01ED91FC911197309721F48D939C930E
S11304300895F9012481358121153105D1F795837A
S113044084830895CF93DF9300D0CDB7DEB79A832A
S11304508983809150019091510106960E94A203D4
S1130460892B59F489819A81909351018093500189
S113047061E070E006960E94C2030F900F90DF9136
S1130480CF910895CF93DF9300D0CDB7DEB7F89422
S113049020915C0130915D01232B29F521E030E0AE
S11304A030935D0120935C012AE332E03093D20162
S11304B02093D10127EA32E030933F0220933E0299
S11304C024E133E03093AC022093AB021092190381
S11304D01092180327982F9AECE6F0E02081206808
S11304E02083EF9A789420915201309153013A83FA
S11304F02983232BA9F0E981FA8144815581509302
S113050053014093520191838083738362831582E4
S11305101482CF0106960E94A203019749F501C0F7
S1130520FFCF7894A0915001B0915101ED91FC91CD
S1130530119712968D919C9113970995F89462E501
S113054071E080915001909151010E940B028091C1
S11305505E0190915F01009751F0FC012481358187
S113056030935F0120935E010E94220201C0FFCFFD
S1130570E981FA81369689819A8187599F4F918BB7
S1130580808B938B828B6EE571E089819A810E94C6
S11305900B0278940F900F90DF91CF910895F89407
S11305A06EE571E080915001909151010E940B021F
S11305B080915E0190915F01009759F0FC012481C4
S11305C0358130935F0120935E010E94220278946A
S11305D00895FFCF1F920F920FB60F9211242F93FD
S11305E03F934F935F936F937F938F939F93AF93B7
S11305F0BF93EF93FF931F9B0E94CF02FF91EF9154
S1130600BF91AF919F918F917F916F915F914F9126
S11306103F912F910F900FBE0F901F9018951F922E
S11306200F920FB60F9211242F933F934F935F9322
S11306306F937F938F939F93AF93BF93EF93FF93A6
S11306400E94CF02FF91EF91BF91AF919F918F9143
S11306507F916F915F914F913F912F910F900FBEBA
S11306600F901F90189597FB072E16F4009407D04F
S113067077FD09D00E946C0307FC05D03EF49095E9
S113068081959F4F0895709561957F4F0895052E2C
S113069097FB1EF400940E945E0357FD07D00E944E
S11306A0800307FC03D04EF40C945E0350954095F0
S11306B0309521953F4F4F4F5F4F0895909580950A
S11306C0709561957F4F8F4F9F4F0895EE0FFF1FD9
S11306D00590F491E02D0994AA1BBB1B51E107C0BE
S11306E0AA1FBB1FA617B70710F0A61BB70B881FBE
S11306F0991F5A95A9F780959095BC01CD0108954D
S1130700A1E21A2EAA1BBB1BFD010DC0AA1FBB1F11
S1130710EE1FFF1FA217B307E407F50720F0A21B83
S1130720B30BE40BF50B661F771F881F991F1A94F0
S113073069F760957095809590959B01AC01BD011A
S1130740CF010895DC012D923D924D925D926D9200
S11307507D928D929D92AD92BD92CD92DD92ED925D
S1130760FD920D931D93CD93DD93FF91EF918DB782
S11307708D938EB78D938FB78D93ED93FD938827CB
S113078099270994DC01CB0181309105811D2D90BD
S11307903D904D905D906D907D908D909D90AD902D
S11307A0BD90CD90DD90ED90FD900D911D91CD917A
S11307B0DD91ED91FD910D90F894FEBF0FBEEDBF5C
S10D07C0ED91FD910994F894FFCF28
S11307CA010005000B000100010005000F000100F3
S11307DA0100010001000000010004000F000100F3
S11307EA010004000B000100000005000B000000DA
S11307FA010001000B000100010001000E000100CC
S113080A00000100010000000100050005000100CC
S107081A6001CD01A7
S9030000FC
