:100000000C9438000C94C0030C942C040C949804A9
:100010000C9404050C9470050C9455000C94470C3A
:100020000C9455000C94F50B0C94DC050C944806CC
:100030000C94B4060C9420070C948C070C94F807CD
:100040000C9464080C94D0080C943C090C94A809F6
:100050000C94140A0C94800A0C94EC0A8C006E0028
:100060007100740077007A007D00800083008600B4
:1000700011241FBECFEFD4E0DEBFCDBF11E0A0E062
:10008000B1E0E0E9FFE102C005900D92A438B107AC
:10009000D9F724E0A4E8B1E001C01D92AF3DB2075A
:1000A000E1F70E94C7020C94C60F0C9400008FE089
:1000B0008093E70087EB8093E50087E08093E6007C
:1000C00080EC8093E400089590E0FC01F097EA3022
:1000D000F105F8F4E25DFF4F0C945D0F80E491E0D0
:1000E000089588E391E0089580E391E0089588E21F
:1000F00091E0089580E291E0089588E191E008950B
:1001000080E191E0089588E091E0089580E091E039
:10011000089584E891E0089588E491E00895CF93EC
:10012000663008F0E4C0C62F0E946400FC01C230B3
:1001300009F467C028F4CC2351F0C13029F1D7C0AD
:10014000C33009F47BC0C43009F4B5C0D0C0ACEEF4
:10015000B0E08C91807F9081892B8C93A1EFB0E0EF
:100160008C91807F9281892B8C93A6EFB0E08C914B
:10017000807F9481892B8C93ABEFB0E08C91807F52
:100180009681892B8C93B3C0ACEEB0E02C9180812A
:10019000918182959295907F9827807F9827922FC2
:1001A0009F70892B8C93A1EFB0E02C918281938179
:1001B00082959295907F9827807F9827922F9F70A5
:1001C000892B8C93A6EFB0E02C9184819581829548
:1001D0009295907F9827807F9827922F9F70892BE8
:1001E0008C93ABEFB0E02C918681978182959295AC
:1001F000907F9827807F9827922F9F70892B8C93D0
:1002000076C0ADEEB0E08C91807F9081892B8C938D
:10021000A2EFB0E08C91807F9281892B8C93A7EF25
:10022000B0E08C91807F9481892B8C93ACEFB0E00F
:100230008C91807F9681892B8C9359C0ADEEB0E074
:100240002C918081918182959295907F9827807FD3
:100250009827922F9F70892B8C93A2EFB0E02C915E
:100260008281938182959295907F9827807F9827AD
:10027000922F9F70892B8C93A7EFB0E02C918481F3
:10028000958182959295907F9827807F9827922FCD
:100290009F70892B8C93ACEFB0E02C918681978175
:1002A00082959295907F9827807F9827922F9F70B4
:1002B000892B8C931CC0AEEEB0E08C91807F908136
:1002C000892B8C93A3EFB0E08C91807F9281892B56
:1002D0008C93A8EFB0E08C91807F9481892B8C93D4
:1002E000ADEFB0E08C91807F9681892B8C93CF917C
:1002F00008958F929F92AF92BF92CF92DF92EF922A
:10030000FF92CF93DF934B015C01EA0124E630E0DA
:1003100040E050E00E943E0F0F2EFAE0CF2ED12C8D
:10032000E12CF12CF02DA70196010E943E0F6C2FBD
:1003300080E3820F0E948F002196C501B401A701BE
:1003400096010E943E0F862F6C2F805D0E948F00C9
:10035000DF91CF91FF90EF90DF90CF90BF90AF9063
:100360009F908F9008950F931F93CF93DF93EC018D
:1003700040E050E066EF72E08C819D810E940D0E9E
:100380008C0140E050E066EF72E08E819F810E9418
:100390000D0EEC01B801110F880B990B40E050E0F5
:1003A0000E947901BE01DD0F880B990B43E050E0FC
:1003B0000E947901DF91CF911F910F910895FC0167
:1003C0002481358131872087ECEEF0E080818B7BC2
:1003D00080838081846080830895FC012681378139
:1003E00031872087ECEEF0E080818B7B80838081F9
:1003F000806480830895CF92DF92EF92FF920F93F3
:100400001F93CF93DF938C01EB0140E050E066EF48
:1004100072E0FC01808591850E940D0EAC014C0FAD
:100420005D1F552314F440E050E066EE72E0F801E1
:10043000808591850E940D0EC12CD12C0F2EF3EBDF
:10044000EF2EF1E0FF2EF02D20E030E0A90160E07A
:1004500070E0CB010E94FC0CDF91CF911F910F91B6
:10046000FF90EF90DF90CF900895CF92DF92EF92C0
:10047000FF920F931F93CF93DF93EC0140E050E086
:1004800066EF72E0888599850E940D0E892B49F4EC
:1004900040E050E060EF72E0888599850E940D0E83
:1004A00010C040E050E06AEE72E0888599850E94B5
:1004B0000D0E40E050E066EE72E0888599850E945E
:1004C0000D0EC12CD12C0F2EF3EBEF2EF1E0FF2EF1
:1004D000F02D8E0120E030E0A90160E070E0CB015A
:1004E0000E94FC0CDF91CF911F910F91FF90EF9034
:1004F000DF90CF90089585B1806D85B98EB18C6005
:100500008EB98DB3806C8DBBECE6F0E08081806DA0
:100510008083EBE6F0E080818C6080830895CF9348
:10052000DF93EC011F9906C06FEF7FEF8C819D81F7
:100530000E94FB011E9906C061E070E08C819D81E4
:100540000E94FB011C9904C08C819D810E94350290
:10055000DF91CF910895CF93DF93EC01629904C0AE
:100560008C819D810E94DF01639904C08C819D81F3
:100570000E94ED01DF91CF910895E1E6F0E080E87F
:100580008083108208958DB180658DB908950E9491
:10059000BD020E94C3020E947B020E94570042E0FB
:1005A0006FE872E080E591E00E94080F41E06BEA9D
:1005B00072E080E591E00E94080F40E050E060E0CA
:1005C00070E086E591E00E94220F0895FC0171879A
:1005D00060870895FC01208531853387228708953F
:1005E000FC0122853385318720870895FC018085B1
:1005F00091850895CF93DF9300D000D0CDB7DEB7BB
:100600008FE792E02FE533E0FC01709791838083C0
:10061000409682179307C1F71092500310924F0330
:10062000EAEBF1E087ED91E09183808384EF91E044
:10063000968F858FA1E1B2E0B3AFA2AF1D921C925D
:10064000FA83E983EBEBF3E0FC83EB8389819A8106
:1006500006960E94850F8B819C81E981FA81978B98
:10066000868B918F808F8AE99EE0948F838F15828D
:1006700014827D96FA83E983EB81FC81E05AFF4F77
:10068000FC83EB8389819A818E529240F9F6E2E5F0
:10069000F2E0118210821582148213821282E1E646
:1006A000F0E080E880831082109285001092840030
:1006B00084E08093810081E080936F000F900F9021
:1006C0000F900F90DF91CF910895CF93DF9300D0DB
:1006D000CDB7DEB79A83898380917C0190917D01AB
:1006E00006960E94850F892B59F489819A819093EF
:1006F0007D0180937C0161E070E006960E94A50F69
:100700000F900F90DF91CF9108950F931F93CF9388
:10071000DF93E0919401F0919501309761F1809120
:10072000800190918101009731F1C0917E01D091BB
:100730007F01AA81BB81109779F04681578160853E
:10074000718516960D911D912D913C911997401B25
:10075000510B620B730B7AF4FC01208131813093D1
:10076000810120938001D183C08390937F01809386
:100770007E010E946503DF91CF911F910F91089533
:100780001F920F920FB60F9211242F933F934F9306
:100790005F936F937F938F939F93AF93BF93EF93E9
:1007A000FF9320918C0130918D01409184005091F4
:1007B0008500C901032E000CAA0BBB0BDC01992795
:1007C000882760E070E0842B952BA62BB72B8093B5
:1007D0008E0190938F01A0939001B0939101B09BF3
:1007E0001BC04091840050918500C9010196092EDB
:1007F000000CAA0BBB0BDC019927882760E070E096
:10080000842B952BA62BB72B80938E0190938F0171
:10081000A0939001B0939101E0912E02F0912F02EC
:10082000309739F060E070E08091960190919701E7
:1008300009950E948503FF91EF91BF91AF919F9120
:100840008F917F916F915F914F913F912F910F9079
:100850000FBE0F901F9018951F920F920FB60F9218
:1008600011242F933F934F935F936F937F938F93B5
:100870009F93AF93BF93EF93FF9320918C0130919F
:100880008D014091840050918500C901032E000C18
:10089000AA0BBB0BDC019927882760E070E0842B52
:1008A000952BA62BB72B80938E0190938F01A0934D
:1008B0009001B0939101B09B1BC040918400509176
:1008C0008500C9010196092E000CAA0BBB0BDC01A7
:1008D0009927882760E070E0842B952BA62BB72BF7
:1008E00080938E0190938F01A0939001B09391011A
:1008F000E0913002F0913102309739F061E070E020
:10090000809198019091990109950E948503FF912A
:10091000EF91BF91AF919F918F917F916F915F9177
:100920004F913F912F910F900FBE0F901F901895F0
:100930001F920F920FB60F9211242F933F934F9354
:100940005F936F937F938F939F93AF93BF93EF9337
:10095000FF9320918C0130918D0140918400509142
:100960008500C901032E000CAA0BBB0BDC019927E3
:10097000882760E070E0842B952BA62BB72B809303
:100980008E0190938F01A0939001B0939101B09B41
:100990001BC04091840050918500C9010196092E29
:1009A000000CAA0BBB0BDC019927882760E070E0E4
:1009B000842B952BA62BB72B80938E0190938F01C0
:1009C000A0939001B0939101E0913202F091330233
:1009D000309739F062E070E080919A0190919B012C
:1009E00009950E948503FF91EF91BF91AF919F916F
:1009F0008F917F916F915F914F913F912F910F90C8
:100A00000FBE0F901F9018951F920F920FB60F9266
:100A100011242F933F934F935F936F937F938F9303
:100A20009F93AF93BF93EF93FF9320918C013091ED
:100A30008D014091840050918500C901032E000C66
:100A4000AA0BBB0BDC019927882760E070E0842BA0
:100A5000952BA62BB72B80938E0190938F01A0939B
:100A60009001B0939101B09B1BC0409184005091C4
:100A70008500C9010196092E000CAA0BBB0BDC01F5
:100A80009927882760E070E0842B952BA62BB72B45
:100A900080938E0190938F01A0939001B093910168
:100AA000E0913402F0913502309739F063E070E064
:100AB00080919C0190919D0109950E948503FF9171
:100AC000EF91BF91AF919F918F917F916F915F91C6
:100AD0004F913F912F910F900FBE0F901F9018953F
:100AE0001F920F920FB60F9211242F933F934F93A3
:100AF0005F936F937F938F939F93AF93BF93EF9386
:100B0000FF9320918C0130918D0140918400509190
:100B10008500C901032E000CAA0BBB0BDC01992731
:100B2000882760E070E0842B952BA62BB72B809351
:100B30008E0190938F01A0939001B0939101B09B8F
:100B40001BC04091840050918500C9010196092E77
:100B5000000CAA0BBB0BDC019927882760E070E032
:100B6000842B952BA62BB72B80938E0190938F010E
:100B7000A0939001B0939101E0913602F091370279
:100B8000309739F064E070E080919E0190919F0170
:100B900009950E948503FF91EF91BF91AF919F91BD
:100BA0008F917F916F915F914F913F912F910F9016
:100BB0000FBE0F901F9018951F920F920FB60F92B5
:100BC00011242F933F934F935F936F937F938F9352
:100BD0009F93AF93BF93EF93FF9320918C0130913C
:100BE0008D014091840050918500C901032E000CB5
:100BF000AA0BBB0BDC019927882760E070E0842BEF
:100C0000952BA62BB72B80938E0190938F01A093E9
:100C10009001B0939101B09B1BC040918400509112
:100C20008500C9010196092E000CAA0BBB0BDC0143
:100C30009927882760E070E0842B952BA62BB72B93
:100C400080938E0190938F01A0939001B0939101B6
:100C5000E0913802F0913902309739F065E070E0A8
:100C60008091A0019091A10109950E948503FF91B7
:100C7000EF91BF91AF919F918F917F916F915F9114
:100C80004F913F912F910F900FBE0F901F9018958D
:100C90001F920F920FB60F9211242F933F934F93F1
:100CA0005F936F937F938F939F93AF93BF93EF93D4
:100CB000FF9320918C0130918D01409184005091DF
:100CC0008500C901032E000CAA0BBB0BDC01992780
:100CD000882760E070E0842B952BA62BB72B8093A0
:100CE0008E0190938F01A0939001B0939101B09BDE
:100CF0001BC04091840050918500C9010196092EC6
:100D0000000CAA0BBB0BDC019927882760E070E080
:100D1000842B952BA62BB72B80938E0190938F015C
:100D2000A0939001B0939101E0913A02F0913B02BF
:100D3000309739F066E070E08091A2019091A301B4
:100D400009950E948503FF91EF91BF91AF919F910B
:100D50008F917F916F915F914F913F912F910F9064
:100D60000FBE0F901F9018951F920F920FB60F9203
:100D700011242F933F934F935F936F937F938F93A0
:100D80009F93AF93BF93EF93FF9320918C0130918A
:100D90008D014091840050918500C901032E000C03
:100DA000AA0BBB0BDC019927882760E070E0842B3D
:100DB000952BA62BB72B80938E0190938F01A09338
:100DC0009001B0939101B09B1BC040918400509161
:100DD0008500C9010196092E000CAA0BBB0BDC0192
:100DE0009927882760E070E0842B952BA62BB72BE2
:100DF00080938E0190938F01A0939001B093910105
:100E0000E0913C02F0913D02309739F067E070E0EC
:100E10008091A4019091A50109950E948503FF91FD
:100E2000EF91BF91AF919F918F917F916F915F9162
:100E30004F913F912F910F900FBE0F901F901895DB
:100E40001F920F920FB60F9211242F933F934F933F
:100E50005F936F937F938F939F93AF93BF93EF9322
:100E6000FF9320918C0130918D014091840050912D
:100E70008500C901032E000CAA0BBB0BDC019927CE
:100E8000882760E070E0842B952BA62BB72B8093EE
:100E90008E0190938F01A0939001B0939101B09B2C
:100EA0001BC04091840050918500C9010196092E14
:100EB000000CAA0BBB0BDC019927882760E070E0CF
:100EC000842B952BA62BB72B80938E0190938F01AB
:100ED000A0939001B0939101E0913E02F0913F0206
:100EE000309739F068E070E08091A6019091A701F9
:100EF00009950E948503FF91EF91BF91AF919F915A
:100F00008F917F916F915F914F913F912F910F90B2
:100F10000FBE0F901F9018951F920F920FB60F9251
:100F200011242F933F934F935F936F937F938F93EE
:100F30009F93AF93BF93EF93FF9320918C013091D8
:100F40008D014091840050918500C901032E000C51
:100F5000AA0BBB0BDC019927882760E070E0842B8B
:100F6000952BA62BB72B80938E0190938F01A09386
:100F70009001B0939101B09B1BC0409184005091AF
:100F80008500C9010196092E000CAA0BBB0BDC01E0
:100F90009927882760E070E0842B952BA62BB72B30
:100FA00080938E0190938F01A0939001B093910153
:100FB000E0914002F0914102309739F069E070E031
:100FC0008091A8019091A90109950E948503FF9144
:100FD000EF91BF91AF919F918F917F916F915F91B1
:100FE0004F913F912F910F900FBE0F901F9018952A
:100FF0001F920F920FB60F9211242F933F934F938E
:101000005F936F937F938F939F93AF93BF93EF9370
:10101000FF9320918C0130918D014091840050917B
:101020008500C901032E000CAA0BBB0BDC0199271C
:10103000882760E070E0842B952BA62BB72B80933C
:101040008E0190938F01A0939001B0939101B09B7A
:101050001BC04091840050918500C9010196092E62
:10106000000CAA0BBB0BDC019927882760E070E01D
:10107000842B952BA62BB72B80938E0190938F01F9
:10108000A0939001B0939101E0914202F09143024C
:10109000309739F06AE070E08091AA019091AB013D
:1010A00009950E948503FF91EF91BF91AF919F91A8
:1010B0008F917F916F915F914F913F912F910F9001
:1010C0000FBE0F901F9018951F920F920FB60F92A0
:1010D00011242F933F934F935F936F937F938F933D
:1010E0009F93AF93BF93EF93FF9320918C01309127
:1010F0008D014091840050918500C901032E000CA0
:10110000AA0BBB0BDC019927882760E070E0842BD9
:10111000952BA62BB72B80938E0190938F01A093D4
:101120009001B0939101B09B1BC0409184005091FD
:101130008500C9010196092E000CAA0BBB0BDC012E
:101140009927882760E070E0842B952BA62BB72B7E
:1011500080938E0190938F01A0939001B0939101A1
:10116000E0914402F0914502309739F06BE070E075
:101170008091AC019091AD0109950E948503FF918A
:10118000EF91BF91AF919F918F917F916F915F91FF
:101190004F913F912F910F900FBE0F901F90189578
:1011A0001F920F920FB60F9211242F933F934F93DC
:1011B0005F936F937F938F939F93AF93BF93EF93BF
:1011C000FF9320918C0130918D01409184005091CA
:1011D0008500C901032E000CAA0BBB0BDC0199276B
:1011E000882760E070E0842B952BA62BB72B80938B
:1011F0008E0190938F01A0939001B0939101B09BC9
:101200001BC04091840050918500C9010196092EB0
:10121000000CAA0BBB0BDC019927882760E070E06B
:10122000842B952BA62BB72B80938E0190938F0147
:10123000A0939001B0939101E0914602F091470292
:10124000309739F06CE070E08091AE019091AF0181
:1012500009950E948503FF91EF91BF91AF919F91F6
:101260008F917F916F915F914F913F912F910F904F
:101270000FBE0F901F9018951F920F920FB60F92EE
:1012800011242F933F934F935F936F937F938F938B
:101290009F93AF93BF93EF93FF9320918C01309175
:1012A0008D014091840050918500C901032E000CEE
:1012B000AA0BBB0BDC019927882760E070E0842B28
:1012C000952BA62BB72B80938E0190938F01A09323
:1012D0009001B0939101B09B1BC04091840050914C
:1012E0008500C9010196092E000CAA0BBB0BDC017D
:1012F0009927882760E070E0842B952BA62BB72BCD
:1013000080938E0190938F01A0939001B0939101EF
:10131000E0914802F0914902309739F06DE070E0B9
:101320008091B0019091B10109950E948503FF91D0
:10133000EF91BF91AF919F918F917F916F915F914D
:101340004F913F912F910F900FBE0F901F901895C6
:101350001F920F920FB60F9211242F933F934F932A
:101360005F936F937F938F939F93AF93BF93EF930D
:10137000FF9320918C0130918D0140918400509118
:101380008500C901032E000CAA0BBB0BDC019927B9
:10139000882760E070E0842B952BA62BB72B8093D9
:1013A0008E0190938F01A0939001B0939101B09B17
:1013B0001BC04091840050918500C9010196092EFF
:1013C000000CAA0BBB0BDC019927882760E070E0BA
:1013D000842B952BA62BB72B80938E0190938F0196
:1013E000A0939001B0939101E0914A02F0914B02D9
:1013F000309739F06EE070E08091B2019091B301C6
:1014000009950E948503FF91EF91BF91AF919F9144
:101410008F917F916F915F914F913F912F910F909D
:101420000FBE0F901F9018951F920F920FB60F923C
:1014300011242F933F934F935F936F937F938F93D9
:101440009F93AF93BF93EF93FF9320918C013091C3
:101450008D014091840050918500C901032E000C3C
:10146000AA0BBB0BDC019927882760E070E0842B76
:10147000952BA62BB72B80938E0190938F01A09371
:101480009001B0939101B09B1BC04091840050919A
:101490008500C9010196092E000CAA0BBB0BDC01CB
:1014A0009927882760E070E0842B952BA62BB72B1B
:1014B00080938E0190938F01A0939001B09391013E
:1014C000E0914C02F0914D02309739F06FE070E0FE
:1014D0008091B4019091B50109950E948503FF9117
:1014E000EF91BF91AF919F918F917F916F915F919C
:1014F0004F913F912F910F900FBE0F901F90189515
:101500001F920F920FB60F9211242F933F934F9378
:101510005F936F937F938F939F93AF93BF93EF935B
:10152000FF9320918C0130918D0140918400509166
:101530008500C901032E000CAA0BBB0BDC01992707
:10154000882760E070E0842B952BA62BB72B809327
:101550008E0190938F01A0939001B0939101B09B65
:101560001BC04091840050918500C9010196092E4D
:10157000000CAA0BBB0BDC019927882760E070E008
:10158000842B952BA62BB72B80938E0190938F01E4
:10159000A0939001B0939101E0914E02F0914F021F
:1015A000309739F060E170E08091B6019091B70119
:1015B00009950E948503FF91EF91BF91AF919F9193
:1015C0008F917F916F915F914F913F912F910F90EC
:1015D0000FBE0F901F9018951F920F920FB60F928B
:1015E00011242F933F934F935F936F937F938F9328
:1015F0009F93AF93BF93EF93FF9320918C01309112
:101600008D014091840050918500C901032E000C8A
:10161000AA0BBB0BDC019927882760E070E0842BC4
:10162000952BA62BB72B80938E0190938F01A093BF
:101630009001B0939101B09B1BC0409184005091E8
:101640008500C9010196092E000CAA0BBB0BDC0119
:101650009927882760E070E0842B952BA62BB72B69
:1016600080938E0190938F01A0939001B09391018C
:10167000E0915002F0915102309739F061E170E051
:101680008091B8019091B90109950E948503FF915D
:10169000EF91BF91AF919F918F917F916F915F91EA
:1016A0004F913F912F910F900FBE0F901F90189563
:1016B000EF92FF920F931F93CF93DF937B01EB0188
:1016C000A881B981109761F1FC01068117812085FD
:1016D000318516964D915D916D917C911997041706
:1016E00015072607370714F41BC0DF01ED91FC91A5
:1016F0001197309749F046815781608571850417AD
:101700001507260737078CF7EC01F983E883109754
:1017100021F4F7019183808307C08D939C9304C0CB
:10172000EC01B983A883F5CFDF91CF911F910F9181
:10173000FF90EF900895EF92FF920F931F93CF9336
:10174000DF937B01EB01A881B981109761F1FC0166
:10175000028113812481358112964D915D916D91A5
:101760007C911597041715072607370714F41BC03B
:10177000DF01ED91FC911197309749F0428153813F
:101780006481758104171507260737078CF7EC016C
:10179000F983E883109721F4F7019183808307C0D0
:1017A0008D939C9304C0EC01B983A883F5CFDF919E
:1017B000CF911F910F91FF90EF900895DC01ED9173
:1017C000FC911197309759F48FEF8093EC00809340
:1017D000ED008093EE0081E083BF8895FDCF2081EE
:1017E00031812D933C93CF0108951F920F920FB634
:1017F0000F9211242F933F934F935F936F937F9397
:101800008F939F93EF93FF9380918C0190918D0123
:10181000019690938D0180938C01E0919201F0915B
:101820009301309701F1428153816481758186175C
:101830009707C9F4CA012091840030918500421BAA
:10184000530B4130510529F480918400909185001B
:1018500001969093890080938800EFE6F0E0808104
:101860008260808305C0EFE6F0E080818D7F808319
:10187000FF91EF919F918F917F916F915F914F9128
:101880003F912F910F900FBE0F901F9018951F92B0
:101890000F920FB60F921124CF92DF92EF92FF9228
:1018A0002F933F934F935F936F937F938F939F9368
:1018B000AF93BF93EF93FF93C0908C01D0908D01B5
:1018C0002091840030918500B0990FC00D2C000C40
:1018D000EE08FF08D601992788276901E12CF12C31
:1018E000C82AD92AEA2AFB2A15C0209184003091FF
:1018F00085008FEFC81AD80A0D2C000CEE08FF08DF
:10190000D601992788276901E12CF12CC82AD92A08
:10191000EA2AFB2AE0919201F0919301309709F4B1
:1019200042C082819381A481B5818C199D09AE0941
:10193000BF09181619061A061B06ECF182E991E098
:101940000E94DE0B64E971E00E94580BE091920165
:10195000F0919301309739F182819381A481B5810F
:101960008C199D09AE09BF09181619061A061B061F
:101970002CF721C09C014091840050918500841B6C
:10198000950B019731F420918400309185002F5FF1
:101990003F4F3093890020938800EFE6F0E080818C
:1019A0008260808305C0EFE6F0E080818D7F8083D8
:1019B0000E9485030CC082819381A481B58120910E
:1019C0008C0130918D012A173B0769F7D3CFFF9126
:1019D000EF91BF91AF919F918F917F916F915F91A7
:1019E0004F913F912F91FF90EF90DF90CF900F900C
:1019F0000FBE0F901F9018953F924F925F926F927B
:101A00007F928F929F92AF92BF92CF92DF92EF928E
:101A1000FF920F931F93CF93DF932B013C0149015A
:101A20005A018FB78078382EF89482E891E00E94AE
:101A3000DE0BEC011B870A87FD86EC86DF86CE86EF
:101A4000332061F0E0917C01F0917D010280F3810F
:101A5000E02D82819381A481B58108C080918E019F
:101A600090918F01A0919001B0919101480E591E63
:101A70006A1E7B1E4A825B826C827D821814190466
:101A80001A041B0444F00F2E88248A94982CA82C46
:101A9000FFE7BF2EF02D840C951CA61CB71C8E8270
:101AA0009F82A886B98680918C0190918D0140918A
:101AB000840050918500B0990EC0092E000CAA0B2D
:101AC000BB0BDC019927882760E070E0842B952B05
:101AD000A62BB72B13C0209184003091850001966E
:101AE000092E000CAA0BBB0BDC0199278827A90142
:101AF00060E070E0842B952BA62BB72B481A590A6F
:101B00006A0A7B0A1414150416041704ACF562E97A
:101B100071E0CE010E949B0BE0919201F091930144
:101B2000309721F182819381A481B58120918C012C
:101B300030918D012A173B07C9F49C014091840024
:101B400050918500841B950B019731F420918400FE
:101B5000309185002F5F3F4F30938900209388009C
:101B6000EFE6F0E080818260808341C0EFE6F0E044
:101B700080818D7F80833BC064E971E0CE010E944B
:101B8000580B3320B9F18091800190918101009729
:101B900081F1E0917E01F0917F01209194013091DB
:101BA000950102811381D90116964D915D916D9138
:101BB0007C911997D80116960D911D912D913C910C
:101BC0001997401B510B620B730B9AF4DC012D919A
:101BD0003C9111973093810120938001ED93FC9308
:101BE00090937F0180937E010E94650302C03320A1
:101BF00009F07894CE01DF91CF911F910F91FF9062
:101C0000EF90DF90CF90BF90AF909F908F907F909C
:101C10006F905F904F903F900895CF92DF92EF9238
:101C2000FF920F931F93CF93DF93EC017B016A0127
:101C30001FB71078F894A881B981109761F11496B4
:101C4000ED91FC911597309741F0A081B1811496E8
:101C5000ED91FC9115973097C1F720917C0130915F
:101C60007D012A173B0721F0112309F43DC007C06D
:101C7000112309F43CC078948FEF9FEF52C08A8102
:101C80009B810097D1F1FC011582148236C07894B3
:101C900080E090E046C080917C0190917D01998325
:101CA0008883112329F08A819B81019709F0789418
:101CB000B601CE01F7010995F82E092F8FB7F894D8
:101CC000198218828A819B818230910538F01B82AB
:101CD0001A82FC01158214820E946503112351F0BF
:101CE00078948F2D902F1DC08FEF9FEF1AC08FEF2C
:101CF0009FEF17C08F2D902F14C03B832A83F901CB
:101D0000D583C483CD010E946503E0917C01F091ED
:101D10007D0182819381892B09F4B9CFF983E8830E
:101D2000C2CFDF91CF911F910F91FF90EF90DF9085
:101D3000CF90089500917C0110917D0184E991E09C
:101D40000E94DE0BEC01D80113969C938E931297A0
:101D500078944E855F856C857D858A859B850E94FC
:101D60000D0E8FB7F8948091820190918301998331
:101D70008883D0938301C0938201E0917E01F0912A
:101D80007F0100811181E8012A813B81A0919401AA
:101D9000B09195011097C1F02115310559F21696B1
:101DA0008D919D910D90BC91A02DE9014E815F8197
:101DB00068857985841B950BA60BB70B1816190639
:101DC0001A061B060CF0B6CF10937F0100937E011C
:101DD000809180019091810191838083F0938101B2
:101DE000E0938001A0917E01B0917F011496ED9166
:101DF000FC911597309741F0A081B1811496ED9137
:101E0000FC9115973097C1F7CD010E94650392CFE1
:101E10004231B8F42FB7F89450E0440F551FFA013F
:101E2000EA56FE4F91838083FA01E25DFD4F718394
:101E3000608341E050E0FC015383428322230CF491
:101E4000789408958C017B016A018FB7F8940E9401
:101E5000FA027894E114F10441F020E030E0A901A5
:101E600060E070E0CB010E94FC0C8FB7F8940E94F8
:101E70008503789481E083BF8895FDCF052E97FB7D
:101E80001EF400940E94550F57FD07D00E94630F67
:101E900007FC03D04EF40C94550F509540953095A7
:101EA00021953F4F4F4F5F4F0895909580957095C6
:101EB00061957F4F8F4F9F4F0895EE0FFF1F059045
:101EC000F491E02D0994A1E21A2EAA1BBB1BFD017F
:101ED0000DC0AA1FBB1FEE1FFF1FA217B307E40709
:101EE000F50720F0A21BB30BE40BF50B661F771F61
:101EF000881F991F1A9469F7609570958095909541
:101F00009B01AC01BD01CF010895DC012D923D92F2
:101F10004D925D926D927D928D929D92AD92BD9209
:101F2000CD92DD92ED92FD920D931D93CD93DD93B5
:101F3000FF91EF918DB78D938EB78D938FB78D9362
:101F4000ED93FD93882799270994DC01CB0181301B
:101F50009105811D2D903D904D905D906D907D90EF
:101F60008D909D90AD90BD90CD90DD90ED90FD90C9
:101F70000D911D91CD91DD91ED91FD910D90F89414
:101F8000FEBF0FBEEDBFED91FD910994F894FFCF18
:101F9000010005000B000100010005000F00010019
:101FA0000100010001000000010004000F00010019
:101FB000010004000B000100000005000B00000000
:101FC000010001000B000100010001000E000100F2
:101FD00000000100010000000100050005000100F3
:101FE000000000005601000000006E0160016E015B
:101FF00000000000060000000000000000000000DB
:102000000000040000000000000000005202520224
:04201000BA016F02A0
:00000001FF
