:100000000C9438000C94EE040C945A050C94C6051C
:100010000C9432060C949E060C9455000C94750DAD
:100020000C9455000C94230D0C940A070C9476073D
:100030000C94E2070C944E080C94BA080C94260910
:100040000C9492090C94FE090C946A0A0C94D60A3A
:100050000C94420B0C94AE0B0C941A0C8C006E009A
:100060007100740077007A007D00800083008600B4
:1000700011241FBECFEFD4E0DEBFCDBF11E0A0E062
:10008000B1E0EEEDF2E202C005900D92A838B107A2
:10009000D9F724E0A8E8B1E001C01D92A73EB2075D
:1000A000E1F70E94EC020C946D110C9400008FE0BB
:1000B0008093E70087EB8093E50087E08093E6007C
:1000C00080EC8093E400089590E0FC01F097EA3022
:1000D000F105F8F4E25DFF4F0C94F01080E491E03C
:1000E000089588E391E0089580E391E0089588E21F
:1000F00091E0089580E291E0089588E191E008950B
:1001000080E191E0089588E091E0089580E091E039
:10011000089588E891E0089588E491E00895CF93E8
:10012000653008F0E4C0C62F0E946400FC01C230B4
:1001300009F467C028F4CC2351F0C13029F1D7C0AD
:10014000C33009F47BC0C43009F4B5C0D0C0ACEEF4
:10015000B0E08C91807F9081892B8C93A1EFB0E0EF
:100160008C91807F9281892B8C93A6EFB0E08C914B
:10017000807F9481892B8C93ABEFB0E08C91807F52
:100180009681892B8C93B3C0ACEEB0E02C9180812A
:10019000918182959295907F9827807F9827922FC2
:1001A0009F70892B8C93A1EFB0E02C918281938179
:1001B00082959295907F9827807F9827922F9F70A5
:1001C000892B8C93A6EFB0E02C9184819581829548
:1001D0009295907F9827807F9827922F9F70892BE8
:1001E0008C93ABEFB0E02C918681978182959295AC
:1001F000907F9827807F9827922F9F70892B8C93D0
:1002000076C0ADEEB0E08C91807F9081892B8C938D
:10021000A2EFB0E08C91807F9281892B8C93A7EF25
:10022000B0E08C91807F9481892B8C93ACEFB0E00F
:100230008C91807F9681892B8C9359C0ADEEB0E074
:100240002C918081918182959295907F9827807FD3
:100250009827922F9F70892B8C93A2EFB0E02C915E
:100260008281938182959295907F9827807F9827AD
:10027000922F9F70892B8C93A7EFB0E02C918481F3
:10028000958182959295907F9827807F9827922FCD
:100290009F70892B8C93ACEFB0E02C918681978175
:1002A00082959295907F9827807F9827922F9F70B4
:1002B000892B8C931CC0AEEEB0E08C91807F908136
:1002C000892B8C93A3EFB0E08C91807F9281892B56
:1002D0008C93A8EFB0E08C91807F9481892B8C93D4
:1002E000ADEFB0E08C91807F9681892B8C93CF917C
:1002F00008958F929F92AF92BF92CF92DF92EF922A
:10030000FF92CF93DF934B015C01EA0124E630E0DA
:1003100040E050E00E94D1100F2EFAE0CF2ED12CF9
:10032000E12CF12CF02DA70196010E94D1106C2F29
:1003300080E3820F0E948F002196C501B401A701BE
:1003400096010E94D110862F6C2F805D0E948F0035
:10035000DF91CF91FF90EF90DF90CF90BF90AF9063
:100360009F908F900895CF93DF93EC01EC81FD81F6
:1003700060857185072E000C880B990B40E050E0DA
:100380000E947901EE81FF8160857185072E000C46
:10039000880B990B43E050E00E947901DF91CF91E7
:1003A000089561E084E891E00E948F00089564E080
:1003B00086E891E00E948F000895AF92BF92CF929D
:1003C000DF92EF92FF920F931F93CF93DF93EC0195
:1003D00088859985892B19F0AE80BF8002C0AC80DA
:1003E000BD80F50180859185892B91F4C12CD12C9C
:1003F0000F2EF6EFEF2EF3E0FF2EF02D850120E01B
:1004000030E0A90160E070E0CB010E942A0E1FC01D
:10041000C12CD12C0F2EF0EFEF2EF3E0FF2EF02D9C
:10042000850120E030E0A90160E070E0CB010E948E
:100430002A0E0F2EF8E7EF2EF3E0FF2EF02D20E02E
:1004400030E0A90160E070E0CB010E942A0EC12CCF
:10045000D12C0F2EF3EBEF2EF1E0FF2EF02D8E01BD
:1004600020E030E0A90160E070E0CB010E942A0E9C
:10047000DF91CF911F910F91FF90EF90DF90CF9080
:10048000BF90AF90089585B1806D85B98EB18C60B5
:100490008EB98DB3806C8DBBECE6F0E08081806D11
:1004A0008083EBE6F0E080818C6080830895CF92BA
:1004B000DF92EF92FF920F931F93CF93DF93EC01A4
:1004C0001F9913C00C811D81CC24CA94DC2C0F2EE3
:1004D000F7EDEF2EF1E0FF2EF02D20E030E0A90146
:1004E00060E070E0CB010E942A0E1E9913C00C81BF
:1004F0001D81CC24C394D12C0F2EF7EDEF2EF1E00B
:10050000FF2EF02D20E030E0A90160E070E0CB018B
:100510000E942A0E1C9912C00C811D81C12CD12C65
:100520000F2EFDEDEF2EF1E0FF2EF02D20E030E05C
:10053000A90160E070E0CB010E942A0EDF91CF910B
:100540001F910F91FF90EF90DF90CF900895CF9281
:10055000DF92EF92FF920F931F93CF93DF93EC0103
:10056000629912C00C811D81C12CD12C0F2EF1ED8E
:10057000EF2EF1E0FF2EF02D20E030E0A90160E049
:1005800070E0CB010E942A0E639913C00C811D817B
:10059000CC24C394D12C0F2EF1EDEF2EF1E0FF2EE1
:1005A000F02D20E030E0A90160E070E0CB010E9476
:1005B0002A0EDF91CF911F910F91FF90EF90DF9066
:1005C000CF900895E1E6F0E080E8808310820895FE
:1005D0008DB180658DB908950E94E2020E94E80203
:1005E0000E9443020E94570042E067E572E080E506
:1005F00091E00E94871041E067EA72E080E591E0B7
:100600000E94871040E050E060E070E086E591E0F5
:100610000E94A1100895452B59F02EB181E090E081
:1006200002C0880F991F6A95E2F7822B8EB9089550
:100630002EB181E090E002C0880F991F6A95E2F721
:10064000809582238EB90895CF92DF92EF92FF9228
:100650000F931F93CF93DF93EC0181E09D81911164
:1006600080E08D839C81C82ED12C092E02C0CC0C39
:10067000DD1C0A94E2F7C92A0C851D850F2EFBE0CC
:10068000EF2EF3E0FF2EF02D20E030E0A90160E036
:1006900070E0CB010E942A0E688579851616170630
:1006A000F4F488EE93E00E94BD10772314F46F5F9A
:1006B0007F4F75956795072E000C880B990BC12C01
:1006C000D12C0F2EF4E2EF2EF3E0FF2EF02D8E0151
:1006D00020E030E0A9010E942A0E9F838E83DF91E3
:1006E000CF911F910F91FF90EF90DF90CF900895E1
:1006F000AF92BF92CF92DF92EF92FF920F931F9330
:10070000CF93DF93FC01208531852617370709F445
:100710005CC05B01EC0186819781009711F00E941B
:100720003610B986A8861A141B04ECF581E08D8377
:100730008C8121E030E06901082E02C0CC0CDD1C68
:100740000A94E2F7C82A0C851D850F2EFBE0EF2ED8
:10075000F3E0FF2EF02D20E030E0A90160E070E032
:10076000CB010E942A0E88EE93E0B5010E94BD10D5
:10077000772314F46F5F7F4F75956795072E000CF4
:10078000880B990BC12CD12C0F2EF4E2EF2EF3E045
:10079000FF2EF02D8E0120E030E0A9010E942A0EEC
:1007A0009F838E8312C0CC80D12C0C851D850F2E8B
:1007B000FBE0EF2EF3E0FF2EF02D20E030E0A9016A
:1007C00060E070E0CB010E942A0EDF91CF911F9173
:1007D0000F91FF90EF90DF90CF90BF90AF90089572
:1007E000FC0120853185338722870895FC0122850D
:1007F0003385318720870895FB01A081B18110974F
:10080000F1F0A817B90711F411C0DF01ED91FC91C7
:1008100011973097B9F08E179F07B9F716C08081EE
:1008200091818D939C9381E090E00895FD018081FA
:100830009181FB019183808381E090E0089580E0C5
:1008400090E0089580E090E00895109741F7EFCF91
:10085000CF93DF9300D000D0CDB7DEB787E892E02A
:1008600027E633E0FC0170979183808340968217DE
:100870009307C1F71092580310925703E2ECF1E08E
:100880008FED91E0918380838CEF91E0968F858F3F
:10089000A9E1B2E0B3AFA2AF1D921C92FA83E98343
:1008A000E3ECF3E0FC83EB8389819A8106960E9456
:1008B0002C118B819C81E981FA81978B868B918F9A
:1008C000808F88EC9FE0948F838F158214827D96B1
:1008D000FA83E983EB81FC81E05AFF4FFC83EB83D1
:1008E00089819A8186539240F9F6EAE5F2E0118215
:1008F00010821582148213821282E1E6F0E080E811
:1009000080831082109285001092840084E080938E
:10091000810081E080936F000F900F900F900F90F7
:10092000DF91CF910895CF93DF9300D0CDB7DEB79D
:100930009A83898380917C0190917D0106960E9423
:100940002C11892B59F489819A8190937D01809390
:100950007C0161E070E006960E944C110F900F90B0
:10096000DF91CF9108950F931F93CF93DF93E09181
:100970009C01F0919D01309761F1809180019091EF
:100980008101009731F1C0917E01D0917F01AA8150
:10099000BB81109779F046815781608571851696E5
:1009A0000D911D912D913C911997401B510B620B9C
:1009B000730B7AF4FC012081318130938101209303
:1009C0008001D183C08390937F0180937E010E9438
:1009D0009304DF91CF911F910F9108951F920F9271
:1009E0000FB60F9211242F933F934F935F936F9302
:1009F0007F938F939F93AF93BF93EF93FF93209138
:100A00009401309195014091840050918500C90175
:100A1000032E000CAA0BBB0BDC019927882760E092
:100A200070E0842B952BA62BB72B80939601909387
:100A30009701A0939801B0939901B09B1BC040917E
:100A4000840050918500C9010196092E000CAA0B63
:100A5000BB0BDC019927882760E070E0842B952B85
:100A6000A62BB72B8093960190939701A0939801A2
:100A7000B0939901E0913602F0913702309739F046
:100A800060E070E080919E0190919F0109950E9425
:100A9000B304FF91EF91BF91AF919F918F917F919F
:100AA0006F915F914F913F912F910F900FBE0F90DB
:100AB0001F9018951F920F920FB60F9211242F932B
:100AC0003F934F935F936F937F938F939F93AF93D6
:100AD000BF93EF93FF932091940130919501409142
:100AE000840050918500C901032E000CAA0BBB0B9A
:100AF000DC019927882760E070E0842B952BA62BDA
:100B0000B72B8093960190939701A0939801B0938F
:100B10009901B09B1BC04091840050918500C90190
:100B20000196092E000CAA0BBB0BDC019927882724
:100B300060E070E0842B952BA62BB72B8093960159
:100B400090939701A0939801B0939901E091380296
:100B5000F0913902309739F061E070E08091A001A6
:100B60009091A10109950E94B304FF91EF91BF916B
:100B7000AF919F918F917F916F915F914F913F9135
:100B80002F910F900FBE0F901F9018951F920F92EC
:100B90000FB60F9211242F933F934F935F936F9350
:100BA0007F938F939F93AF93BF93EF93FF93209186
:100BB0009401309195014091840050918500C901C4
:100BC000032E000CAA0BBB0BDC019927882760E0E1
:100BD00070E0842B952BA62BB72B809396019093D6
:100BE0009701A0939801B0939901B09B1BC04091CD
:100BF000840050918500C9010196092E000CAA0BB2
:100C0000BB0BDC019927882760E070E0842B952BD3
:100C1000A62BB72B8093960190939701A0939801F0
:100C2000B0939901E0913A02F0913B02309739F08C
:100C300062E070E08091A2019091A30109950E9469
:100C4000B304FF91EF91BF91AF919F918F917F91ED
:100C50006F915F914F913F912F910F900FBE0F9029
:100C60001F9018951F920F920FB60F9211242F9379
:100C70003F934F935F936F937F938F939F93AF9324
:100C8000BF93EF93FF932091940130919501409190
:100C9000840050918500C901032E000CAA0BBB0BE8
:100CA000DC019927882760E070E0842B952BA62B28
:100CB000B72B8093960190939701A0939801B093DE
:100CC0009901B09B1BC04091840050918500C901DF
:100CD0000196092E000CAA0BBB0BDC019927882773
:100CE00060E070E0842B952BA62BB72B80939601A8
:100CF00090939701A0939801B0939901E0913C02E1
:100D0000F0913D02309739F063E070E08091A401EA
:100D10009091A50109950E94B304FF91EF91BF91B5
:100D2000AF919F918F917F916F915F914F913F9183
:100D30002F910F900FBE0F901F9018951F920F923A
:100D40000FB60F9211242F933F934F935F936F939E
:100D50007F938F939F93AF93BF93EF93FF932091D4
:100D60009401309195014091840050918500C90112
:100D7000032E000CAA0BBB0BDC019927882760E02F
:100D800070E0842B952BA62BB72B80939601909324
:100D90009701A0939801B0939901B09B1BC040911B
:100DA000840050918500C9010196092E000CAA0B00
:100DB000BB0BDC019927882760E070E0842B952B22
:100DC000A62BB72B8093960190939701A09398013F
:100DD000B0939901E0913E02F0913F02309739F0D3
:100DE00064E070E08091A6019091A70109950E94AE
:100DF000B304FF91EF91BF91AF919F918F917F913C
:100E00006F915F914F913F912F910F900FBE0F9077
:100E10001F9018951F920F920FB60F9211242F93C7
:100E20003F934F935F936F937F938F939F93AF9372
:100E3000BF93EF93FF9320919401309195014091DE
:100E4000840050918500C901032E000CAA0BBB0B36
:100E5000DC019927882760E070E0842B952BA62B76
:100E6000B72B8093960190939701A0939801B0932C
:100E70009901B09B1BC04091840050918500C9012D
:100E80000196092E000CAA0BBB0BDC0199278827C1
:100E900060E070E0842B952BA62BB72B80939601F6
:100EA00090939701A0939801B0939901E09140022B
:100EB000F0914102309739F065E070E08091A8012F
:100EC0009091A90109950E94B304FF91EF91BF9100
:100ED000AF919F918F917F916F915F914F913F91D2
:100EE0002F910F900FBE0F901F9018951F920F9289
:100EF0000FB60F9211242F933F934F935F936F93ED
:100F00007F938F939F93AF93BF93EF93FF93209122
:100F10009401309195014091840050918500C90160
:100F2000032E000CAA0BBB0BDC019927882760E07D
:100F300070E0842B952BA62BB72B80939601909372
:100F40009701A0939801B0939901B09B1BC0409169
:100F5000840050918500C9010196092E000CAA0B4E
:100F6000BB0BDC019927882760E070E0842B952B70
:100F7000A62BB72B8093960190939701A09398018D
:100F8000B0939901E0914202F0914302309739F019
:100F900066E070E08091AA019091AB0109950E94F2
:100FA000B304FF91EF91BF91AF919F918F917F918A
:100FB0006F915F914F913F912F910F900FBE0F90C6
:100FC0001F9018951F920F920FB60F9211242F9316
:100FD0003F934F935F936F937F938F939F93AF93C1
:100FE000BF93EF93FF93209194013091950140912D
:100FF000840050918500C901032E000CAA0BBB0B85
:10100000DC019927882760E070E0842B952BA62BC4
:10101000B72B8093960190939701A0939801B0937A
:101020009901B09B1BC04091840050918500C9017B
:101030000196092E000CAA0BBB0BDC01992788270F
:1010400060E070E0842B952BA62BB72B8093960144
:1010500090939701A0939801B0939901E091440275
:10106000F0914502309739F067E070E08091AC0173
:101070009091AD0109950E94B304FF91EF91BF914A
:10108000AF919F918F917F916F915F914F913F9120
:101090002F910F900FBE0F901F9018951F920F92D7
:1010A0000FB60F9211242F933F934F935F936F933B
:1010B0007F938F939F93AF93BF93EF93FF93209171
:1010C0009401309195014091840050918500C901AF
:1010D000032E000CAA0BBB0BDC019927882760E0CC
:1010E00070E0842B952BA62BB72B809396019093C1
:1010F0009701A0939801B0939901B09B1BC04091B8
:10110000840050918500C9010196092E000CAA0B9C
:10111000BB0BDC019927882760E070E0842B952BBE
:10112000A62BB72B8093960190939701A0939801DB
:10113000B0939901E0914602F0914702309739F05F
:1011400068E070E08091AE019091AF0109950E9436
:10115000B304FF91EF91BF91AF919F918F917F91D8
:101160006F915F914F913F912F910F900FBE0F9014
:101170001F9018951F920F920FB60F9211242F9364
:101180003F934F935F936F937F938F939F93AF930F
:10119000BF93EF93FF93209194013091950140917B
:1011A000840050918500C901032E000CAA0BBB0BD3
:1011B000DC019927882760E070E0842B952BA62B13
:1011C000B72B8093960190939701A0939801B093C9
:1011D0009901B09B1BC04091840050918500C901CA
:1011E0000196092E000CAA0BBB0BDC01992788275E
:1011F00060E070E0842B952BA62BB72B8093960193
:1012000090939701A0939801B0939901E0914802BF
:10121000F0914902309739F069E070E08091B001B7
:101220009091B10109950E94B304FF91EF91BF9194
:10123000AF919F918F917F916F915F914F913F916E
:101240002F910F900FBE0F901F9018951F920F9225
:101250000FB60F9211242F933F934F935F936F9389
:101260007F938F939F93AF93BF93EF93FF932091BF
:101270009401309195014091840050918500C901FD
:10128000032E000CAA0BBB0BDC019927882760E01A
:1012900070E0842B952BA62BB72B8093960190930F
:1012A0009701A0939801B0939901B09B1BC0409106
:1012B000840050918500C9010196092E000CAA0BEB
:1012C000BB0BDC019927882760E070E0842B952B0D
:1012D000A62BB72B8093960190939701A09398012A
:1012E000B0939901E0914A02F0914B02309739F0A6
:1012F0006AE070E08091B2019091B30109950E947B
:10130000B304FF91EF91BF91AF919F918F917F9126
:101310006F915F914F913F912F910F900FBE0F9062
:101320001F9018951F920F920FB60F9211242F93B2
:101330003F934F935F936F937F938F939F93AF935D
:10134000BF93EF93FF9320919401309195014091C9
:10135000840050918500C901032E000CAA0BBB0B21
:10136000DC019927882760E070E0842B952BA62B61
:10137000B72B8093960190939701A0939801B09317
:101380009901B09B1BC04091840050918500C90118
:101390000196092E000CAA0BBB0BDC0199278827AC
:1013A00060E070E0842B952BA62BB72B80939601E1
:1013B00090939701A0939801B0939901E0914C020A
:1013C000F0914D02309739F06BE070E08091B401FC
:1013D0009091B50109950E94B304FF91EF91BF91DF
:1013E000AF919F918F917F916F915F914F913F91BD
:1013F0002F910F900FBE0F901F9018951F920F9274
:101400000FB60F9211242F933F934F935F936F93D7
:101410007F938F939F93AF93BF93EF93FF9320910D
:101420009401309195014091840050918500C9014B
:10143000032E000CAA0BBB0BDC019927882760E068
:1014400070E0842B952BA62BB72B8093960190935D
:101450009701A0939801B0939901B09B1BC0409154
:10146000840050918500C9010196092E000CAA0B39
:10147000BB0BDC019927882760E070E0842B952B5B
:10148000A62BB72B8093960190939701A093980178
:10149000B0939901E0914E02F0914F02309739F0EC
:1014A0006CE070E08091B6019091B70109950E94BF
:1014B000B304FF91EF91BF91AF919F918F917F9175
:1014C0006F915F914F913F912F910F900FBE0F90B1
:1014D0001F9018951F920F920FB60F9211242F9301
:1014E0003F934F935F936F937F938F939F93AF93AC
:1014F000BF93EF93FF932091940130919501409118
:10150000840050918500C901032E000CAA0BBB0B6F
:10151000DC019927882760E070E0842B952BA62BAF
:10152000B72B8093960190939701A0939801B09365
:101530009901B09B1BC04091840050918500C90166
:101540000196092E000CAA0BBB0BDC0199278827FA
:1015500060E070E0842B952BA62BB72B809396012F
:1015600090939701A0939801B0939901E091500254
:10157000F0915102309739F06DE070E08091B80140
:101580009091B90109950E94B304FF91EF91BF9129
:10159000AF919F918F917F916F915F914F913F910B
:1015A0002F910F900FBE0F901F9018951F920F92C2
:1015B0000FB60F9211242F933F934F935F936F9326
:1015C0007F938F939F93AF93BF93EF93FF9320915C
:1015D0009401309195014091840050918500C9019A
:1015E000032E000CAA0BBB0BDC019927882760E0B7
:1015F00070E0842B952BA62BB72B809396019093AC
:101600009701A0939801B0939901B09B1BC04091A2
:10161000840050918500C9010196092E000CAA0B87
:10162000BB0BDC019927882760E070E0842B952BA9
:10163000A62BB72B8093960190939701A0939801C6
:10164000B0939901E0915202F0915302309739F032
:101650006EE070E08091BA019091BB0109950E9403
:10166000B304FF91EF91BF91AF919F918F917F91C3
:101670006F915F914F913F912F910F900FBE0F90FF
:101680001F9018951F920F920FB60F9211242F934F
:101690003F934F935F936F937F938F939F93AF93FA
:1016A000BF93EF93FF932091940130919501409166
:1016B000840050918500C901032E000CAA0BBB0BBE
:1016C000DC019927882760E070E0842B952BA62BFE
:1016D000B72B8093960190939701A0939801B093B4
:1016E0009901B09B1BC04091840050918500C901B5
:1016F0000196092E000CAA0BBB0BDC019927882749
:1017000060E070E0842B952BA62BB72B809396017D
:1017100090939701A0939801B0939901E09154029E
:10172000F0915502309739F06FE070E08091BC0184
:101730009091BD0109950E94B304FF91EF91BF9173
:10174000AF919F918F917F916F915F914F913F9159
:101750002F910F900FBE0F901F9018951F920F9210
:101760000FB60F9211242F933F934F935F936F9374
:101770007F938F939F93AF93BF93EF93FF932091AA
:101780009401309195014091840050918500C901E8
:10179000032E000CAA0BBB0BDC019927882760E005
:1017A00070E0842B952BA62BB72B809396019093FA
:1017B0009701A0939801B0939901B09B1BC04091F1
:1017C000840050918500C9010196092E000CAA0BD6
:1017D000BB0BDC019927882760E070E0842B952BF8
:1017E000A62BB72B8093960190939701A093980115
:1017F000B0939901E0915602F0915702309739F079
:1018000060E170E08091BE019091BF0109950E9456
:10181000B304FF91EF91BF91AF919F918F917F9111
:101820006F915F914F913F912F910F900FBE0F904D
:101830001F9018951F920F920FB60F9211242F939D
:101840003F934F935F936F937F938F939F93AF9348
:10185000BF93EF93FF9320919401309195014091B4
:10186000840050918500C901032E000CAA0BBB0B0C
:10187000DC019927882760E070E0842B952BA62B4C
:10188000B72B8093960190939701A0939801B09302
:101890009901B09B1BC04091840050918500C90103
:1018A0000196092E000CAA0BBB0BDC019927882797
:1018B00060E070E0842B952BA62BB72B80939601CC
:1018C00090939701A0939801B0939901E0915802E9
:1018D000F0915902309739F061E170E08091C001D8
:1018E0009091C10109950E94B304FF91EF91BF91BE
:1018F000AF919F918F917F916F915F914F913F91A8
:101900002F910F900FBE0F901F901895EF92FF929E
:101910000F931F93CF93DF937B01EB01A881B981D4
:10192000109761F1FC01068117812085318516969B
:101930004D915D916D917C911997041715072607BC
:10194000370714F41BC0DF01ED91FC91119730971C
:1019500049F0468157816085718504171507260770
:1019600037078CF7EC01F983E883109721F4F7012E
:101970009183808307C08D939C9304C0EC01B9834D
:10198000A883F5CFDF91CF911F910F91FF90EF903A
:101990000895EF92FF920F931F93CF93DF937B01F4
:1019A000EB01A881B981109761F1FC0102811381DB
:1019B0002481358112964D915D916D917C911597A1
:1019C000041715072607370714F41BC0DF01ED9134
:1019D000FC911197309749F0428153816481758160
:1019E00004171507260737078CF7EC01F983E883FE
:1019F000109721F4F7019183808307C08D939C9306
:101A000004C0EC01B983A883F5CFDF91CF911F917A
:101A10000F91FF90EF900895DC01ED91FC911197EB
:101A2000309759F48FEF8093EC008093ED00809312
:101A3000EE0081E083BF8895FDCF208131812D9319
:101A40003C93CF0108951F920F920FB60F9211246D
:101A50002F933F934F935F936F937F938F939F93B6
:101A6000EF93FF938091940190919501019690934B
:101A7000950180939401E0919A01F0919B01309738
:101A800001F1428153816481758186179707C9F4FA
:101A9000CA012091840030918500421B530B4130D4
:101AA000510529F4809184009091850001969093CE
:101AB000890080938800EFE6F0E080818260808377
:101AC00005C0EFE6F0E080818D7F8083FF91EF918C
:101AD0009F918F917F916F915F914F913F912F9146
:101AE0000F900FBE0F901F9018951F920F920FB678
:101AF0000F921124CF92DF92EF92FF922F933F9398
:101B00004F935F936F937F938F939F93AF93BF9305
:101B1000EF93FF93C0909401D090950120918400A1
:101B200030918500B0990FC00D2C000CEE08FF0815
:101B3000D601992788276901E12CF12CC82AD92AD6
:101B4000EA2AFB2A15C020918400309185008FEF8E
:101B5000C81AD80A0D2C000CEE08FF08D6019927E8
:101B600088276901E12CF12CC82AD92AEA2AFB2A04
:101B7000E0919A01F0919B01309709F442C0828173
:101B80009381A481B5818C199D09AE09BF091816EE
:101B900019061A061B06ECF18AE991E00E940C0D69
:101BA0006CE971E00E94860CE0919A01F0919B0132
:101BB000309739F182819381A481B5818C199D0977
:101BC000AE09BF09181619061A061B062CF721C004
:101BD0009C014091840050918500841B950B0197D6
:101BE00031F420918400309185002F5F3F4F309376
:101BF000890020938800EFE6F0E080818260808396
:101C000005C0EFE6F0E080818D7F80830E94B30401
:101C10000CC082819381A481B5812091940130917F
:101C200095012A173B0769F7D3CFFF91EF91BF9139
:101C3000AF919F918F917F916F915F914F913F9164
:101C40002F91FF90EF90DF90CF900F900FBE0F90ED
:101C50001F9018953F924F925F926F927F928F9252
:101C60009F92AF92BF92CF92DF92EF92FF920F932B
:101C70001F93CF93DF932B013C0149015A018FB78A
:101C80008078382EF89482E891E00E940C0DEC01E7
:101C90001B870A87FD86EC86DF86CE86332061F0BF
:101CA000E0917C01F0917D010280F381E02D828141
:101CB0009381A481B58108C080919601909197018C
:101CC000A0919801B0919901480E591E6A1E7B1E81
:101CD0004A825B826C827D82181419041A041B04E8
:101CE00044F00F2E88248A94982CA82CFFE7BF2E4E
:101CF000F02D840C951CA61CB71C8E829F82A88692
:101D0000B986809194019091950140918400509101
:101D10008500B0990EC0092E000CAA0BBB0BDC018C
:101D20009927882760E070E0842B952BA62BB72B92
:101D300013C020918400309185000196092E000C7B
:101D4000AA0BBB0BDC0199278827A90160E070E092
:101D5000842B952BA62BB72B481A590A6A0A7B0AA3
:101D60001414150416041704ACF56AE971E0CE01E9
:101D70000E94C90CE0919A01F0919B01309721F1EA
:101D800082819381A481B581209194013091950144
:101D90002A173B07C9F49C014091840050918500AB
:101DA000841B950B019731F42091840030918500BC
:101DB0002F5F3F4F3093890020938800EFE6F0E0DB
:101DC00080818260808341C0EFE6F0E080818D7F7A
:101DD00080833BC06CE971E0CE010E94860C332009
:101DE000B9F18091800190918101009781F1E0919A
:101DF0007E01F0917F0120919C0130919D01028133
:101E00001381D90116964D915D916D917C91199731
:101E1000D80116960D911D912D913C911997401B5B
:101E2000510B620B730B9AF4DC012D913C911197CD
:101E30003093810120938001ED93FC9390937F0177
:101E400080937E010E94930402C0332009F07894AD
:101E5000CE01DF91CF911F910F91FF90EF90DF9016
:101E6000CF90BF90AF909F908F907F906F905F903A
:101E70004F903F900895CF92DF92EF92FF920F9391
:101E80001F93CF93DF93EC017B016A011FB710789A
:101E9000F894A881B981109761F11496ED91FC91A5
:101EA0001597309741F0A081B1811496ED91FC9186
:101EB00015973097C1F720917C0130917D012A1749
:101EC0003B0721F0112309F43DC007C0112309F499
:101ED0003CC078948FEF9FEF52C08A819B8100971E
:101EE000D1F1FC011582148236C0789480E090E034
:101EF00046C080917C0190917D0199838883112354
:101F000029F08A819B81019709F07894B601CE016E
:101F1000F7010995F82E092F8FB7F89419821882C6
:101F20008A819B818230910538F01B821A82FC01E4
:101F3000158214820E949304112351F078948F2DFE
:101F4000902F1DC08FEF9FEF1AC08FEF9FEF17C02C
:101F50008F2D902F14C03B832A83F901D583C4832E
:101F6000CD010E949304E0917C01F0917D0182817A
:101F70009381892B09F4B9CFF983E883C2CFDF912C
:101F8000CF911F910F91FF90EF90DF90CF90089528
:101F900000917C0110917D018CE991E00E940C0D73
:101FA000EC01D80113969C938E93129778944E85EA
:101FB0005F856C857D858A859B850E943B0F8FB7E9
:101FC000F894809182019091830199838883D093C2
:101FD0008301C0938201E0917E01F0917F01008135
:101FE0001181E8012A813B81A0919C01B0919D0162
:101FF0001097C1F02115310559F216968D919D91DA
:102000000D90BC91A02DE9014E815F816885798595
:10201000841B950BA60BB70B181619061A061B0680
:102020000CF0B6CF10937F0100937E018091800168
:102030009091810191838083F0938101E0938001ED
:10204000A0917E01B0917F011496ED91FC911597BE
:10205000309741F0A081B1811496ED91FC911597D4
:102060003097C1F7CD010E94930492CF1F93CF9375
:10207000DF93EC011FB71078F8946AE971E00E94D1
:10208000FC03892B39F46CE971E0CE010E94FC035A
:10209000892B59F0809182019091830199838883E3
:1020A000D0938301C09382012BC0E0917E01F09117
:1020B0007F01309729F120917C0130917D012E170D
:1020C0003F07C9F082819381C817D907A1F44481E1
:1020D00055818A859B854817590769F413821282B6
:1020E000809182019091830199838883D0938301A9
:1020F000C093820105C00190F081E02D3097F9F680
:10210000112309F07894DF91CF911F910895423106
:10211000B8F42FB7F89450E0440F551FFA01E25677
:10212000FE4F91838083FA01EA5CFD4F71836083E7
:1021300041E050E0FC015383428322230CF4789465
:1021400008958C017B016A018FB7F8940E942804DE
:102150007894E114F10441F020E030E0A90160E05E
:1021600070E0CB010E942A0E8FB7F8940E94B3044E
:10217000789481E083BF8895FDCF97FB072E16F4F6
:10218000009407D077FD09D00E94F61007FC05D017
:102190003EF4909581959F4F0895709561957F4F7E
:1021A0000895052E97FB1EF400940E94E81057FD39
:1021B00007D00E940A1107FC03D04EF40C94E810DB
:1021C00050954095309521953F4F4F4F5F4F089563
:1021D00090958095709561957F4F8F4F9F4F089593
:1021E000EE0FFF1F0590F491E02D0994AA1BBB1B75
:1021F00051E107C0AA1FBB1FA617B70710F0A61B07
:10220000B70B881F991F5A95A9F780959095BC0127
:10221000CD010895A1E21A2EAA1BBB1BFD010DC022
:10222000AA1FBB1FEE1FFF1FA217B307E407F50786
:1022300020F0A21BB30BE40BF50B661F771F881F62
:10224000991F1A9469F760957095809590959B01F8
:10225000AC01BD01CF010895DC012D923D924D925C
:102260005D926D927D928D929D92AD92BD92CD9236
:10227000DD92ED92FD920D931D93CD93DD93FF9131
:10228000EF918DB78D938EB78D938FB78D93ED931F
:10229000FD93882799270994DC01CB0181309105B2
:1022A000811D2D903D904D905D906D907D908D9015
:1022B0009D90AD90BD90CD90DD90ED90FD900D91F5
:1022C0001D91CD91DD91ED91FD910D90F894FEBFA2
:0E22D0000FBEEDBFED91FD910994F894FFCF84
:1022DE00010005000B000100010005000F000100C8
:1022EE000100010001000000010004000F000100C8
:1022FE00010004000B000100000005000B000000AF
:10230E00010001000B000100010001000E000100A0
:10231E0000000100010000000100050005000100A1
:10232E00000000005601000000006E016001000078
:10233E0000000000060000009001000000000000F8
:10234E000000040000009001000000005A025A0232
:08235E00C201770234003500D2
:00000001FF
