S00C00006C6162342E73726563B5
S11300000C9438000C9453040C94BF040C942B05EA
S11300100C9497050C9403060C9455000C94DA0C7C
S11300200C9455000C94880C0C946F060C94DB060D
S11300300C9447070C94B3070C941F080C948B087A
S11300400C94F7080C9463090C94CF090C943B0AA4
S11300500C94A70A0C94130B0C947F0B8C006E0069
S11300607100740077007A007D00800083008600B0
S113007011241FBECFEFD4E0DEBFCDBF11E0A0E05E
S1130080B1E0E6EBF0E202C005900D92A438B107AE
S1130090D9F724E0A4E8B1E001C01D92AF3DB20756
S11300A0E1F70E945A030C9459100C9400008FE05D
S11300B08093E70087EB8093E50087E08093E60078
S11300C080EC8093E400089590E0FC01F097EA301E
S11300D0F105F8F4E25DFF4F0C94F00F80E491E039
S11300E0089588E391E0089580E391E0089588E21B
S11300F091E0089580E291E0089588E191E0089507
S113010080E191E0089588E091E0089580E091E035
S1130110089584E891E0089588E491E00895CF93E8
S1130120663008F0E4C0C62F0E946400FC01C230AF
S113013009F467C028F4CC2351F0C13029F1D7C0A9
S1130140C33009F47BC0C43009F4B5C0D0C0ACEEF0
S1130150B0E08C91807F9081892B8C93A1EFB0E0EB
S11301608C91807F9281892B8C93A6EFB0E08C9147
S1130170807F9481892B8C93ABEFB0E08C91807F4E
S11301809681892B8C93B3C0ACEEB0E02C91808126
S1130190918182959295907F9827807F9827922FBE
S11301A09F70892B8C93A1EFB0E02C918281938175
S11301B082959295907F9827807F9827922F9F70A1
S11301C0892B8C93A6EFB0E02C9184819581829544
S11301D09295907F9827807F9827922F9F70892BE4
S11301E08C93ABEFB0E02C918681978182959295A8
S11301F0907F9827807F9827922F9F70892B8C93CC
S113020076C0ADEEB0E08C91807F9081892B8C9389
S1130210A2EFB0E08C91807F9281892B8C93A7EF21
S1130220B0E08C91807F9481892B8C93ACEFB0E00B
S11302308C91807F9681892B8C9359C0ADEEB0E070
S11302402C918081918182959295907F9827807FCF
S11302509827922F9F70892B8C93A2EFB0E02C915A
S11302608281938182959295907F9827807F9827A9
S1130270922F9F70892B8C93A7EFB0E02C918481EF
S1130280958182959295907F9827807F9827922FC9
S11302909F70892B8C93ACEFB0E02C918681978171
S11302A082959295907F9827807F9827922F9F70B0
S11302B0892B8C931CC0AEEEB0E08C91807F908132
S11302C0892B8C93A3EFB0E08C91807F9281892B52
S11302D08C93A8EFB0E08C91807F9481892B8C93D0
S11302E0ADEFB0E08C91807F9681892B8C93CF9178
S11302F008958F929F92AF92BF92CF92DF92EF9226
S1130300FF92CF93DF934B015C01EA0124E630E0D6
S113031040E050E00E94D10F0F2EFAE0CF2ED12CF6
S1130320E12CF12CF02DA70196010E94D10F6C2F26
S113033080E3820F0E948F002196C501B401A701BA
S113034096010E94D10F862F6C2F805D0E948F0032
S1130350DF91CF91FF90EF90DF90CF90BF90AF905F
S11303609F908F900895FC0120853185848195812B
S11303702817390731F4ECEEF0E080818460808343
S11303800895ECEEF0E08081806480830895EF921C
S1130390FF920F931F93CF93DF93EC0140E050E063
S11303A069E873E08C819D810E94A00E7C0140E08D
S11303B050E069E873E08E819F810E94A00E8C0159
S11303C0B701FF0C880B990B40E050E00E947901C3
S11303D0B801110F880B990B43E050E00E9479019A
S11303E0CE010E94B301DF91CF911F910F91FF9035
S11303F0EF900895CF92DF92EF92FF920F931F93A5
S1130400FC012481358131872087C12CD12C0F2E0A
S1130410F7ECEF2EF1E0FF2EF02D8C0120E030E020
S1130420A90160E070E0CB010E948F0D1F910F9134
S1130430FF90EF90DF90CF900895CF92DF92EF92EC
S1130440FF920F931F93FC01268137813187208708
S1130450C12CD12C0F2EF7ECEF2EF1E0FF2EF02D56
S11304608C0120E030E0A90160E070E0CB010E9443
S11304708F0D1F910F91FF90EF90DF90CF90089513
S1130480CF92DF92EF92FF920F931F93CF93DF935C
S11304908C01EB0140E050E069E873E0FC018085E9
S11304A091850E94A00EAC014C0F5D1F552314F4DE
S11304B040E050E069E773E0F801808591850E948F
S11304C0A00EC12CD12C0F2EF7ECEF2EF1E0FF2E55
S11304D0F02D20E030E0A90160E070E0CB010E9443
S11304E08F0DDF91CF911F910F91FF90EF90DF90CF
S11304F0CF900895CF92DF92EF92FF920F931F93C4
S1130500CF93DF93EC0140E050E069E873E0888525
S113051099850E94A00E892B49F440E050E063E8DD
S113052073E0888599850E94A00E10C040E050E0D9
S11305306DE773E0888599850E94A00E40E050E045
S113054069E773E0888599850E94A00EC12CD12C9F
S11305500F2EF7ECEF2EF1E0FF2EF02D8E0120E0B0
S113056030E0A90160E070E0CB010E948F0DDF91C3
S1130570CF911F910F91FF90EF90DF90CF9008954E
S1130580CF92DF92EF92FF920F931F93CF93DF935B
S11305901F991BC0EC01C12CD12C0F2EF0ECEF2EB7
S11305A0F2E0FF2EF02D8C0120E030E0A90165E39C
S11305B07CE080E090E00E948F0D4FEF5FEF60E4FD
S11305C072E08C819D810E94A00EDF91CF911F91DA
S11305D00F91FF90EF90DF90CF900895CF92DF922C
S11305E0EF92FF920F931F93CF93DF931E991BC03B
S11305F0EC01C12CD12C0F2EFEEEEF2EF2E0FF2EDB
S1130600F02D8C0120E030E0A90165E37CE080E07E
S113061090E00E948F0D41E050E060E472E08C8134
S11306209D810E94A00EDF91CF911F910F91FF90A9
S1130630EF90DF90CF90089585B1806D85B98EB12C
S11306408C608EB98DB3806C8DBBECE6F0E080815C
S1130650806D8083EBE6F0E080818C608083089578
S1130660CF93DF93EC011F9B0E94C0021E9903C02D
S1130670CE010E94EE021C9904C08C819D810E94CF
S11306807A02629904C08C819D810E94FA01639967
S113069004C08C819D810E941D02DF91CF91089539
S11306A0E1E6F0E080E88083108208958DB18065F2
S11306B08DB908950E9450030E9456030E941C03A2
S11306C00E94570041E060E373E080E591E00E94FE
S11306D09B0F42E060E373E080E591E00E949B0F92
S11306E040E050E060E070E086E591E00E94B50FE4
S11306F00895FC01718760870895FC012085318588
S1130700338722870895FC0122853385318720872A
S11307100895FC01808591850895CF93DF9300D0DF
S113072000D0CDB7DEB78FE792E02FE533E0FC01D0
S1130730709791838083409682179307C1F7109234
S1130740500310924F03EAEBF1E087ED91E09183BF
S1130750808384EF91E0968F858FA1E1B2E0B3AFFF
S1130760A2AF1D921C92FA83E983EBEBF3E0FC83C6
S1130770EB8389819A8106960E9418108B819C8153
S1130780E981FA81978B868B918F808F8DE29FE030
S1130790948F838F158214827D96FA83E983EB818B
S11307A0FC81E05AFF4FFC83EB8389819A818E524E
S11307B09240F9F6E2E5F2E0118210821582148289
S11307C013821282E1E6F0E080E8808310821092C6
S11307D085001092840084E08093810081E08093FE
S11307E06F000F900F900F900F90DF91CF910895AD
S11307F0CF93DF9300D0CDB7DEB79A8389838091FE
S11308007C0190917D0106960E941810892B59F461
S113081089819A8190937D0180937C0161E070E0ED
S113082006960E9438100F900F90DF91CF91089593
S11308300F931F93CF93DF93E0919401F09195016F
S1130840309761F18091800190918101009731F19D
S1130850C0917E01D0917F01AA81BB81109779F06C
S1130860468157816085718516960D911D912D9154
S11308703C911997401B510B620B730B7AF4FC01EA
S1130880208131813093810120938001D183C08301
S113089090937F0180937E010E94F803DF91CF91B2
S11308A01F910F9108951F920F920FB60F9211246A
S11308B02F933F934F935F936F937F938F939F9364
S11308C0AF93BF93EF93FF9320918C0130918D01EF
S11308D04091840050918500C901032E000CAA0B9D
S11308E0BB0BDC019927882760E070E0842B952BF3
S11308F0A62BB72B80938E0190938F01A093900128
S1130900B0939101B09B1BC040918400509185002D
S1130910C9010196092E000CAA0BBB0BDC01992717
S1130920882760E070E0842B952BA62BB72B80934F
S11309308E0190938F01A0939001B0939101E09167
S11309402E02F0912F02309739F060E070E0809130
S113095096019091970109950E941804FF91EF91D7
S1130960BF91AF919F918F917F916F915F914F91C3
S11309703F912F910F900FBE0F901F9018951F92CB
S11309800F920FB60F9211242F933F934F935F93BF
S11309906F937F938F939F93AF93BF93EF93FF9343
S11309A020918C0130918D014091840050918500FB
S11309B0C901032E000CAA0BBB0BDC019927882765
S11309C060E070E0842B952BA62BB72B80938E01CF
S11309D090938F01A0939001B0939101B09B1BC0A1
S11309E04091840050918500C9010196092E000CA4
S11309F0AA0BBB0BDC019927882760E070E0842BED
S1130A00952BA62BB72B80938E0190938F01A093E7
S1130A109001B0939101E0913002F091310230974E
S1130A2039F061E070E08091980190919901099505
S1130A300E941804FF91EF91BF91AF919F918F9104
S1130A407F916F915F914F913F912F910F900FBEC6
S1130A500F901F9018951F920F920FB60F921124AA
S1130A602F933F934F935F936F937F938F939F93B2
S1130A70AF93BF93EF93FF9320918C0130918D013D
S1130A804091840050918500C901032E000CAA0BEB
S1130A90BB0BDC019927882760E070E0842B952B41
S1130AA0A62BB72B80938E0190938F01A093900176
S1130AB0B0939101B09B1BC040918400509185007C
S1130AC0C9010196092E000CAA0BBB0BDC01992766
S1130AD0882760E070E0842B952BA62BB72B80939E
S1130AE08E0190938F01A0939001B0939101E091B6
S1130AF03202F0913302309739F062E070E0809175
S1130B009A0190919B0109950E941804FF91EF911D
S1130B10BF91AF919F918F917F916F915F914F9111
S1130B203F912F910F900FBE0F901F9018951F9219
S1130B300F920FB60F9211242F933F934F935F930D
S1130B406F937F938F939F93AF93BF93EF93FF9391
S1130B5020918C0130918D01409184005091850049
S1130B60C901032E000CAA0BBB0BDC0199278827B3
S1130B7060E070E0842B952BA62BB72B80938E011D
S1130B8090938F01A0939001B0939101B09B1BC0EF
S1130B904091840050918500C9010196092E000CF2
S1130BA0AA0BBB0BDC019927882760E070E0842B3B
S1130BB0952BA62BB72B80938E0190938F01A09336
S1130BC09001B0939101E0913402F0913502309795
S1130BD039F063E070E080919C0190919D0109954A
S1130BE00E941804FF91EF91BF91AF919F918F9153
S1130BF07F916F915F914F913F912F910F900FBE15
S1130C000F901F9018951F920F920FB60F921124F8
S1130C102F933F934F935F936F937F938F939F9300
S1130C20AF93BF93EF93FF9320918C0130918D018B
S1130C304091840050918500C901032E000CAA0B39
S1130C40BB0BDC019927882760E070E0842B952B8F
S1130C50A62BB72B80938E0190938F01A0939001C4
S1130C60B0939101B09B1BC04091840050918500CA
S1130C70C9010196092E000CAA0BBB0BDC019927B4
S1130C80882760E070E0842B952BA62BB72B8093EC
S1130C908E0190938F01A0939001B0939101E09104
S1130CA03602F0913702309739F064E070E08091B9
S1130CB09E0190919F0109950E941804FF91EF9164
S1130CC0BF91AF919F918F917F916F915F914F9160
S1130CD03F912F910F900FBE0F901F9018951F9268
S1130CE00F920FB60F9211242F933F934F935F935C
S1130CF06F937F938F939F93AF93BF93EF93FF93E0
S1130D0020918C0130918D01409184005091850097
S1130D10C901032E000CAA0BBB0BDC019927882701
S1130D2060E070E0842B952BA62BB72B80938E016B
S1130D3090938F01A0939001B0939101B09B1BC03D
S1130D404091840050918500C9010196092E000C40
S1130D50AA0BBB0BDC019927882760E070E0842B89
S1130D60952BA62BB72B80938E0190938F01A09384
S1130D709001B0939101E0913802F09139023097DB
S1130D8039F065E070E08091A0019091A10109958E
S1130D900E941804FF91EF91BF91AF919F918F91A1
S1130DA07F916F915F914F913F912F910F900FBE63
S1130DB00F901F9018951F920F920FB60F92112447
S1130DC02F933F934F935F936F937F938F939F934F
S1130DD0AF93BF93EF93FF9320918C0130918D01DA
S1130DE04091840050918500C901032E000CAA0B88
S1130DF0BB0BDC019927882760E070E0842B952BDE
S1130E00A62BB72B80938E0190938F01A093900112
S1130E10B0939101B09B1BC0409184005091850018
S1130E20C9010196092E000CAA0BBB0BDC01992702
S1130E30882760E070E0842B952BA62BB72B80933A
S1130E408E0190938F01A0939001B0939101E09152
S1130E503A02F0913B02309739F066E070E08091FD
S1130E60A2019091A30109950E941804FF91EF91AA
S1130E70BF91AF919F918F917F916F915F914F91AE
S1130E803F912F910F900FBE0F901F9018951F92B6
S1130E900F920FB60F9211242F933F934F935F93AA
S1130EA06F937F938F939F93AF93BF93EF93FF932E
S1130EB020918C0130918D014091840050918500E6
S1130EC0C901032E000CAA0BBB0BDC019927882750
S1130ED060E070E0842B952BA62BB72B80938E01BA
S1130EE090938F01A0939001B0939101B09B1BC08C
S1130EF04091840050918500C9010196092E000C8F
S1130F00AA0BBB0BDC019927882760E070E0842BD7
S1130F10952BA62BB72B80938E0190938F01A093D2
S1130F209001B0939101E0913C02F0913D02309721
S1130F3039F067E070E08091A4019091A5010995D2
S1130F400E941804FF91EF91BF91AF919F918F91EF
S1130F507F916F915F914F913F912F910F900FBEB1
S1130F600F901F9018951F920F920FB60F92112495
S1130F702F933F934F935F936F937F938F939F939D
S1130F80AF93BF93EF93FF9320918C0130918D0128
S1130F904091840050918500C901032E000CAA0BD6
S1130FA0BB0BDC019927882760E070E0842B952B2C
S1130FB0A62BB72B80938E0190938F01A093900161
S1130FC0B0939101B09B1BC0409184005091850067
S1130FD0C9010196092E000CAA0BBB0BDC01992751
S1130FE0882760E070E0842B952BA62BB72B809389
S1130FF08E0190938F01A0939001B0939101E091A1
S11310003E02F0913F02309739F068E070E0809141
S1131010A6019091A70109950E941804FF91EF91F0
S1131020BF91AF919F918F917F916F915F914F91FC
S11310303F912F910F900FBE0F901F9018951F9204
S11310400F920FB60F9211242F933F934F935F93F8
S11310506F937F938F939F93AF93BF93EF93FF937C
S113106020918C0130918D01409184005091850034
S1131070C901032E000CAA0BBB0BDC01992788279E
S113108060E070E0842B952BA62BB72B80938E0108
S113109090938F01A0939001B0939101B09B1BC0DA
S11310A04091840050918500C9010196092E000CDD
S11310B0AA0BBB0BDC019927882760E070E0842B26
S11310C0952BA62BB72B80938E0190938F01A09321
S11310D09001B0939101E0914002F0914102309768
S11310E039F069E070E08091A8019091A901099517
S11310F00E941804FF91EF91BF91AF919F918F913E
S11311007F916F915F914F913F912F910F900FBEFF
S11311100F901F9018951F920F920FB60F921124E3
S11311202F933F934F935F936F937F938F939F93EB
S1131130AF93BF93EF93FF9320918C0130918D0176
S11311404091840050918500C901032E000CAA0B24
S1131150BB0BDC019927882760E070E0842B952B7A
S1131160A62BB72B80938E0190938F01A0939001AF
S1131170B0939101B09B1BC04091840050918500B5
S1131180C9010196092E000CAA0BBB0BDC0199279F
S1131190882760E070E0842B952BA62BB72B8093D7
S11311A08E0190938F01A0939001B0939101E091EF
S11311B04202F0914302309739F06AE070E0809186
S11311C0AA019091AB0109950E941804FF91EF9137
S11311D0BF91AF919F918F917F916F915F914F914B
S11311E03F912F910F900FBE0F901F9018951F9253
S11311F00F920FB60F9211242F933F934F935F9347
S11312006F937F938F939F93AF93BF93EF93FF93CA
S113121020918C0130918D01409184005091850082
S1131220C901032E000CAA0BBB0BDC0199278827EC
S113123060E070E0842B952BA62BB72B80938E0156
S113124090938F01A0939001B0939101B09B1BC028
S11312504091840050918500C9010196092E000C2B
S1131260AA0BBB0BDC019927882760E070E0842B74
S1131270952BA62BB72B80938E0190938F01A0936F
S11312809001B0939101E0914402F09145023097AE
S113129039F06BE070E08091AC019091AD0109955B
S11312A00E941804FF91EF91BF91AF919F918F918C
S11312B07F916F915F914F913F912F910F900FBE4E
S11312C00F901F9018951F920F920FB60F92112432
S11312D02F933F934F935F936F937F938F939F933A
S11312E0AF93BF93EF93FF9320918C0130918D01C5
S11312F04091840050918500C901032E000CAA0B73
S1131300BB0BDC019927882760E070E0842B952BC8
S1131310A62BB72B80938E0190938F01A0939001FD
S1131320B0939101B09B1BC0409184005091850003
S1131330C9010196092E000CAA0BBB0BDC019927ED
S1131340882760E070E0842B952BA62BB72B809325
S11313508E0190938F01A0939001B0939101E0913D
S11313604602F0914702309739F06CE070E08091CA
S1131370AE019091AF0109950E941804FF91EF917D
S1131380BF91AF919F918F917F916F915F914F9199
S11313903F912F910F900FBE0F901F9018951F92A1
S11313A00F920FB60F9211242F933F934F935F9395
S11313B06F937F938F939F93AF93BF93EF93FF9319
S11313C020918C0130918D014091840050918500D1
S11313D0C901032E000CAA0BBB0BDC01992788273B
S11313E060E070E0842B952BA62BB72B80938E01A5
S11313F090938F01A0939001B0939101B09B1BC077
S11314004091840050918500C9010196092E000C79
S1131410AA0BBB0BDC019927882760E070E0842BC2
S1131420952BA62BB72B80938E0190938F01A093BD
S11314309001B0939101E0914802F09149023097F4
S113144039F06DE070E08091B0019091B10109959F
S11314500E941804FF91EF91BF91AF919F918F91DA
S11314607F916F915F914F913F912F910F900FBE9C
S11314700F901F9018951F920F920FB60F92112480
S11314802F933F934F935F936F937F938F939F9388
S1131490AF93BF93EF93FF9320918C0130918D0113
S11314A04091840050918500C901032E000CAA0BC1
S11314B0BB0BDC019927882760E070E0842B952B17
S11314C0A62BB72B80938E0190938F01A09390014C
S11314D0B0939101B09B1BC0409184005091850052
S11314E0C9010196092E000CAA0BBB0BDC0199273C
S11314F0882760E070E0842B952BA62BB72B809374
S11315008E0190938F01A0939001B0939101E0918B
S11315104A02F0914B02309739F06EE070E080910E
S1131520B2019091B30109950E941804FF91EF91C3
S1131530BF91AF919F918F917F916F915F914F91E7
S11315403F912F910F900FBE0F901F9018951F92EF
S11315500F920FB60F9211242F933F934F935F93E3
S11315606F937F938F939F93AF93BF93EF93FF9367
S113157020918C0130918D0140918400509185001F
S1131580C901032E000CAA0BBB0BDC019927882789
S113159060E070E0842B952BA62BB72B80938E01F3
S11315A090938F01A0939001B0939101B09B1BC0C5
S11315B04091840050918500C9010196092E000CC8
S11315C0AA0BBB0BDC019927882760E070E0842B11
S11315D0952BA62BB72B80938E0190938F01A0930C
S11315E09001B0939101E0914C02F0914D0230973B
S11315F039F06FE070E08091B4019091B5010995E4
S11316000E941804FF91EF91BF91AF919F918F9128
S11316107F916F915F914F913F912F910F900FBEEA
S11316200F901F9018951F920F920FB60F921124CE
S11316302F933F934F935F936F937F938F939F93D6
S1131640AF93BF93EF93FF9320918C0130918D0161
S11316504091840050918500C901032E000CAA0B0F
S1131660BB0BDC019927882760E070E0842B952B65
S1131670A62BB72B80938E0190938F01A09390019A
S1131680B0939101B09B1BC04091840050918500A0
S1131690C9010196092E000CAA0BBB0BDC0199278A
S11316A0882760E070E0842B952BA62BB72B8093C2
S11316B08E0190938F01A0939001B0939101E091DA
S11316C04E02F0914F02309739F060E170E0809162
S11316D0B6019091B70109950E941804FF91EF910A
S11316E0BF91AF919F918F917F916F915F914F9136
S11316F03F912F910F900FBE0F901F9018951F923E
S11317000F920FB60F9211242F933F934F935F9331
S11317106F937F938F939F93AF93BF93EF93FF93B5
S113172020918C0130918D0140918400509185006D
S1131730C901032E000CAA0BBB0BDC0199278827D7
S113174060E070E0842B952BA62BB72B80938E0141
S113175090938F01A0939001B0939101B09B1BC013
S11317604091840050918500C9010196092E000C16
S1131770AA0BBB0BDC019927882760E070E0842B5F
S1131780952BA62BB72B80938E0190938F01A0935A
S11317909001B0939101E0915002F0915102309781
S11317A039F061E170E08091B8019091B901099537
S11317B00E941804FF91EF91BF91AF919F918F9177
S11317C07F916F915F914F913F912F910F900FBE39
S11317D00F901F901895EF92FF920F931F93CF9342
S11317E0DF937B01EB01A881B981109761F1FC01C2
S11317F0068117812085318516964D915D916D91F5
S11318007C911997041715072607370714F41BC092
S1131810DF01ED91FC911197309749F04681578192
S11318206085718504171507260737078CF7EC01C7
S1131830F983E883109721F4F7019183808307C02B
S11318408D939C9304C0EC01B983A883F5CFDF91F9
S1131850CF911F910F91FF90EF900895EF92FF9217
S11318600F931F93CF93DF937B01EB01A881B98181
S1131870109761F1FC010281138124813581129654
S11318804D915D916D917C9115970417150726076D
S1131890370714F41BC0DF01ED91FC9111973097C9
S11318A049F0428153816481758104171507260725
S11318B037078CF7EC01F983E883109721F4F701DB
S11318C09183808307C08D939C9304C0EC01B983FA
S11318D0A883F5CFDF91CF911F910F91FF90EF90E7
S11318E00895DC01ED91FC911197309759F48FEF35
S11318F08093EC008093ED008093EE0081E083BF41
S11319008895FDCF208131812D933C93CF0108959B
S11319101F920F920FB60F9211242F933F934F9360
S11319205F936F937F938F939F93EF93FF93809134
S11319308C0190918D01019690938D0180938C017F
S1131940E0919201F0919301309701F1428153812A
S11319506481758186179707C9F4CA0120918400B0
S113196030918500421B530B4130510529F480917D
S1131970840090918500019690938900809388005B
S1131980EFE6F0E080818260808305C0EFE6F0E05E
S113199080818D7F8083FF91EF919F918F917F91C3
S11319A06F915F914F913F912F910F900FBE0F90C8
S11319B01F9018951F920F920FB60F921124CF9279
S11319C0DF92EF92FF922F933F934F935F936F9326
S11319D07F938F939F93AF93BF93EF93FF93C090A5
S11319E08C01D0908D012091840030918500B099B4
S11319F00FC00D2C000CEE08FF08D601992788278C
S1131A006901E12CF12CC82AD92AEA2AFB2A15C03B
S1131A1020918400309185008FEFC81AD80A0D2CCC
S1131A20000CEE08FF08D601992788276901E12CEC
S1131A30F12CC82AD92AEA2AFB2AE0919201F091D2
S1131A409301309709F442C082819381A481B581C6
S1131A508C199D09AE09BF09181619061A061B062A
S1131A60ECF182E991E00E94710C64E971E00E945A
S1131A70EB0BE0919201F0919301309739F182815F
S1131A809381A481B5818C199D09AE09BF091816EB
S1131A9019061A061B062CF721C09C0140918400EC
S1131AA050918500841B950B019731F4209184009B
S1131AB0309185002F5F3F4F309389002093880039
S1131AC0EFE6F0E080818260808305C0EFE6F0E01D
S1131AD080818D7F80830E9418040CC08281938151
S1131AE0A481B58120918C0130918D012A173B0787
S1131AF069F7D3CFFF91EF91BF91AF919F918F91F0
S1131B007F916F915F914F913F912F91FF90EF9053
S1131B10DF90CF900F900FBE0F901F9018953F92BB
S1131B204F925F926F927F928F929F92AF92BF92E9
S1131B30CF92DF92EF92FF920F931F93CF93DF9395
S1131B402B013C0149015A018FB78078382EF89453
S1131B5082E891E00E94710CEC011B870A87FD86E4
S1131B60EC86DF86CE86332061F0E0917C01F09133
S1131B707D010280F381E02D82819381A481B5816E
S1131B8008C080918E0190918F01A0919001B09135
S1131B909101480E591E6A1E7B1E4A825B826C822A
S1131BA07D82181419041A041B0444F00F2E88248F
S1131BB08A94982CA82CFFE7BF2EF02D840C951C3A
S1131BC0A61CB71C8E829F82A886B98680918C0140
S1131BD090918D014091840050918500B0990EC080
S1131BE0092E000CAA0BBB0BDC019927882760E0A7
S1131BF070E0842B952BA62BB72B13C02091840067
S1131C00309185000196092E000CAA0BBB0BDC0158
S1131C1099278827A90160E070E0842B952BA62BD7
S1131C20B72B481A590A6A0A7B0A141415041604B5
S1131C301704ACF562E971E0CE010E942E0CE0912C
S1131C409201F0919301309721F182819381A481D3
S1131C50B58120918C0130918D012A173B07C9F47D
S1131C609C014091840050918500841B950B019741
S1131C7031F420918400309185002F5F3F4F3093E1
S1131C80890020938800EFE6F0E080818260808301
S1131C9041C0EFE6F0E080818D7F80833BC064E942
S1131CA071E0CE010E94EB0B3320B9F180918001E9
S1131CB090918101009781F1E0917E01F0917F0183
S1131CC0209194013091950102811381D9011696D6
S1131CD04D915D916D917C911997D80116960D9156
S1131CE01D912D913C911997401B510B620B730B65
S1131CF09AF4DC012D913C9111973093810120934A
S1131D008001ED93FC9390937F0180937E010E9468
S1131D10F80302C0332009F07894CE01DF91CF910B
S1131D201F910F91FF90EF90DF90CF90BF90AF90F5
S1131D309F908F907F906F905F904F903F90089509
S1131D40CF92DF92EF92FF920F931F93CF93DF9383
S1131D50EC017B016A011FB71078F894A881B9815E
S1131D60109761F11496ED91FC911597309741F01D
S1131D70A081B1811496ED91FC9115973097C1F72C
S1131D8020917C0130917D012A173B0721F011231A
S1131D9009F43DC007C0112309F43CC078948FEFC7
S1131DA09FEF52C08A819B810097D1F1FC0115827B
S1131DB0148236C0789480E090E046C080917C0123
S1131DC090917D0199838883112329F08A819B81D5
S1131DD0019709F07894B601CE01F7010995F82E20
S1131DE0092F8FB7F894198218828A819B818230D7
S1131DF0910538F01B821A82FC01158214820E941C
S1131E00F803112351F078948F2D902F1DC08FEF7C
S1131E109FEF1AC08FEF9FEF17C08F2D902F14C024
S1131E203B832A83F901D583C483CD010E94F8033F
S1131E30E0917C01F0917D0182819381892B09F4E9
S1131E40B9CFF983E883C2CFDF91CF911F910F916E
S1131E50FF90EF90DF90CF90089500917C01109156
S1131E607D0184E991E00E94710CEC01D801139684
S1131E709C938E93129778944E855F856C857D85AF
S1131E808A859B850E94A00E8FB7F8948091820169
S1131E909091830199838883D0938301C0938201B5
S1131EA0E0917E01F0917F0100811181E8012A8196
S1131EB03B81A0919401B09195011097C1F0211537
S1131EC0310559F216968D919D910D90BC91A02DDE
S1131ED0E9014E815F8168857985841B950BA60B8A
S1131EE0B70B181619061A061B060CF0B6CF10937A
S1131EF07F0100937E018091800190918101918303
S1131F008083F0938101E0938001A0917E01B091E0
S1131F107F011496ED91FC911597309741F0A081C3
S1131F20B1811496ED91FC9115973097C1F7CD01CD
S1131F300E94F80392CF4231B8F42FB7F89450E0DE
S1131F40440F551FFA01EA56FE4F91838083FA012C
S1131F50E25DFD4F7183608341E050E0FC015383F7
S1131F60428322230CF4789408958C017B016A0146
S1131F708FB7F8940E948D037894E114F10441F032
S1131F8020E030E0A90160E070E0CB010E948F0DF9
S1131F908FB7F8940E941804789481E083BF8895E1
S1131FA0FDCF052E97FB1EF400940E94E80F57FD09
S1131FB007D00E94F60F07FC03D04EF40C94E80FF0
S1131FC050954095309521953F4F4F4F5F4F089561
S1131FD090958095709561957F4F8F4F9F4F089591
S1131FE0EE0FFF1F0590F491E02D0994A1E21A2E43
S1131FF0AA1BBB1BFD010DC0AA1FBB1FEE1FFF1FA9
S1132000A217B307E407F50720F0A21BB30BE40BF8
S1132010F50B661F771F881F991F1A9469F760953F
S11320207095809590959B01AC01BD01CF010895F9
S1132030DC012D923D924D925D926D927D928D9236
S11320409D92AD92BD92CD92DD92ED92FD920D9353
S11320501D93CD93DD93FF91EF918DB78D938EB743
S11320608D938FB78D93ED93FD93882799270994CA
S1132070DC01CB0181309105811D2D903D904D9067
S11320805D906D907D908D909D90AD90BD90CD9024
S1132090DD90ED90FD900D911D91CD91DD91ED912F
S11320A0FD910D90F894FEBF0FBEEDBFED91FD9133
S10920B00994F894FFCF2F
S11320B6010005000B000100010005000F000100EE
S11320C60100010001000000010004000F000100EE
S11320D6010004000B000100000005000B000000D5
S11320E6010001000B000100010001000E000100C7
S11320F600000100010000000100050005000100C8
S1132106000000005601000000006E0160016E012F
S113211600000000060000000000000000000000AF
S113212600000400000000000000000052025202F9
S1072136BA016F0275
S9030000FC
