:100000000C942E000C9423050C948F050C94FB0586
:100010000C9467060C94D3060C944B000C94AA0D18
:100020000C944B000C94580D0C943F070C94AB07A8
:100030000C9417080C9483080C94EF080C945B093B
:100040000C94C7090C94330A0C949F0A0C940B0B64
:100050000C94770B0C94E30B0C944F0C11241FBEE3
:10006000CFEFD4E0DEBFCDBF11E0A0E0B1E0ECE324
:10007000F3E202C005900D92A833B107D9F724E04E
:10008000A8E3B1E001C01D92AF38B207E1F70E94CA
:1000900021030C949C110C9400008FE08093E700E6
:1000A00087EB8093E50087E08093E60080EC809307
:1000B000E4000895653008F0EAC0623009F46BC0CE
:1000C00028F4662351F0613039F10895633009F462
:1000D00081C0643009F4BDC00895ACEEB0E08C91ED
:1000E000807FE0E0F0E09081892B8C93A1EFB0E07D
:1000F0008C91807F9281892B8C93A6EFB0E08C91BC
:10010000807F9481892B8C93ABEFB0E08C91807FC2
:100110009681892B8C930895ACEEB0E02C91E0E0B1
:10012000F0E08081918182959295907F9827807FE1
:100130009827922F9F70892B8C93A1EFB0E02C9180
:100140008281938182959295907F9827807F9827CE
:10015000922F9F70892B8C93A6EFB0E02C91848115
:10016000958182959295907F9827807F9827922FEE
:100170009F70892B8C93ABEFB0E02C918681978197
:1001800082959295907F9827807F9827922F9F70D5
:10019000892B8C930895ADEEB0E08C91807FE0E0E8
:1001A000F0E09081892B8C93A2EFB0E08C91807F5E
:1001B0009281892B8C93A7EFB0E08C91807F948102
:1001C000892B8C93ACEFB0E08C91807F9681892B4A
:1001D0008C930895ADEEB0E02C91E0E0F0E08081EA
:1001E000918182959295907F9827807F9827922F72
:1001F0009F70892B8C93A2EFB0E02C918281938128
:1002000082959295907F9827807F9827922F9F7054
:10021000892B8C93A7EFB0E02C91848195818295F6
:100220009295907F9827807F9827922F9F70892B97
:100230008C93ACEFB0E02C9186819781829592955A
:10024000907F9827807F9827922F9F70892B8C937F
:100250000895AEEEB0E08C91807FE0E0F0E0908118
:10026000892B8C93A3EFB0E08C91807F9281892BB6
:100270008C93A8EFB0E08C91807F9481892B8C9334
:10028000ADEFB0E08C91807F9681892B8C9308959F
:100290008F929F92AF92BF92CF92DF92EF92FF9296
:1002A000CF93DF934B015C01EA0124E630E040E0AC
:1002B00050E00E9406110F2EFAE0CF2ED12CE12C37
:1002C000F12CF02DA70196010E9406116C2F80E3FE
:1002D000820F0E945A002196C501B401A701960120
:1002E0000E940611862F6C2F805D0E945A00DF91BC
:1002F000CF91FF90EF90DF90CF90BF90AF909F9005
:100300008F900895CF93DF93EC016A857B85072E4C
:10031000000C880B990B40E050E00E9448016C856E
:100320007D85072E000C880B990B43E050E00E945E
:100330004801DF91CF910895CF92DF92EF92FF9223
:100340000F931F93FC0171876087C12CD12C0F2E56
:10035000F2E8EF2EF1E0FF2EF02D8C0120E030E0EE
:10036000A90160E070E0CB010E945F0E1F910F9128
:10037000FF90EF90DF90CF900895CF92DF92EF92B1
:10038000FF920F931F93CF93DF93EC01888599859C
:10039000009781F00E811F81F801C084D184C60EC0
:1003A000D71EDD2014F4C12CD12C009771F00197D9
:1003B00079F010C00C811D81F801C084D184C60E73
:1003C000D71EDD2014F4C12CD12CDB86CA8602C0D6
:1003D000DD86CC860F2EFDEAEF2EF3E0FF2EF02D0A
:1003E00020E030E0A90160E070E0CB010E945F0EE8
:1003F000C12CD12C0F2EF2E8EF2EF1E0FF2EF02DC4
:100400008E0120E030E0A90160E070E0CB010E94A5
:100410005F0EDF91CF911F910F91FF90EF90DF90D2
:10042000CF900895AF92BF92CF92DF92EF92FF925A
:100430000F931F93CF93DF93EC0188859985892BC8
:1004400019F0AE80BF8002C0AC80BD80F501808510
:100450009185892B91F4C12CD12C0F2EFBE2EF2E2C
:10046000F4E0FF2EF02D850120E030E0A90160E0EE
:1004700070E0CB010E945F0E1FC0C12CD12C0F2E4B
:10048000F5E2EF2EF4E0FF2EF02D850120E030E0C4
:10049000A90160E070E0CB010E945F0E0F2EFDEA23
:1004A000EF2EF3E0FF2EF02D20E030E0A90160E018
:1004B00070E0CB010E945F0EC12CD12C0F2EF2E810
:1004C000EF2EF1E0FF2EF02D8E0120E030E0A901AB
:1004D00060E070E0CB010E945F0EDF91CF911F9131
:1004E0000F91FF90EF90DF90CF90BF90AF90089565
:1004F00085B1806D85B98EB18C608EB98DB3806CFD
:100500008DBBECE6F0E08081806D8083EBE6F0E06F
:1005100080818C6080830895CF92DF92EF92FF926A
:100520000F931F93CF93DF93EC011F9913C00C819E
:100530001D81CC24CA94DC2C0F2EFDEBEF2EF1E0B4
:10054000FF2EF02D20E030E0A90160E070E0CB014B
:100550000E945F0E1E9913C00C811D81CC24C39490
:10056000D12C0F2EFDEBEF2EF1E0FF2EF02D20E031
:1005700030E0A90160E070E0CB010E945F0E1C99A1
:1005800012C00C811D81C12CD12C0F2EF2E1EF2E57
:10059000F2E0FF2EF02D20E030E0A90160E070E0F5
:1005A000CB010E945F0EDF91CF911F910F91FF90C1
:1005B000EF90DF90CF900895CF92DF92EF92FF926D
:1005C0000F931F93CF93DF93EC01629912C00C81BC
:1005D0001D81C12CD12C0F2EFCE9EF2EF1E0FF2E56
:1005E000F02D20E030E0A90160E070E0CB010E9436
:1005F0005F0E639913C00C811D81CC24C394D12C50
:100600000F2EFCE9EF2EF1E0FF2EF02D20E030E080
:10061000A90160E070E0CB010E945F0EDF91CF91F5
:100620001F910F91FF90EF90DF90CF900895E1E63A
:10063000F0E080E88083108208958DB180658DB9E7
:1006400008950E9417030E941D030E9478020E94D1
:100650004D0042E06CE872E080E091E00E94BC1046
:1006600041E06CED72E080E091E00E94BC1040E05F
:1006700050E060E070E086E091E00E94D6100895BE
:10068000452B59F02EB181E090E002C0880F991FF0
:100690006A95E2F7822B8EB908952EB181E090E041
:1006A00002C0880F991F6A95E2F7809582238EB960
:1006B0000895CF92DF92EF92FF920F931F93CF9303
:1006C000DF93EC0181E09D81911180E08D839C811D
:1006D000C82ED12C092E02C0CC0CDD1C0A94E2F7E6
:1006E000C92A0C851D850F2EF0E4EF2EF3E0FF2EB6
:1006F000F02D20E030E0A90160E070E0CB010E9425
:100700005F0E6885798516161706F4F488EE93E077
:100710000E94F210772314F46F5F7F4F75956795F1
:10072000072E000C880B990BC12CD12C0F2EF9E54C
:10073000EF2EF3E0FF2EF02D8E0120E030E0A90136
:100740000E945F0E9F838E83DF91CF911F910F9147
:10075000FF90EF90DF90CF900895AF92BF92CF922D
:10076000DF92EF92FF920F931F93CF93DF93FC01E1
:10077000208531852617370709F45CC05B01EC0141
:1007800086819781009711F00E946B10B986A88628
:100790001A141B04ECF581E08D838C8121E030E09C
:1007A0006901082E02C0CC0CDD1C0A94E2F7C82AAD
:1007B0000C851D850F2EF0E4EF2EF3E0FF2EF02DBB
:1007C00020E030E0A90160E070E0CB010E945F0E04
:1007D00088EE93E0B5010E94F210772314F46F5F66
:1007E0007F4F75956795072E000C880B990BC12CD0
:1007F000D12C0F2EF9E5EF2EF3E0FF2EF02D8E0118
:1008000020E030E0A9010E945F0E9F838E8312C01A
:10081000CC80D12C0C851D850F2EF0E4EF2EF3E05B
:10082000FF2EF02D20E030E0A90160E070E0CB0168
:100830000E945F0EDF91CF911F910F91FF90EF907B
:10084000DF90CF90BF90AF900895FC012085318557
:10085000338722870895FC012285338531872087DD
:100860000895FB01A081B1811097F1F0A817B90795
:1008700011F411C0DF01ED91FC9111973097B9F09F
:100880008E179F07B9F716C0808191818D939C9335
:1008900081E090E00895FD0180819181FB019183C9
:1008A000808381E090E0089580E090E0089580E00A
:1008B00090E00895109741F7EFCFCF93DF9300D0EA
:1008C00000D0CDB7DEB78FE292E02FE033E0FC013D
:1008D000709791838083409682179307C1F7109297
:1008E00000031092FF02EAE6F1E087E891E09183CD
:1008F000808384EA91E0968F858FA1ECB1E0B3AF5D
:10090000A2AF1D921C92FA83E983EBE6F3E0FC832D
:10091000EB8389819A8106960E945B118B819C8171
:10092000E981FA81978B868B918F808F8DEF9FE085
:10093000948F838F158214827D96FA83E983EB81ED
:10094000FC81E05AFF4FFC83EB8389819A818E5DA5
:100950009140F9F6E2E0F2E01182108215821482F1
:1009600013821282E1E6F0E080E880831082109228
:1009700085001092840084E08093810081E0809360
:100980006F000F900F900F900F90DF91CF9108950F
:10099000CF93DF9300D0CDB7DEB79A838983809160
:1009A00030019091310106960E945B11892B59F418
:1009B00089819A81909331018093300161E070E0E8
:1009C00006960E947B110F900F90DF91CF910895B2
:1009D0000F931F93CF93DF93E0914401F091450172
:1009E000309761F18091340190913501009731F198
:1009F000C0913201D0913301AA81BB81109779F067
:100A0000468157816085718516960D911D912D91B6
:100A10003C911997401B510B620B730B7AF4FC014C
:100A2000208131813093350120933401D183C083FB
:100A300090933301809332010E94C804DF91CF91DB
:100A40001F910F9108951F920F920FB60F921124CC
:100A50002F933F934F935F936F937F938F939F93C6
:100A6000AF93BF93EF93FF9320913C0130913D01F1
:100A70004091840050918500C901032E000CAA0BFF
:100A8000BB0BDC019927882760E070E0842B952B55
:100A9000A62BB72B80933E0190933F01A09340017A
:100AA000B0934101B09B1BC04091840050918500E0
:100AB000C9010196092E000CAA0BBB0BDC0199277A
:100AC000882760E070E0842B952BA62BB72B8093B2
:100AD0003E0190933F01A0934001B0934101E0910A
:100AE000DE01F091DF01309739F060E070E0809135
:100AF00046019091470109950E94E804FF91EF910A
:100B0000BF91AF919F918F917F916F915F914F9125
:100B10003F912F910F900FBE0F901F9018951F922D
:100B20000F920FB60F9211242F933F934F935F9321
:100B30006F937F938F939F93AF93BF93EF93FF93A5
:100B400020913C0130913D014091840050918500FD
:100B5000C901032E000CAA0BBB0BDC0199278827C7
:100B600060E070E0842B952BA62BB72B80933E0181
:100B700090933F01A0934001B0934101B09B1BC0F3
:100B80004091840050918500C9010196092E000C06
:100B9000AA0BBB0BDC019927882760E070E0842B4F
:100BA000952BA62BB72B80933E0190933F01A093EA
:100BB0004001B0934101E091E001F091E1013097F3
:100BC00039F061E070E08091480190914901099508
:100BD0000E94E804FF91EF91BF91AF919F918F9197
:100BE0007F916F915F914F913F912F910F900FBE29
:100BF0000F901F9018951F920F920FB60F9211240D
:100C00002F933F934F935F936F937F938F939F9314
:100C1000AF93BF93EF93FF9320913C0130913D013F
:100C20004091840050918500C901032E000CAA0B4D
:100C3000BB0BDC019927882760E070E0842B952BA3
:100C4000A62BB72B80933E0190933F01A0934001C8
:100C5000B0934101B09B1BC040918400509185002E
:100C6000C9010196092E000CAA0BBB0BDC019927C8
:100C7000882760E070E0842B952BA62BB72B809300
:100C80003E0190933F01A0934001B0934101E09158
:100C9000E201F091E301309739F062E070E0809179
:100CA0004A0190914B0109950E94E804FF91EF9150
:100CB000BF91AF919F918F917F916F915F914F9174
:100CC0003F912F910F900FBE0F901F9018951F927C
:100CD0000F920FB60F9211242F933F934F935F9370
:100CE0006F937F938F939F93AF93BF93EF93FF93F4
:100CF00020913C0130913D0140918400509185004C
:100D0000C901032E000CAA0BBB0BDC019927882715
:100D100060E070E0842B952BA62BB72B80933E01CF
:100D200090933F01A0934001B0934101B09B1BC041
:100D30004091840050918500C9010196092E000C54
:100D4000AA0BBB0BDC019927882760E070E0842B9D
:100D5000952BA62BB72B80933E0190933F01A09338
:100D60004001B0934101E091E401F091E501309739
:100D700039F063E070E080914C0190914D0109954C
:100D80000E94E804FF91EF91BF91AF919F918F91E5
:100D90007F916F915F914F913F912F910F900FBE77
:100DA0000F901F9018951F920F920FB60F9211245B
:100DB0002F933F934F935F936F937F938F939F9363
:100DC000AF93BF93EF93FF9320913C0130913D018E
:100DD0004091840050918500C901032E000CAA0B9C
:100DE000BB0BDC019927882760E070E0842B952BF2
:100DF000A62BB72B80933E0190933F01A093400117
:100E0000B0934101B09B1BC040918400509185007C
:100E1000C9010196092E000CAA0BBB0BDC01992716
:100E2000882760E070E0842B952BA62BB72B80934E
:100E30003E0190933F01A0934001B0934101E091A6
:100E4000E601F091E701309739F064E070E08091BD
:100E50004E0190914F0109950E94E804FF91EF9196
:100E6000BF91AF919F918F917F916F915F914F91C2
:100E70003F912F910F900FBE0F901F9018951F92CA
:100E80000F920FB60F9211242F933F934F935F93BE
:100E90006F937F938F939F93AF93BF93EF93FF9342
:100EA00020913C0130913D0140918400509185009A
:100EB000C901032E000CAA0BBB0BDC019927882764
:100EC00060E070E0842B952BA62BB72B80933E011E
:100ED00090933F01A0934001B0934101B09B1BC090
:100EE0004091840050918500C9010196092E000CA3
:100EF000AA0BBB0BDC019927882760E070E0842BEC
:100F0000952BA62BB72B80933E0190933F01A09386
:100F10004001B0934101E091E801F091E90130977F
:100F200039F065E070E08091500190915101099590
:100F30000E94E804FF91EF91BF91AF919F918F9133
:100F40007F916F915F914F913F912F910F900FBEC5
:100F50000F901F9018951F920F920FB60F921124A9
:100F60002F933F934F935F936F937F938F939F93B1
:100F7000AF93BF93EF93FF9320913C0130913D01DC
:100F80004091840050918500C901032E000CAA0BEA
:100F9000BB0BDC019927882760E070E0842B952B40
:100FA000A62BB72B80933E0190933F01A093400165
:100FB000B0934101B09B1BC04091840050918500CB
:100FC000C9010196092E000CAA0BBB0BDC01992765
:100FD000882760E070E0842B952BA62BB72B80939D
:100FE0003E0190933F01A0934001B0934101E091F5
:100FF000EA01F091EB01309739F066E070E0809102
:1010000052019091530109950E94E804FF91EF91DC
:10101000BF91AF919F918F917F916F915F914F9110
:101020003F912F910F900FBE0F901F9018951F9218
:101030000F920FB60F9211242F933F934F935F930C
:101040006F937F938F939F93AF93BF93EF93FF9390
:1010500020913C0130913D014091840050918500E8
:10106000C901032E000CAA0BBB0BDC0199278827B2
:1010700060E070E0842B952BA62BB72B80933E016C
:1010800090933F01A0934001B0934101B09B1BC0DE
:101090004091840050918500C9010196092E000CF1
:1010A000AA0BBB0BDC019927882760E070E0842B3A
:1010B000952BA62BB72B80933E0190933F01A093D5
:1010C0004001B0934101E091EC01F091ED013097C6
:1010D00039F067E070E080915401909155010995D5
:1010E0000E94E804FF91EF91BF91AF919F918F9182
:1010F0007F916F915F914F913F912F910F900FBE14
:101100000F901F9018951F920F920FB60F921124F7
:101110002F933F934F935F936F937F938F939F93FF
:10112000AF93BF93EF93FF9320913C0130913D012A
:101130004091840050918500C901032E000CAA0B38
:10114000BB0BDC019927882760E070E0842B952B8E
:10115000A62BB72B80933E0190933F01A0934001B3
:10116000B0934101B09B1BC0409184005091850019
:10117000C9010196092E000CAA0BBB0BDC019927B3
:10118000882760E070E0842B952BA62BB72B8093EB
:101190003E0190933F01A0934001B0934101E09143
:1011A000EE01F091EF01309739F068E070E0809146
:1011B00056019091570109950E94E804FF91EF9123
:1011C000BF91AF919F918F917F916F915F914F915F
:1011D0003F912F910F900FBE0F901F9018951F9267
:1011E0000F920FB60F9211242F933F934F935F935B
:1011F0006F937F938F939F93AF93BF93EF93FF93DF
:1012000020913C0130913D01409184005091850036
:10121000C901032E000CAA0BBB0BDC019927882700
:1012200060E070E0842B952BA62BB72B80933E01BA
:1012300090933F01A0934001B0934101B09B1BC02C
:101240004091840050918500C9010196092E000C3F
:10125000AA0BBB0BDC019927882760E070E0842B88
:10126000952BA62BB72B80933E0190933F01A09323
:101270004001B0934101E091F001F091F10130970C
:1012800039F069E070E08091580190915901099519
:101290000E94E804FF91EF91BF91AF919F918F91D0
:1012A0007F916F915F914F913F912F910F900FBE62
:1012B0000F901F9018951F920F920FB60F92112446
:1012C0002F933F934F935F936F937F938F939F934E
:1012D000AF93BF93EF93FF9320913C0130913D0179
:1012E0004091840050918500C901032E000CAA0B87
:1012F000BB0BDC019927882760E070E0842B952BDD
:10130000A62BB72B80933E0190933F01A093400101
:10131000B0934101B09B1BC0409184005091850067
:10132000C9010196092E000CAA0BBB0BDC01992701
:10133000882760E070E0842B952BA62BB72B809339
:101340003E0190933F01A0934001B0934101E09191
:10135000F201F091F301309739F06AE070E080918A
:101360005A0190915B0109950E94E804FF91EF9169
:10137000BF91AF919F918F917F916F915F914F91AD
:101380003F912F910F900FBE0F901F9018951F92B5
:101390000F920FB60F9211242F933F934F935F93A9
:1013A0006F937F938F939F93AF93BF93EF93FF932D
:1013B00020913C0130913D01409184005091850085
:1013C000C901032E000CAA0BBB0BDC01992788274F
:1013D00060E070E0842B952BA62BB72B80933E0109
:1013E00090933F01A0934001B0934101B09B1BC07B
:1013F0004091840050918500C9010196092E000C8E
:10140000AA0BBB0BDC019927882760E070E0842BD6
:10141000952BA62BB72B80933E0190933F01A09371
:101420004001B0934101E091F401F091F501309752
:1014300039F06BE070E080915C0190915D0109955D
:101440000E94E804FF91EF91BF91AF919F918F911E
:101450007F916F915F914F913F912F910F900FBEB0
:101460000F901F9018951F920F920FB60F92112494
:101470002F933F934F935F936F937F938F939F939C
:10148000AF93BF93EF93FF9320913C0130913D01C7
:101490004091840050918500C901032E000CAA0BD5
:1014A000BB0BDC019927882760E070E0842B952B2B
:1014B000A62BB72B80933E0190933F01A093400150
:1014C000B0934101B09B1BC04091840050918500B6
:1014D000C9010196092E000CAA0BBB0BDC01992750
:1014E000882760E070E0842B952BA62BB72B809388
:1014F0003E0190933F01A0934001B0934101E091E0
:10150000F601F091F701309739F06CE070E08091CE
:101510005E0190915F0109950E94E804FF91EF91AF
:10152000BF91AF919F918F917F916F915F914F91FB
:101530003F912F910F900FBE0F901F9018951F9203
:101540000F920FB60F9211242F933F934F935F93F7
:101550006F937F938F939F93AF93BF93EF93FF937B
:1015600020913C0130913D014091840050918500D3
:10157000C901032E000CAA0BBB0BDC01992788279D
:1015800060E070E0842B952BA62BB72B80933E0157
:1015900090933F01A0934001B0934101B09B1BC0C9
:1015A0004091840050918500C9010196092E000CDC
:1015B000AA0BBB0BDC019927882760E070E0842B25
:1015C000952BA62BB72B80933E0190933F01A093C0
:1015D0004001B0934101E091F801F091F901309799
:1015E00039F06DE070E080916001909161010995A2
:1015F0000E94E804FF91EF91BF91AF919F918F916D
:101600007F916F915F914F913F912F910F900FBEFE
:101610000F901F9018951F920F920FB60F921124E2
:101620002F933F934F935F936F937F938F939F93EA
:10163000AF93BF93EF93FF9320913C0130913D0115
:101640004091840050918500C901032E000CAA0B23
:10165000BB0BDC019927882760E070E0842B952B79
:10166000A62BB72B80933E0190933F01A09340019E
:10167000B0934101B09B1BC0409184005091850004
:10168000C9010196092E000CAA0BBB0BDC0199279E
:10169000882760E070E0842B952BA62BB72B8093D6
:1016A0003E0190933F01A0934001B0934101E0912E
:1016B000FA01F091FB01309739F06EE070E0809113
:1016C00062019091630109950E94E804FF91EF91F6
:1016D000BF91AF919F918F917F916F915F914F914A
:1016E0003F912F910F900FBE0F901F9018951F9252
:1016F0000F920FB60F9211242F933F934F935F9346
:101700006F937F938F939F93AF93BF93EF93FF93C9
:1017100020913C0130913D01409184005091850021
:10172000C901032E000CAA0BBB0BDC0199278827EB
:1017300060E070E0842B952BA62BB72B80933E01A5
:1017400090933F01A0934001B0934101B09B1BC017
:101750004091840050918500C9010196092E000C2A
:10176000AA0BBB0BDC019927882760E070E0842B73
:10177000952BA62BB72B80933E0190933F01A0930E
:101780004001B0934101E091FC01F091FD013097DF
:1017900039F06FE070E080916401909165010995E6
:1017A0000E94E804FF91EF91BF91AF919F918F91BB
:1017B0007F916F915F914F913F912F910F900FBE4D
:1017C0000F901F9018951F920F920FB60F92112431
:1017D0002F933F934F935F936F937F938F939F9339
:1017E000AF93BF93EF93FF9320913C0130913D0164
:1017F0004091840050918500C901032E000CAA0B72
:10180000BB0BDC019927882760E070E0842B952BC7
:10181000A62BB72B80933E0190933F01A0934001EC
:10182000B0934101B09B1BC0409184005091850052
:10183000C9010196092E000CAA0BBB0BDC019927EC
:10184000882760E070E0842B952BA62BB72B809324
:101850003E0190933F01A0934001B0934101E0917C
:10186000FE01F091FF01309739F060E170E0809166
:1018700066019091670109950E94E804FF91EF913C
:10188000BF91AF919F918F917F916F915F914F9198
:101890003F912F910F900FBE0F901F9018951F92A0
:1018A0000F920FB60F9211242F933F934F935F9394
:1018B0006F937F938F939F93AF93BF93EF93FF9318
:1018C00020913C0130913D01409184005091850070
:1018D000C901032E000CAA0BBB0BDC01992788273A
:1018E00060E070E0842B952BA62BB72B80933E01F4
:1018F00090933F01A0934001B0934101B09B1BC066
:101900004091840050918500C9010196092E000C78
:10191000AA0BBB0BDC019927882760E070E0842BC1
:10192000952BA62BB72B80933E0190933F01A0935C
:101930004001B0934101E0910002F0910102309723
:1019400039F061E170E08091680190916901099539
:101950000E94E804FF91EF91BF91AF919F918F9109
:101960007F916F915F914F913F912F910F900FBE9B
:101970000F901F901895EF92FF920F931F93CF93A4
:10198000DF937B01EB01A881B981109761F1FC0124
:10199000068117812085318516964D915D916D9157
:1019A0007C911997041715072607370714F41BC0F5
:1019B000DF01ED91FC911197309749F046815781F5
:1019C0006085718504171507260737078CF7EC012A
:1019D000F983E883109721F4F7019183808307C08E
:1019E0008D939C9304C0EC01B983A883F5CFDF915C
:1019F000CF911F910F91FF90EF900895EF92FF927A
:101A00000F931F93CF93DF937B01EB01A881B981E3
:101A1000109761F1FC0102811381248135811296B6
:101A20004D915D916D917C911597041715072607CF
:101A3000370714F41BC0DF01ED91FC91119730972B
:101A400049F0428153816481758104171507260787
:101A500037078CF7EC01F983E883109721F4F7013D
:101A60009183808307C08D939C9304C0EC01B9835C
:101A7000A883F5CFDF91CF911F910F91FF90EF9049
:101A80000895DC01ED91FC911197309759F48FEF97
:101A90008093EC008093ED008093EE0081E083BFA3
:101AA0008895FDCF208131812D933C93CF010895FE
:101AB0001F920F920FB60F9211242F933F934F93C3
:101AC0005F936F937F938F939F93EF93FF93809197
:101AD0003C0190913D01019690933D0180933C0122
:101AE000E0914201F0914301309701F1428153812D
:101AF0006481758186179707C9F4CA012091840013
:101B000030918500421B530B4130510529F48091DF
:101B100084009091850001969093890080938800BD
:101B2000EFE6F0E080818260808305C0EFE6F0E0C0
:101B300080818D7F8083FF91EF919F918F917F9125
:101B40006F915F914F913F912F910F900FBE0F902A
:101B50001F9018951F920F920FB60F921124CF92DB
:101B6000DF92EF92FF922F933F934F935F936F9388
:101B70007F938F939F93AF93BF93EF93FF93C09007
:101B80003C01D0903D012091840030918500B099B6
:101B90000FC00D2C000CEE08FF08D60199278827EE
:101BA0006901E12CF12CC82AD92AEA2AFB2A15C09E
:101BB00020918400309185008FEFC81AD80A0D2C2F
:101BC000000CEE08FF08D601992788276901E12C4F
:101BD000F12CC82AD92AEA2AFB2AE0914201F09185
:101BE0004301309709F442C082819381A481B58179
:101BF0008C199D09AE09BF09181619061A061B068D
:101C0000ECF182E491E00E94410D64E471E00E94F5
:101C1000BB0CE0914201F0914301309739F1828190
:101C20009381A481B5818C199D09AE09BF0918164D
:101C300019061A061B062CF721C09C01409184004E
:101C400050918500841B950B019731F420918400FD
:101C5000309185002F5F3F4F30938900209388009B
:101C6000EFE6F0E080818260808305C0EFE6F0E07F
:101C700080818D7F80830E94E8040CC082819381E3
:101C8000A481B58120913C0130913D012A173B0789
:101C900069F7D3CFFF91EF91BF91AF919F918F9152
:101CA0007F916F915F914F913F912F91FF90EF90B6
:101CB000DF90CF900F900FBE0F901F9018953F921E
:101CC0004F925F926F927F928F929F92AF92BF924C
:101CD000CF92DF92EF92FF920F931F93CF93DF93F8
:101CE0002B013C0149015A018FB78078382EF894B6
:101CF00086E391E00E94410DEC011B870A87FD8677
:101D0000EC86DF86CE86332061F0E0913001F091E1
:101D100031010280F381E02D82819381A481B5811C
:101D200008C080913E0190913F01A0914001B09187
:101D30004101480E591E6A1E7B1E4A825B826C82DC
:101D40007D82181419041A041B0444F00F2E8824F1
:101D50008A94982CA82CFFE7BF2EF02D840C951C9C
:101D6000A61CB71C8E829F82A886B98680913C01F2
:101D700090913D014091840050918500B0990EC032
:101D8000092E000CAA0BBB0BDC019927882760E009
:101D900070E0842B952BA62BB72B13C020918400C9
:101DA000309185000196092E000CAA0BBB0BDC01BB
:101DB00099278827A90160E070E0842B952BA62B3A
:101DC000B72B481A590A6A0A7B0A14141504160418
:101DD0001704ACF562E471E0CE010E94FE0CE091C4
:101DE0004201F0914301309721F182819381A481D6
:101DF000B58120913C0130913D012A173B07C9F480
:101E00009C014091840050918500841B950B0197A3
:101E100031F420918400309185002F5F3F4F309343
:101E2000890020938800EFE6F0E080818260808363
:101E300041C0EFE6F0E080818D7F80833BC064E4A9
:101E400071E0CE010E94BB0C3320B9F180913401C6
:101E500090913501009781F1E0913201F0913301C9
:101E6000209144013091450102811381D9011696D8
:101E70004D915D916D917C911997D80116960D91B8
:101E80001D912D913C911997401B510B620B730BC7
:101E90009AF4DC012D913C911197309335012093F8
:101EA0003401ED93FC9390933301809332010E94AF
:101EB000C80402C0332009F07894CE01DF91CF919D
:101EC0001F910F91FF90EF90DF90CF90BF90AF9058
:101ED0009F908F907F906F905F904F903F9008956C
:101EE000CF92DF92EF92FF920F931F93CF93DF93E6
:101EF000EC017B016A011FB71078F894A881B981C1
:101F0000109761F11496ED91FC911597309741F07F
:101F1000A081B1811496ED91FC9115973097C1F78E
:101F200020913001309131012A173B0721F0112314
:101F300009F43DC007C0112309F43CC078948FEF29
:101F40009FEF52C08A819B810097D1F1FC011582DD
:101F5000148236C0789480E090E046C080913001D1
:101F60009091310199838883112329F08A819B8183
:101F7000019709F07894B601CE01F7010995F82E82
:101F8000092F8FB7F894198218828A819B81823039
:101F9000910538F01B821A82FC01158214820E947E
:101FA000C804112351F078948F2D902F1DC08FEF0E
:101FB0009FEF1AC08FEF9FEF17C08F2D902F14C087
:101FC0003B832A83F901D583C483CD010E94C804D1
:101FD000E0913001F091310182819381892B09F4E4
:101FE000B9CFF983E883C2CFDF91CF911F910F91D1
:101FF000FF90EF90DF90CF90089500913001109105
:10200000310184E491E00E94410DEC01D801139666
:102010009C938E93129778944E855F856C857D8511
:102020008A859B850E94700F8FB7F8948091360146
:102030009091370199838883D0933701C0933601FB
:10204000E0913201F091330100811181E8012A8190
:102050003B81A0914401B09145011097C1F0211539
:10206000310559F216968D919D910D90BC91A02D40
:10207000E9014E815F8168857985841B950BA60BEC
:10208000B70B181619061A061B060CF0B6CF1093DC
:102090003301009332018091340190913501918395
:1020A0008083F0933501E0933401A0913201B09127
:1020B00033011496ED91FC911597309741F0A08172
:1020C000B1811496ED91FC9115973097C1F7CD0130
:1020D0000E94C80492CF1F93CF93DF93EC011FB7E8
:1020E0001078F89462E471E00E943104892B39F48D
:1020F00064E471E0CE010E943104892B59F0809193
:1021000036019091370199838883D0933701C0932A
:1021100036012BC0E0913201F0913301309729F163
:1021200020913001309131012E173F07C9F0828193
:102130009381C817D907A1F4448155818A859B856D
:102140004817590769F413821282809136019091E1
:10215000370199838883D0933701C093360105C036
:102160000190F081E02D3097F9F6112309F0789471
:10217000DF91CF911F9108954231B8F42FB7F894B1
:1021800050E0440F551FFA01EA5BFE4F91838083B4
:10219000FA01E252FE4F7183608341E050E0FC019E
:1021A0005383428322230CF4789408958C017B019D
:1021B0006A018FB7F8940E945D047894E114F104E9
:1021C00041F020E030E0A90160E070E0CB010E9426
:1021D0005F0E8FB7F8940E94E804789481E083BF83
:1021E0008895FDCF97FB072E16F4009407D077FD56
:1021F00009D00E94251107FC05D03EF490958195E9
:102200009F4F0895709561957F4F0895052E97FB18
:102210001EF400940E941D1157FD07D00E94391131
:1022200007FC03D04EF40C941D1150954095309549
:1022300021953F4F4F4F5F4F089590958095709532
:1022400061957F4F8F4F9F4F0895AA1BBB1B51E194
:1022500007C0AA1FBB1FA617B70710F0A61BB70B16
:10226000881F991F5A95A9F780959095BC01CD01BB
:102270000895A1E21A2EAA1BBB1BFD010DC0AA1FC7
:10228000BB1FEE1FFF1FA217B307E407F50720F0DF
:10229000A21BB30BE40BF50B661F771F881F991F5A
:1022A0001A9469F760957095809590959B01AC01A3
:1022B000BD01CF010895DC012D923D924D925D92BA
:1022C0006D927D928D929D92AD92BD92CD92DD9256
:1022D000ED92FD920D931D93CD93DD93FF91EF91C0
:1022E0008DB78D938EB78D938FB78D93ED93FD93AF
:1022F000882799270994DC01CB0181309105811D44
:102300002D903D904D905D906D907D908D909D9025
:10231000AD90BD90CD90DD90ED90FD900D911D9113
:10232000CD91DD91ED91FD910D90F894FEBF0FBE22
:0C233000EDBFED91FD910994F894FFCFF2
:10233C000000000006010000000022011401000052
:10234C000000000000000000060000003801000042
:10235C000000000000000400000038010000000034
:08236C00020202026A011F02D5
:00000001FF
